{
	"contracts/DemoNodes.sol": {
		"DemoNodes": {
			"abi": [
				{
					"inputs": [],
					"name": "calculateAverage",
					"outputs": [],
					"stateMutability": "nonpayable",
					"type": "function"
				},
				{
					"inputs": [
						{
							"internalType": "address",
							"name": "_nodeAddress",
							"type": "address"
						}
					],
					"name": "callNodeScoring",
					"outputs": [],
					"stateMutability": "nonpayable",
					"type": "function"
				},
				{
					"inputs": [
						{
							"internalType": "address[]",
							"name": "_address",
							"type": "address[]"
						}
					],
					"name": "callNodes",
					"outputs": [],
					"stateMutability": "nonpayable",
					"type": "function"
				},
				{
					"inputs": [
						{
							"internalType": "uint256",
							"name": "",
							"type": "uint256"
						}
					],
					"name": "nodeAddresses",
					"outputs": [
						{
							"internalType": "address",
							"name": "",
							"type": "address"
						}
					],
					"stateMutability": "view",
					"type": "function"
				},
				{
					"inputs": [
						{
							"internalType": "address",
							"name": "",
							"type": "address"
						}
					],
					"name": "nodeScore",
					"outputs": [
						{
							"internalType": "uint256",
							"name": "",
							"type": "uint256"
						}
					],
					"stateMutability": "view",
					"type": "function"
				},
				{
					"inputs": [],
					"name": "scoring",
					"outputs": [
						{
							"internalType": "uint256",
							"name": "",
							"type": "uint256"
						}
					],
					"stateMutability": "view",
					"type": "function"
				},
				{
					"inputs": [
						{
							"internalType": "uint256",
							"name": "_score",
							"type": "uint256"
						},
						{
							"internalType": "address",
							"name": "_address",
							"type": "address"
						}
					],
					"name": "submitScore",
					"outputs": [],
					"stateMutability": "nonpayable",
					"type": "function"
				}
			],
			"devdoc": {
				"kind": "dev",
				"methods": {},
				"version": 1
			},
			"evm": {
				"assembly": "    /* \"contracts/DemoNodes.sol\":163:1131  contract DemoNodes {... */\n  mstore(0x40, 0x80)\n  callvalue\n  dup1\n  iszero\n  tag_1\n  jumpi\n  revert(0x00, 0x00)\ntag_1:\n  pop\n  dataSize(sub_0)\n  dup1\n  dataOffset(sub_0)\n  0x00\n  codecopy\n  0x00\n  return\nstop\n\nsub_0: assembly {\n        /* \"contracts/DemoNodes.sol\":163:1131  contract DemoNodes {... */\n      mstore(0x40, 0x80)\n      callvalue\n      dup1\n      iszero\n      tag_1\n      jumpi\n      revert(0x00, 0x00)\n    tag_1:\n      pop\n      jumpi(tag_2, lt(calldatasize, 0x04))\n      shr(0xe0, calldataload(0x00))\n      dup1\n      0xc4d77090\n      gt\n      tag_10\n      jumpi\n      dup1\n      0xc4d77090\n      eq\n      tag_6\n      jumpi\n      dup1\n      0xd5d4d2d9\n      eq\n      tag_7\n      jumpi\n      dup1\n      0xdf6a6f8c\n      eq\n      tag_8\n      jumpi\n      dup1\n      0xf52c4c5c\n      eq\n      tag_9\n      jumpi\n      jump(tag_2)\n    tag_10:\n      dup1\n      0x3da5866b\n      eq\n      tag_3\n      jumpi\n      dup1\n      0x7545ea8a\n      eq\n      tag_4\n      jumpi\n      dup1\n      0x86be4114\n      eq\n      tag_5\n      jumpi\n    tag_2:\n      revert(0x00, 0x00)\n        /* \"contracts/DemoNodes.sol\":951:1128  function callNodeScoring(address _nodeAddress) public {... */\n    tag_3:\n      tag_11\n      0x04\n      dup1\n      calldatasize\n      sub\n      dup2\n      add\n      swap1\n      tag_12\n      swap2\n      swap1\n      tag_13\n      jump\t// in\n    tag_12:\n      tag_14\n      jump\t// in\n    tag_11:\n      stop\n        /* \"contracts/DemoNodes.sol\":191:213  uint256 public scoring */\n    tag_4:\n      tag_15\n      tag_16\n      jump\t// in\n    tag_15:\n      mload(0x40)\n      tag_17\n      swap2\n      swap1\n      tag_18\n      jump\t// in\n    tag_17:\n      mload(0x40)\n      dup1\n      swap2\n      sub\n      swap1\n      return\n        /* \"contracts/DemoNodes.sol\":706:943  function calculateAverage() public{... */\n    tag_5:\n      tag_19\n      tag_20\n      jump\t// in\n    tag_19:\n      stop\n        /* \"contracts/DemoNodes.sol\":222:252  address[] public nodeAddresses */\n    tag_6:\n      tag_21\n      0x04\n      dup1\n      calldatasize\n      sub\n      dup2\n      add\n      swap1\n      tag_22\n      swap2\n      swap1\n      tag_23\n      jump\t// in\n    tag_22:\n      tag_24\n      jump\t// in\n    tag_21:\n      mload(0x40)\n      tag_25\n      swap2\n      swap1\n      tag_26\n      jump\t// in\n    tag_25:\n      mload(0x40)\n      dup1\n      swap2\n      sub\n      swap1\n      return\n        /* \"contracts/DemoNodes.sol\":312:486  function callNodes(address[] calldata _address) public {... */\n    tag_7:\n      tag_27\n      0x04\n      dup1\n      calldatasize\n      sub\n      dup2\n      add\n      swap1\n      tag_28\n      swap2\n      swap1\n      tag_29\n      jump\t// in\n    tag_28:\n      tag_30\n      jump\t// in\n    tag_27:\n      stop\n        /* \"contracts/DemoNodes.sol\":259:303  mapping(address => uint256) public nodeScore */\n    tag_8:\n      tag_31\n      0x04\n      dup1\n      calldatasize\n      sub\n      dup2\n      add\n      swap1\n      tag_32\n      swap2\n      swap1\n      tag_13\n      jump\t// in\n    tag_32:\n      tag_33\n      jump\t// in\n    tag_31:\n      mload(0x40)\n      tag_34\n      swap2\n      swap1\n      tag_18\n      jump\t// in\n    tag_34:\n      mload(0x40)\n      dup1\n      swap2\n      sub\n      swap1\n      return\n        /* \"contracts/DemoNodes.sol\":494:698  function submitScore(uint256 _score, address _address) public {... */\n    tag_9:\n      tag_35\n      0x04\n      dup1\n      calldatasize\n      sub\n      dup2\n      add\n      swap1\n      tag_36\n      swap2\n      swap1\n      tag_37\n      jump\t// in\n    tag_36:\n      tag_38\n      jump\t// in\n    tag_35:\n      stop\n        /* \"contracts/DemoNodes.sol\":951:1128  function callNodeScoring(address _nodeAddress) public {... */\n    tag_14:\n        /* \"contracts/DemoNodes.sol\":1016:1041  INodeScoring nodeContract */\n      0x00\n        /* \"contracts/DemoNodes.sol\":1057:1069  _nodeAddress */\n      dup2\n        /* \"contracts/DemoNodes.sol\":1016:1070  INodeScoring nodeContract = INodeScoring(_nodeAddress) */\n      swap1\n      pop\n        /* \"contracts/DemoNodes.sol\":1081:1094  uint256 score */\n      0x00\n        /* \"contracts/DemoNodes.sol\":1097:1109  nodeContract */\n      dup2\n        /* \"contracts/DemoNodes.sol\":1097:1118  nodeContract.getScore */\n      0xffffffffffffffffffffffffffffffffffffffff\n      and\n      0xafd82067\n        /* \"contracts/DemoNodes.sol\":1097:1120  nodeContract.getScore() */\n      mload(0x40)\n      dup2\n      0xffffffff\n      and\n      0xe0\n      shl\n      dup2\n      mstore\n      0x04\n      add\n      0x20\n      mload(0x40)\n      dup1\n      dup4\n      sub\n      dup2\n      dup7\n      gas\n      staticcall\n      iszero\n      dup1\n      iszero\n      tag_41\n      jumpi\n      returndatacopy(0x00, 0x00, returndatasize)\n      revert(0x00, returndatasize)\n    tag_41:\n      pop\n      pop\n      pop\n      pop\n      mload(0x40)\n      returndatasize\n      not(0x1f)\n      0x1f\n      dup3\n      add\n      and\n      dup3\n      add\n      dup1\n      0x40\n      mstore\n      pop\n      dup2\n      add\n      swap1\n      tag_42\n      swap2\n      swap1\n      tag_43\n      jump\t// in\n    tag_42:\n        /* \"contracts/DemoNodes.sol\":1081:1120  uint256 score = nodeContract.getScore() */\n      swap1\n      pop\n        /* \"contracts/DemoNodes.sol\":1005:1128  {... */\n      pop\n      pop\n        /* \"contracts/DemoNodes.sol\":951:1128  function callNodeScoring(address _nodeAddress) public {... */\n      pop\n      jump\t// out\n        /* \"contracts/DemoNodes.sol\":191:213  uint256 public scoring */\n    tag_16:\n      sload(0x00)\n      dup2\n      jump\t// out\n        /* \"contracts/DemoNodes.sol\":706:943  function calculateAverage() public{... */\n    tag_20:\n        /* \"contracts/DemoNodes.sol\":751:762  uint256 sum */\n      0x00\n        /* \"contracts/DemoNodes.sol\":765:766  0 */\n      0x00\n        /* \"contracts/DemoNodes.sol\":751:766  uint256 sum = 0 */\n      swap1\n      pop\n        /* \"contracts/DemoNodes.sol\":782:791  uint256 i */\n      0x00\n        /* \"contracts/DemoNodes.sol\":794:795  0 */\n      0x00\n        /* \"contracts/DemoNodes.sol\":782:795  uint256 i = 0 */\n      swap1\n      pop\n        /* \"contracts/DemoNodes.sol\":777:889  for (uint256 i = 0; i < nodeAddresses.length; i++) {... */\n    tag_45:\n        /* \"contracts/DemoNodes.sol\":801:814  nodeAddresses */\n      0x01\n        /* \"contracts/DemoNodes.sol\":801:821  nodeAddresses.length */\n      dup1\n      sload\n      swap1\n      pop\n        /* \"contracts/DemoNodes.sol\":797:798  i */\n      dup2\n        /* \"contracts/DemoNodes.sol\":797:821  i < nodeAddresses.length */\n      lt\n        /* \"contracts/DemoNodes.sol\":777:889  for (uint256 i = 0; i < nodeAddresses.length; i++) {... */\n      iszero\n      tag_46\n      jumpi\n        /* \"contracts/DemoNodes.sol\":850:859  nodeScore */\n      0x02\n        /* \"contracts/DemoNodes.sol\":850:877  nodeScore[nodeAddresses[i]] */\n      0x00\n        /* \"contracts/DemoNodes.sol\":860:873  nodeAddresses */\n      0x01\n        /* \"contracts/DemoNodes.sol\":874:875  i */\n      dup4\n        /* \"contracts/DemoNodes.sol\":860:876  nodeAddresses[i] */\n      dup2\n      sload\n      dup2\n      lt\n      tag_48\n      jumpi\n      tag_49\n      tag_50\n      jump\t// in\n    tag_49:\n    tag_48:\n      swap1\n      0x00\n      mstore\n      keccak256(0x00, 0x20)\n      add\n      0x00\n      swap1\n      sload\n      swap1\n      0x0100\n      exp\n      swap1\n      div\n      0xffffffffffffffffffffffffffffffffffffffff\n      and\n        /* \"contracts/DemoNodes.sol\":850:877  nodeScore[nodeAddresses[i]] */\n      0xffffffffffffffffffffffffffffffffffffffff\n      and\n      0xffffffffffffffffffffffffffffffffffffffff\n      and\n      dup2\n      mstore\n      0x20\n      add\n      swap1\n      dup2\n      mstore\n      0x20\n      add\n      0x00\n      keccak256\n      sload\n        /* \"contracts/DemoNodes.sol\":843:877  sum += nodeScore[nodeAddresses[i]] */\n      dup3\n      tag_52\n      swap2\n      swap1\n      tag_53\n      jump\t// in\n    tag_52:\n      swap2\n      pop\n        /* \"contracts/DemoNodes.sol\":823:826  i++ */\n      dup1\n      dup1\n      0x01\n      add\n      swap2\n      pop\n      pop\n        /* \"contracts/DemoNodes.sol\":777:889  for (uint256 i = 0; i < nodeAddresses.length; i++) {... */\n      jump(tag_45)\n    tag_46:\n      pop\n        /* \"contracts/DemoNodes.sol\":915:928  nodeAddresses */\n      0x01\n        /* \"contracts/DemoNodes.sol\":915:935  nodeAddresses.length */\n      dup1\n      sload\n      swap1\n      pop\n        /* \"contracts/DemoNodes.sol\":909:912  sum */\n      dup2\n        /* \"contracts/DemoNodes.sol\":909:935  sum / nodeAddresses.length */\n      tag_54\n      swap2\n      swap1\n      tag_55\n      jump\t// in\n    tag_54:\n        /* \"contracts/DemoNodes.sol\":899:906  scoring */\n      0x00\n        /* \"contracts/DemoNodes.sol\":899:935  scoring = sum / nodeAddresses.length */\n      dup2\n      swap1\n      sstore\n      pop\n        /* \"contracts/DemoNodes.sol\":740:943  {... */\n      pop\n        /* \"contracts/DemoNodes.sol\":706:943  function calculateAverage() public{... */\n      jump\t// out\n        /* \"contracts/DemoNodes.sol\":222:252  address[] public nodeAddresses */\n    tag_24:\n      0x01\n      dup2\n      dup2\n      sload\n      dup2\n      lt\n      tag_56\n      jumpi\n      0x00\n      dup1\n      revert\n    tag_56:\n      swap1\n      0x00\n      mstore\n      keccak256(0x00, 0x20)\n      add\n      0x00\n      swap2\n      pop\n      sload\n      swap1\n      0x0100\n      exp\n      swap1\n      div\n      0xffffffffffffffffffffffffffffffffffffffff\n      and\n      dup2\n      jump\t// out\n        /* \"contracts/DemoNodes.sol\":312:486  function callNodes(address[] calldata _address) public {... */\n    tag_30:\n        /* \"contracts/DemoNodes.sol\":383:392  uint256 i */\n      0x00\n        /* \"contracts/DemoNodes.sol\":395:396  0 */\n      0x00\n        /* \"contracts/DemoNodes.sol\":383:396  uint256 i = 0 */\n      swap1\n      pop\n        /* \"contracts/DemoNodes.sol\":378:479  for (uint256 i = 0; i < _address.length; i++) {... */\n    tag_59:\n        /* \"contracts/DemoNodes.sol\":402:410  _address */\n      dup3\n      dup3\n        /* \"contracts/DemoNodes.sol\":402:417  _address.length */\n      swap1\n      pop\n        /* \"contracts/DemoNodes.sol\":398:399  i */\n      dup2\n        /* \"contracts/DemoNodes.sol\":398:417  i < _address.length */\n      lt\n        /* \"contracts/DemoNodes.sol\":378:479  for (uint256 i = 0; i < _address.length; i++) {... */\n      iszero\n      tag_60\n      jumpi\n        /* \"contracts/DemoNodes.sol\":439:467  callNodeScoring(_address[i]) */\n      tag_62\n        /* \"contracts/DemoNodes.sol\":455:463  _address */\n      dup4\n      dup4\n        /* \"contracts/DemoNodes.sol\":464:465  i */\n      dup4\n        /* \"contracts/DemoNodes.sol\":455:466  _address[i] */\n      dup2\n      dup2\n      lt\n      tag_63\n      jumpi\n      tag_64\n      tag_50\n      jump\t// in\n    tag_64:\n    tag_63:\n      swap1\n      pop\n      0x20\n      mul\n      add\n      0x20\n      dup2\n      add\n      swap1\n      tag_65\n      swap2\n      swap1\n      tag_13\n      jump\t// in\n    tag_65:\n        /* \"contracts/DemoNodes.sol\":439:454  callNodeScoring */\n      tag_14\n        /* \"contracts/DemoNodes.sol\":439:467  callNodeScoring(_address[i]) */\n      jump\t// in\n    tag_62:\n        /* \"contracts/DemoNodes.sol\":419:422  i++ */\n      dup1\n      dup1\n      0x01\n      add\n      swap2\n      pop\n      pop\n        /* \"contracts/DemoNodes.sol\":378:479  for (uint256 i = 0; i < _address.length; i++) {... */\n      jump(tag_59)\n    tag_60:\n      pop\n        /* \"contracts/DemoNodes.sol\":312:486  function callNodes(address[] calldata _address) public {... */\n      pop\n      pop\n      jump\t// out\n        /* \"contracts/DemoNodes.sol\":259:303  mapping(address => uint256) public nodeScore */\n    tag_33:\n      mstore(0x20, 0x02)\n      dup1\n      0x00\n      mstore\n      keccak256(0x00, 0x40)\n      0x00\n      swap2\n      pop\n      swap1\n      pop\n      sload\n      dup2\n      jump\t// out\n        /* \"contracts/DemoNodes.sol\":494:698  function submitScore(uint256 _score, address _address) public {... */\n    tag_38:\n        /* \"contracts/DemoNodes.sol\":594:595  0 */\n      0x00\n        /* \"contracts/DemoNodes.sol\":571:580  nodeScore */\n      0x02\n        /* \"contracts/DemoNodes.sol\":571:590  nodeScore[_address] */\n      0x00\n        /* \"contracts/DemoNodes.sol\":581:589  _address */\n      dup4\n        /* \"contracts/DemoNodes.sol\":571:590  nodeScore[_address] */\n      0xffffffffffffffffffffffffffffffffffffffff\n      and\n      0xffffffffffffffffffffffffffffffffffffffff\n      and\n      dup2\n      mstore\n      0x20\n      add\n      swap1\n      dup2\n      mstore\n      0x20\n      add\n      0x00\n      keccak256\n      sload\n        /* \"contracts/DemoNodes.sol\":571:595  nodeScore[_address] == 0 */\n      sub\n        /* \"contracts/DemoNodes.sol\":567:652  if (nodeScore[_address] == 0) {... */\n      tag_67\n      jumpi\n        /* \"contracts/DemoNodes.sol\":612:625  nodeAddresses */\n      0x01\n        /* \"contracts/DemoNodes.sol\":631:639  _address */\n      dup2\n        /* \"contracts/DemoNodes.sol\":612:640  nodeAddresses.push(_address) */\n      swap1\n      dup1\n      0x01\n      dup2\n      sload\n      add\n      dup1\n      dup3\n      sstore\n      dup1\n      swap2\n      pop\n      pop\n      0x01\n      swap1\n      sub\n      swap1\n      0x00\n      mstore\n      keccak256(0x00, 0x20)\n      add\n      0x00\n      swap1\n      swap2\n      swap1\n      swap2\n      swap1\n      swap2\n      0x0100\n      exp\n      dup2\n      sload\n      dup2\n      0xffffffffffffffffffffffffffffffffffffffff\n      mul\n      not\n      and\n      swap1\n      dup4\n      0xffffffffffffffffffffffffffffffffffffffff\n      and\n      mul\n      or\n      swap1\n      sstore\n      pop\n        /* \"contracts/DemoNodes.sol\":567:652  if (nodeScore[_address] == 0) {... */\n    tag_67:\n        /* \"contracts/DemoNodes.sol\":684:690  _score */\n      dup2\n        /* \"contracts/DemoNodes.sol\":662:671  nodeScore */\n      0x02\n        /* \"contracts/DemoNodes.sol\":662:681  nodeScore[_address] */\n      0x00\n        /* \"contracts/DemoNodes.sol\":672:680  _address */\n      dup4\n        /* \"contracts/DemoNodes.sol\":662:681  nodeScore[_address] */\n      0xffffffffffffffffffffffffffffffffffffffff\n      and\n      0xffffffffffffffffffffffffffffffffffffffff\n      and\n      dup2\n      mstore\n      0x20\n      add\n      swap1\n      dup2\n      mstore\n      0x20\n      add\n      0x00\n      keccak256\n        /* \"contracts/DemoNodes.sol\":662:690  nodeScore[_address] = _score */\n      dup2\n      swap1\n      sstore\n      pop\n        /* \"contracts/DemoNodes.sol\":494:698  function submitScore(uint256 _score, address _address) public {... */\n      pop\n      pop\n      jump\t// out\n        /* \"#utility.yul\":88:205   */\n    tag_70:\n        /* \"#utility.yul\":197:198   */\n      0x00\n        /* \"#utility.yul\":194:195   */\n      0x00\n        /* \"#utility.yul\":187:199   */\n      revert\n        /* \"#utility.yul\":211:328   */\n    tag_71:\n        /* \"#utility.yul\":320:321   */\n      0x00\n        /* \"#utility.yul\":317:318   */\n      0x00\n        /* \"#utility.yul\":310:322   */\n      revert\n        /* \"#utility.yul\":334:460   */\n    tag_72:\n        /* \"#utility.yul\":371:378   */\n      0x00\n        /* \"#utility.yul\":411:453   */\n      0xffffffffffffffffffffffffffffffffffffffff\n        /* \"#utility.yul\":404:409   */\n      dup3\n        /* \"#utility.yul\":400:454   */\n      and\n        /* \"#utility.yul\":389:454   */\n      swap1\n      pop\n        /* \"#utility.yul\":334:460   */\n      swap2\n      swap1\n      pop\n      jump\t// out\n        /* \"#utility.yul\":466:562   */\n    tag_73:\n        /* \"#utility.yul\":503:510   */\n      0x00\n        /* \"#utility.yul\":532:556   */\n      tag_94\n        /* \"#utility.yul\":550:555   */\n      dup3\n        /* \"#utility.yul\":532:556   */\n      tag_72\n      jump\t// in\n    tag_94:\n        /* \"#utility.yul\":521:556   */\n      swap1\n      pop\n        /* \"#utility.yul\":466:562   */\n      swap2\n      swap1\n      pop\n      jump\t// out\n        /* \"#utility.yul\":568:690   */\n    tag_74:\n        /* \"#utility.yul\":641:665   */\n      tag_96\n        /* \"#utility.yul\":659:664   */\n      dup2\n        /* \"#utility.yul\":641:665   */\n      tag_73\n      jump\t// in\n    tag_96:\n        /* \"#utility.yul\":634:639   */\n      dup2\n        /* \"#utility.yul\":631:666   */\n      eq\n        /* \"#utility.yul\":621:684   */\n      tag_97\n      jumpi\n        /* \"#utility.yul\":680:681   */\n      0x00\n        /* \"#utility.yul\":677:678   */\n      0x00\n        /* \"#utility.yul\":670:682   */\n      revert\n        /* \"#utility.yul\":621:684   */\n    tag_97:\n        /* \"#utility.yul\":568:690   */\n      pop\n      jump\t// out\n        /* \"#utility.yul\":696:835   */\n    tag_75:\n        /* \"#utility.yul\":742:747   */\n      0x00\n        /* \"#utility.yul\":780:786   */\n      dup2\n        /* \"#utility.yul\":767:787   */\n      calldataload\n        /* \"#utility.yul\":758:787   */\n      swap1\n      pop\n        /* \"#utility.yul\":796:829   */\n      tag_99\n        /* \"#utility.yul\":823:828   */\n      dup2\n        /* \"#utility.yul\":796:829   */\n      tag_74\n      jump\t// in\n    tag_99:\n        /* \"#utility.yul\":696:835   */\n      swap3\n      swap2\n      pop\n      pop\n      jump\t// out\n        /* \"#utility.yul\":841:1170   */\n    tag_13:\n        /* \"#utility.yul\":900:906   */\n      0x00\n        /* \"#utility.yul\":949:951   */\n      0x20\n        /* \"#utility.yul\":937:946   */\n      dup3\n        /* \"#utility.yul\":928:935   */\n      dup5\n        /* \"#utility.yul\":924:947   */\n      sub\n        /* \"#utility.yul\":920:952   */\n      slt\n        /* \"#utility.yul\":917:1036   */\n      iszero\n      tag_101\n      jumpi\n        /* \"#utility.yul\":955:1034   */\n      tag_102\n      tag_70\n      jump\t// in\n    tag_102:\n        /* \"#utility.yul\":917:1036   */\n    tag_101:\n        /* \"#utility.yul\":1075:1076   */\n      0x00\n        /* \"#utility.yul\":1100:1153   */\n      tag_103\n        /* \"#utility.yul\":1145:1152   */\n      dup5\n        /* \"#utility.yul\":1136:1142   */\n      dup3\n        /* \"#utility.yul\":1125:1134   */\n      dup6\n        /* \"#utility.yul\":1121:1143   */\n      add\n        /* \"#utility.yul\":1100:1153   */\n      tag_75\n      jump\t// in\n    tag_103:\n        /* \"#utility.yul\":1090:1153   */\n      swap2\n      pop\n        /* \"#utility.yul\":1046:1163   */\n      pop\n        /* \"#utility.yul\":841:1170   */\n      swap3\n      swap2\n      pop\n      pop\n      jump\t// out\n        /* \"#utility.yul\":1176:1253   */\n    tag_76:\n        /* \"#utility.yul\":1213:1220   */\n      0x00\n        /* \"#utility.yul\":1242:1247   */\n      dup2\n        /* \"#utility.yul\":1231:1247   */\n      swap1\n      pop\n        /* \"#utility.yul\":1176:1253   */\n      swap2\n      swap1\n      pop\n      jump\t// out\n        /* \"#utility.yul\":1259:1377   */\n    tag_77:\n        /* \"#utility.yul\":1346:1370   */\n      tag_106\n        /* \"#utility.yul\":1364:1369   */\n      dup2\n        /* \"#utility.yul\":1346:1370   */\n      tag_76\n      jump\t// in\n    tag_106:\n        /* \"#utility.yul\":1341:1344   */\n      dup3\n        /* \"#utility.yul\":1334:1371   */\n      mstore\n        /* \"#utility.yul\":1259:1377   */\n      pop\n      pop\n      jump\t// out\n        /* \"#utility.yul\":1383:1605   */\n    tag_18:\n        /* \"#utility.yul\":1476:1480   */\n      0x00\n        /* \"#utility.yul\":1514:1516   */\n      0x20\n        /* \"#utility.yul\":1503:1512   */\n      dup3\n        /* \"#utility.yul\":1499:1517   */\n      add\n        /* \"#utility.yul\":1491:1517   */\n      swap1\n      pop\n        /* \"#utility.yul\":1527:1598   */\n      tag_108\n        /* \"#utility.yul\":1595:1596   */\n      0x00\n        /* \"#utility.yul\":1584:1593   */\n      dup4\n        /* \"#utility.yul\":1580:1597   */\n      add\n        /* \"#utility.yul\":1571:1577   */\n      dup5\n        /* \"#utility.yul\":1527:1598   */\n      tag_77\n      jump\t// in\n    tag_108:\n        /* \"#utility.yul\":1383:1605   */\n      swap3\n      swap2\n      pop\n      pop\n      jump\t// out\n        /* \"#utility.yul\":1611:1733   */\n    tag_78:\n        /* \"#utility.yul\":1684:1708   */\n      tag_110\n        /* \"#utility.yul\":1702:1707   */\n      dup2\n        /* \"#utility.yul\":1684:1708   */\n      tag_76\n      jump\t// in\n    tag_110:\n        /* \"#utility.yul\":1677:1682   */\n      dup2\n        /* \"#utility.yul\":1674:1709   */\n      eq\n        /* \"#utility.yul\":1664:1727   */\n      tag_111\n      jumpi\n        /* \"#utility.yul\":1723:1724   */\n      0x00\n        /* \"#utility.yul\":1720:1721   */\n      0x00\n        /* \"#utility.yul\":1713:1725   */\n      revert\n        /* \"#utility.yul\":1664:1727   */\n    tag_111:\n        /* \"#utility.yul\":1611:1733   */\n      pop\n      jump\t// out\n        /* \"#utility.yul\":1739:1878   */\n    tag_79:\n        /* \"#utility.yul\":1785:1790   */\n      0x00\n        /* \"#utility.yul\":1823:1829   */\n      dup2\n        /* \"#utility.yul\":1810:1830   */\n      calldataload\n        /* \"#utility.yul\":1801:1830   */\n      swap1\n      pop\n        /* \"#utility.yul\":1839:1872   */\n      tag_113\n        /* \"#utility.yul\":1866:1871   */\n      dup2\n        /* \"#utility.yul\":1839:1872   */\n      tag_78\n      jump\t// in\n    tag_113:\n        /* \"#utility.yul\":1739:1878   */\n      swap3\n      swap2\n      pop\n      pop\n      jump\t// out\n        /* \"#utility.yul\":1884:2213   */\n    tag_23:\n        /* \"#utility.yul\":1943:1949   */\n      0x00\n        /* \"#utility.yul\":1992:1994   */\n      0x20\n        /* \"#utility.yul\":1980:1989   */\n      dup3\n        /* \"#utility.yul\":1971:1978   */\n      dup5\n        /* \"#utility.yul\":1967:1990   */\n      sub\n        /* \"#utility.yul\":1963:1995   */\n      slt\n        /* \"#utility.yul\":1960:2079   */\n      iszero\n      tag_115\n      jumpi\n        /* \"#utility.yul\":1998:2077   */\n      tag_116\n      tag_70\n      jump\t// in\n    tag_116:\n        /* \"#utility.yul\":1960:2079   */\n    tag_115:\n        /* \"#utility.yul\":2118:2119   */\n      0x00\n        /* \"#utility.yul\":2143:2196   */\n      tag_117\n        /* \"#utility.yul\":2188:2195   */\n      dup5\n        /* \"#utility.yul\":2179:2185   */\n      dup3\n        /* \"#utility.yul\":2168:2177   */\n      dup6\n        /* \"#utility.yul\":2164:2186   */\n      add\n        /* \"#utility.yul\":2143:2196   */\n      tag_79\n      jump\t// in\n    tag_117:\n        /* \"#utility.yul\":2133:2196   */\n      swap2\n      pop\n        /* \"#utility.yul\":2089:2206   */\n      pop\n        /* \"#utility.yul\":1884:2213   */\n      swap3\n      swap2\n      pop\n      pop\n      jump\t// out\n        /* \"#utility.yul\":2219:2337   */\n    tag_80:\n        /* \"#utility.yul\":2306:2330   */\n      tag_119\n        /* \"#utility.yul\":2324:2329   */\n      dup2\n        /* \"#utility.yul\":2306:2330   */\n      tag_73\n      jump\t// in\n    tag_119:\n        /* \"#utility.yul\":2301:2304   */\n      dup3\n        /* \"#utility.yul\":2294:2331   */\n      mstore\n        /* \"#utility.yul\":2219:2337   */\n      pop\n      pop\n      jump\t// out\n        /* \"#utility.yul\":2343:2565   */\n    tag_26:\n        /* \"#utility.yul\":2436:2440   */\n      0x00\n        /* \"#utility.yul\":2474:2476   */\n      0x20\n        /* \"#utility.yul\":2463:2472   */\n      dup3\n        /* \"#utility.yul\":2459:2477   */\n      add\n        /* \"#utility.yul\":2451:2477   */\n      swap1\n      pop\n        /* \"#utility.yul\":2487:2558   */\n      tag_121\n        /* \"#utility.yul\":2555:2556   */\n      0x00\n        /* \"#utility.yul\":2544:2553   */\n      dup4\n        /* \"#utility.yul\":2540:2557   */\n      add\n        /* \"#utility.yul\":2531:2537   */\n      dup5\n        /* \"#utility.yul\":2487:2558   */\n      tag_80\n      jump\t// in\n    tag_121:\n        /* \"#utility.yul\":2343:2565   */\n      swap3\n      swap2\n      pop\n      pop\n      jump\t// out\n        /* \"#utility.yul\":2571:2688   */\n    tag_81:\n        /* \"#utility.yul\":2680:2681   */\n      0x00\n        /* \"#utility.yul\":2677:2678   */\n      0x00\n        /* \"#utility.yul\":2670:2682   */\n      revert\n        /* \"#utility.yul\":2694:2811   */\n    tag_82:\n        /* \"#utility.yul\":2803:2804   */\n      0x00\n        /* \"#utility.yul\":2800:2801   */\n      0x00\n        /* \"#utility.yul\":2793:2805   */\n      revert\n        /* \"#utility.yul\":2817:2934   */\n    tag_83:\n        /* \"#utility.yul\":2926:2927   */\n      0x00\n        /* \"#utility.yul\":2923:2924   */\n      0x00\n        /* \"#utility.yul\":2916:2928   */\n      revert\n        /* \"#utility.yul\":2957:3525   */\n    tag_84:\n        /* \"#utility.yul\":3030:3038   */\n      0x00\n        /* \"#utility.yul\":3040:3046   */\n      0x00\n        /* \"#utility.yul\":3090:3093   */\n      dup4\n        /* \"#utility.yul\":3083:3087   */\n      0x1f\n        /* \"#utility.yul\":3075:3081   */\n      dup5\n        /* \"#utility.yul\":3071:3088   */\n      add\n        /* \"#utility.yul\":3067:3094   */\n      slt\n        /* \"#utility.yul\":3057:3179   */\n      tag_126\n      jumpi\n        /* \"#utility.yul\":3098:3177   */\n      tag_127\n      tag_81\n      jump\t// in\n    tag_127:\n        /* \"#utility.yul\":3057:3179   */\n    tag_126:\n        /* \"#utility.yul\":3211:3217   */\n      dup3\n        /* \"#utility.yul\":3198:3218   */\n      calldataload\n        /* \"#utility.yul\":3188:3218   */\n      swap1\n      pop\n        /* \"#utility.yul\":3241:3259   */\n      0xffffffffffffffff\n        /* \"#utility.yul\":3233:3239   */\n      dup2\n        /* \"#utility.yul\":3230:3260   */\n      gt\n        /* \"#utility.yul\":3227:3344   */\n      iszero\n      tag_128\n      jumpi\n        /* \"#utility.yul\":3263:3342   */\n      tag_129\n      tag_82\n      jump\t// in\n    tag_129:\n        /* \"#utility.yul\":3227:3344   */\n    tag_128:\n        /* \"#utility.yul\":3377:3381   */\n      0x20\n        /* \"#utility.yul\":3369:3375   */\n      dup4\n        /* \"#utility.yul\":3365:3382   */\n      add\n        /* \"#utility.yul\":3353:3382   */\n      swap2\n      pop\n        /* \"#utility.yul\":3431:3434   */\n      dup4\n        /* \"#utility.yul\":3423:3427   */\n      0x20\n        /* \"#utility.yul\":3415:3421   */\n      dup3\n        /* \"#utility.yul\":3411:3428   */\n      mul\n        /* \"#utility.yul\":3401:3409   */\n      dup4\n        /* \"#utility.yul\":3397:3429   */\n      add\n        /* \"#utility.yul\":3394:3435   */\n      gt\n        /* \"#utility.yul\":3391:3519   */\n      iszero\n      tag_130\n      jumpi\n        /* \"#utility.yul\":3438:3517   */\n      tag_131\n      tag_83\n      jump\t// in\n    tag_131:\n        /* \"#utility.yul\":3391:3519   */\n    tag_130:\n        /* \"#utility.yul\":2957:3525   */\n      swap3\n      pop\n      swap3\n      swap1\n      pop\n      jump\t// out\n        /* \"#utility.yul\":3531:4090   */\n    tag_29:\n        /* \"#utility.yul\":3617:3623   */\n      0x00\n        /* \"#utility.yul\":3625:3631   */\n      0x00\n        /* \"#utility.yul\":3674:3676   */\n      0x20\n        /* \"#utility.yul\":3662:3671   */\n      dup4\n        /* \"#utility.yul\":3653:3660   */\n      dup6\n        /* \"#utility.yul\":3649:3672   */\n      sub\n        /* \"#utility.yul\":3645:3677   */\n      slt\n        /* \"#utility.yul\":3642:3761   */\n      iszero\n      tag_133\n      jumpi\n        /* \"#utility.yul\":3680:3759   */\n      tag_134\n      tag_70\n      jump\t// in\n    tag_134:\n        /* \"#utility.yul\":3642:3761   */\n    tag_133:\n        /* \"#utility.yul\":3828:3829   */\n      0x00\n        /* \"#utility.yul\":3817:3826   */\n      dup4\n        /* \"#utility.yul\":3813:3830   */\n      add\n        /* \"#utility.yul\":3800:3831   */\n      calldataload\n        /* \"#utility.yul\":3858:3876   */\n      0xffffffffffffffff\n        /* \"#utility.yul\":3850:3856   */\n      dup2\n        /* \"#utility.yul\":3847:3877   */\n      gt\n        /* \"#utility.yul\":3844:3961   */\n      iszero\n      tag_135\n      jumpi\n        /* \"#utility.yul\":3880:3959   */\n      tag_136\n      tag_71\n      jump\t// in\n    tag_136:\n        /* \"#utility.yul\":3844:3961   */\n    tag_135:\n        /* \"#utility.yul\":3993:4073   */\n      tag_137\n        /* \"#utility.yul\":4065:4072   */\n      dup6\n        /* \"#utility.yul\":4056:4062   */\n      dup3\n        /* \"#utility.yul\":4045:4054   */\n      dup7\n        /* \"#utility.yul\":4041:4063   */\n      add\n        /* \"#utility.yul\":3993:4073   */\n      tag_84\n      jump\t// in\n    tag_137:\n        /* \"#utility.yul\":3975:4073   */\n      swap3\n      pop\n      swap3\n      pop\n        /* \"#utility.yul\":3771:4083   */\n      pop\n        /* \"#utility.yul\":3531:4090   */\n      swap3\n      pop\n      swap3\n      swap1\n      pop\n      jump\t// out\n        /* \"#utility.yul\":4096:4570   */\n    tag_37:\n        /* \"#utility.yul\":4164:4170   */\n      0x00\n        /* \"#utility.yul\":4172:4178   */\n      0x00\n        /* \"#utility.yul\":4221:4223   */\n      0x40\n        /* \"#utility.yul\":4209:4218   */\n      dup4\n        /* \"#utility.yul\":4200:4207   */\n      dup6\n        /* \"#utility.yul\":4196:4219   */\n      sub\n        /* \"#utility.yul\":4192:4224   */\n      slt\n        /* \"#utility.yul\":4189:4308   */\n      iszero\n      tag_139\n      jumpi\n        /* \"#utility.yul\":4227:4306   */\n      tag_140\n      tag_70\n      jump\t// in\n    tag_140:\n        /* \"#utility.yul\":4189:4308   */\n    tag_139:\n        /* \"#utility.yul\":4347:4348   */\n      0x00\n        /* \"#utility.yul\":4372:4425   */\n      tag_141\n        /* \"#utility.yul\":4417:4424   */\n      dup6\n        /* \"#utility.yul\":4408:4414   */\n      dup3\n        /* \"#utility.yul\":4397:4406   */\n      dup7\n        /* \"#utility.yul\":4393:4415   */\n      add\n        /* \"#utility.yul\":4372:4425   */\n      tag_79\n      jump\t// in\n    tag_141:\n        /* \"#utility.yul\":4362:4425   */\n      swap3\n      pop\n        /* \"#utility.yul\":4318:4435   */\n      pop\n        /* \"#utility.yul\":4474:4476   */\n      0x20\n        /* \"#utility.yul\":4500:4553   */\n      tag_142\n        /* \"#utility.yul\":4545:4552   */\n      dup6\n        /* \"#utility.yul\":4536:4542   */\n      dup3\n        /* \"#utility.yul\":4525:4534   */\n      dup7\n        /* \"#utility.yul\":4521:4543   */\n      add\n        /* \"#utility.yul\":4500:4553   */\n      tag_75\n      jump\t// in\n    tag_142:\n        /* \"#utility.yul\":4490:4553   */\n      swap2\n      pop\n        /* \"#utility.yul\":4445:4563   */\n      pop\n        /* \"#utility.yul\":4096:4570   */\n      swap3\n      pop\n      swap3\n      swap1\n      pop\n      jump\t// out\n        /* \"#utility.yul\":4576:4719   */\n    tag_85:\n        /* \"#utility.yul\":4633:4638   */\n      0x00\n        /* \"#utility.yul\":4664:4670   */\n      dup2\n        /* \"#utility.yul\":4658:4671   */\n      mload\n        /* \"#utility.yul\":4649:4671   */\n      swap1\n      pop\n        /* \"#utility.yul\":4680:4713   */\n      tag_144\n        /* \"#utility.yul\":4707:4712   */\n      dup2\n        /* \"#utility.yul\":4680:4713   */\n      tag_78\n      jump\t// in\n    tag_144:\n        /* \"#utility.yul\":4576:4719   */\n      swap3\n      swap2\n      pop\n      pop\n      jump\t// out\n        /* \"#utility.yul\":4725:5076   */\n    tag_43:\n        /* \"#utility.yul\":4795:4801   */\n      0x00\n        /* \"#utility.yul\":4844:4846   */\n      0x20\n        /* \"#utility.yul\":4832:4841   */\n      dup3\n        /* \"#utility.yul\":4823:4830   */\n      dup5\n        /* \"#utility.yul\":4819:4842   */\n      sub\n        /* \"#utility.yul\":4815:4847   */\n      slt\n        /* \"#utility.yul\":4812:4931   */\n      iszero\n      tag_146\n      jumpi\n        /* \"#utility.yul\":4850:4929   */\n      tag_147\n      tag_70\n      jump\t// in\n    tag_147:\n        /* \"#utility.yul\":4812:4931   */\n    tag_146:\n        /* \"#utility.yul\":4970:4971   */\n      0x00\n        /* \"#utility.yul\":4995:5059   */\n      tag_148\n        /* \"#utility.yul\":5051:5058   */\n      dup5\n        /* \"#utility.yul\":5042:5048   */\n      dup3\n        /* \"#utility.yul\":5031:5040   */\n      dup6\n        /* \"#utility.yul\":5027:5049   */\n      add\n        /* \"#utility.yul\":4995:5059   */\n      tag_85\n      jump\t// in\n    tag_148:\n        /* \"#utility.yul\":4985:5059   */\n      swap2\n      pop\n        /* \"#utility.yul\":4941:5069   */\n      pop\n        /* \"#utility.yul\":4725:5076   */\n      swap3\n      swap2\n      pop\n      pop\n      jump\t// out\n        /* \"#utility.yul\":5082:5262   */\n    tag_50:\n        /* \"#utility.yul\":5130:5207   */\n      0x4e487b7100000000000000000000000000000000000000000000000000000000\n        /* \"#utility.yul\":5127:5128   */\n      0x00\n        /* \"#utility.yul\":5120:5208   */\n      mstore\n        /* \"#utility.yul\":5227:5231   */\n      0x32\n        /* \"#utility.yul\":5224:5225   */\n      0x04\n        /* \"#utility.yul\":5217:5232   */\n      mstore\n        /* \"#utility.yul\":5251:5255   */\n      0x24\n        /* \"#utility.yul\":5248:5249   */\n      0x00\n        /* \"#utility.yul\":5241:5256   */\n      revert\n        /* \"#utility.yul\":5268:5448   */\n    tag_86:\n        /* \"#utility.yul\":5316:5393   */\n      0x4e487b7100000000000000000000000000000000000000000000000000000000\n        /* \"#utility.yul\":5313:5314   */\n      0x00\n        /* \"#utility.yul\":5306:5394   */\n      mstore\n        /* \"#utility.yul\":5413:5417   */\n      0x11\n        /* \"#utility.yul\":5410:5411   */\n      0x04\n        /* \"#utility.yul\":5403:5418   */\n      mstore\n        /* \"#utility.yul\":5437:5441   */\n      0x24\n        /* \"#utility.yul\":5434:5435   */\n      0x00\n        /* \"#utility.yul\":5427:5442   */\n      revert\n        /* \"#utility.yul\":5454:5645   */\n    tag_53:\n        /* \"#utility.yul\":5494:5497   */\n      0x00\n        /* \"#utility.yul\":5513:5533   */\n      tag_152\n        /* \"#utility.yul\":5531:5532   */\n      dup3\n        /* \"#utility.yul\":5513:5533   */\n      tag_76\n      jump\t// in\n    tag_152:\n        /* \"#utility.yul\":5508:5533   */\n      swap2\n      pop\n        /* \"#utility.yul\":5547:5567   */\n      tag_153\n        /* \"#utility.yul\":5565:5566   */\n      dup4\n        /* \"#utility.yul\":5547:5567   */\n      tag_76\n      jump\t// in\n    tag_153:\n        /* \"#utility.yul\":5542:5567   */\n      swap3\n      pop\n        /* \"#utility.yul\":5590:5591   */\n      dup3\n        /* \"#utility.yul\":5587:5588   */\n      dup3\n        /* \"#utility.yul\":5583:5592   */\n      add\n        /* \"#utility.yul\":5576:5592   */\n      swap1\n      pop\n        /* \"#utility.yul\":5611:5614   */\n      dup1\n        /* \"#utility.yul\":5608:5609   */\n      dup3\n        /* \"#utility.yul\":5605:5615   */\n      gt\n        /* \"#utility.yul\":5602:5638   */\n      iszero\n      tag_154\n      jumpi\n        /* \"#utility.yul\":5618:5636   */\n      tag_155\n      tag_86\n      jump\t// in\n    tag_155:\n        /* \"#utility.yul\":5602:5638   */\n    tag_154:\n        /* \"#utility.yul\":5454:5645   */\n      swap3\n      swap2\n      pop\n      pop\n      jump\t// out\n        /* \"#utility.yul\":5651:5831   */\n    tag_87:\n        /* \"#utility.yul\":5699:5776   */\n      0x4e487b7100000000000000000000000000000000000000000000000000000000\n        /* \"#utility.yul\":5696:5697   */\n      0x00\n        /* \"#utility.yul\":5689:5777   */\n      mstore\n        /* \"#utility.yul\":5796:5800   */\n      0x12\n        /* \"#utility.yul\":5793:5794   */\n      0x04\n        /* \"#utility.yul\":5786:5801   */\n      mstore\n        /* \"#utility.yul\":5820:5824   */\n      0x24\n        /* \"#utility.yul\":5817:5818   */\n      0x00\n        /* \"#utility.yul\":5810:5825   */\n      revert\n        /* \"#utility.yul\":5837:6022   */\n    tag_55:\n        /* \"#utility.yul\":5877:5878   */\n      0x00\n        /* \"#utility.yul\":5894:5914   */\n      tag_158\n        /* \"#utility.yul\":5912:5913   */\n      dup3\n        /* \"#utility.yul\":5894:5914   */\n      tag_76\n      jump\t// in\n    tag_158:\n        /* \"#utility.yul\":5889:5914   */\n      swap2\n      pop\n        /* \"#utility.yul\":5928:5948   */\n      tag_159\n        /* \"#utility.yul\":5946:5947   */\n      dup4\n        /* \"#utility.yul\":5928:5948   */\n      tag_76\n      jump\t// in\n    tag_159:\n        /* \"#utility.yul\":5923:5948   */\n      swap3\n      pop\n        /* \"#utility.yul\":5967:5968   */\n      dup3\n        /* \"#utility.yul\":5957:5992   */\n      tag_160\n      jumpi\n        /* \"#utility.yul\":5972:5990   */\n      tag_161\n      tag_87\n      jump\t// in\n    tag_161:\n        /* \"#utility.yul\":5957:5992   */\n    tag_160:\n        /* \"#utility.yul\":6014:6015   */\n      dup3\n        /* \"#utility.yul\":6011:6012   */\n      dup3\n        /* \"#utility.yul\":6007:6016   */\n      div\n        /* \"#utility.yul\":6002:6016   */\n      swap1\n      pop\n        /* \"#utility.yul\":5837:6022   */\n      swap3\n      swap2\n      pop\n      pop\n      jump\t// out\n\n    auxdata: 0xa264697066735822122079409f79388cd6c73bb25508c89d507065735fc31816140707db669b0af6c20d64736f6c634300081f0033\n}\n",
				"bytecode": {
					"linkReferences": {},
					"object": "6080604052348015600e575f5ffd5b506107ad8061001c5f395ff3fe608060405234801561000f575f5ffd5b506004361061007b575f3560e01c8063c4d7709011610059578063c4d77090146100c3578063d5d4d2d9146100f3578063df6a6f8c1461010f578063f52c4c5c1461013f5761007b565b80633da5866b1461007f5780637545ea8a1461009b57806386be4114146100b9575b5f5ffd5b6100996004803603810190610094919061048b565b61015b565b005b6100a36101d4565b6040516100b091906104ce565b60405180910390f35b6100c16101d9565b005b6100dd60048036038101906100d89190610511565b61029c565b6040516100ea919061054b565b60405180910390f35b61010d600480360381019061010891906105c5565b6102d7565b005b6101296004803603810190610124919061048b565b610329565b60405161013691906104ce565b60405180910390f35b61015960048036038101906101549190610610565b61033e565b005b5f8190505f8173ffffffffffffffffffffffffffffffffffffffff1663afd820676040518163ffffffff1660e01b8152600401602060405180830381865afa1580156101a9573d5f5f3e3d5ffd5b505050506040513d601f19601f820116820180604052508101906101cd9190610662565b9050505050565b5f5481565b5f5f90505f5f90505b6001805490508110156102825760025f600183815481106102065761020561068d565b5b905f5260205f20015f9054906101000a900473ffffffffffffffffffffffffffffffffffffffff1673ffffffffffffffffffffffffffffffffffffffff1673ffffffffffffffffffffffffffffffffffffffff1681526020019081526020015f20548261027391906106e7565b915080806001019150506101e2565b50600180549050816102949190610747565b5f8190555050565b600181815481106102ab575f80fd5b905f5260205f20015f915054906101000a900473ffffffffffffffffffffffffffffffffffffffff1681565b5f5f90505b82829050811015610324576103178383838181106102fd576102fc61068d565b5b9050602002016020810190610312919061048b565b61015b565b80806001019150506102dc565b505050565b6002602052805f5260405f205f915090505481565b5f60025f8373ffffffffffffffffffffffffffffffffffffffff1673ffffffffffffffffffffffffffffffffffffffff1681526020019081526020015f2054036103e357600181908060018154018082558091505060019003905f5260205f20015f9091909190916101000a81548173ffffffffffffffffffffffffffffffffffffffff021916908373ffffffffffffffffffffffffffffffffffffffff1602179055505b8160025f8373ffffffffffffffffffffffffffffffffffffffff1673ffffffffffffffffffffffffffffffffffffffff1681526020019081526020015f20819055505050565b5f5ffd5b5f5ffd5b5f73ffffffffffffffffffffffffffffffffffffffff82169050919050565b5f61045a82610431565b9050919050565b61046a81610450565b8114610474575f5ffd5b50565b5f8135905061048581610461565b92915050565b5f602082840312156104a05761049f610429565b5b5f6104ad84828501610477565b91505092915050565b5f819050919050565b6104c8816104b6565b82525050565b5f6020820190506104e15f8301846104bf565b92915050565b6104f0816104b6565b81146104fa575f5ffd5b50565b5f8135905061050b816104e7565b92915050565b5f6020828403121561052657610525610429565b5b5f610533848285016104fd565b91505092915050565b61054581610450565b82525050565b5f60208201905061055e5f83018461053c565b92915050565b5f5ffd5b5f5ffd5b5f5ffd5b5f5f83601f84011261058557610584610564565b5b8235905067ffffffffffffffff8111156105a2576105a1610568565b5b6020830191508360208202830111156105be576105bd61056c565b5b9250929050565b5f5f602083850312156105db576105da610429565b5b5f83013567ffffffffffffffff8111156105f8576105f761042d565b5b61060485828601610570565b92509250509250929050565b5f5f6040838503121561062657610625610429565b5b5f610633858286016104fd565b925050602061064485828601610477565b9150509250929050565b5f8151905061065c816104e7565b92915050565b5f6020828403121561067757610676610429565b5b5f6106848482850161064e565b91505092915050565b7f4e487b71000000000000000000000000000000000000000000000000000000005f52603260045260245ffd5b7f4e487b71000000000000000000000000000000000000000000000000000000005f52601160045260245ffd5b5f6106f1826104b6565b91506106fc836104b6565b9250828201905080821115610714576107136106ba565b5b92915050565b7f4e487b71000000000000000000000000000000000000000000000000000000005f52601260045260245ffd5b5f610751826104b6565b915061075c836104b6565b92508261076c5761076b61071a565b5b82820490509291505056fea264697066735822122079409f79388cd6c73bb25508c89d507065735fc31816140707db669b0af6c20d64736f6c634300081f0033",
					"opcodes": "PUSH1 0x80 PUSH1 0x40 MSTORE CALLVALUE DUP1 ISZERO PUSH1 0xE JUMPI PUSH0 PUSH0 REVERT JUMPDEST POP PUSH2 0x7AD DUP1 PUSH2 0x1C PUSH0 CODECOPY PUSH0 RETURN INVALID PUSH1 0x80 PUSH1 0x40 MSTORE CALLVALUE DUP1 ISZERO PUSH2 0xF JUMPI PUSH0 PUSH0 REVERT JUMPDEST POP PUSH1 0x4 CALLDATASIZE LT PUSH2 0x7B JUMPI PUSH0 CALLDATALOAD PUSH1 0xE0 SHR DUP1 PUSH4 0xC4D77090 GT PUSH2 0x59 JUMPI DUP1 PUSH4 0xC4D77090 EQ PUSH2 0xC3 JUMPI DUP1 PUSH4 0xD5D4D2D9 EQ PUSH2 0xF3 JUMPI DUP1 PUSH4 0xDF6A6F8C EQ PUSH2 0x10F JUMPI DUP1 PUSH4 0xF52C4C5C EQ PUSH2 0x13F JUMPI PUSH2 0x7B JUMP JUMPDEST DUP1 PUSH4 0x3DA5866B EQ PUSH2 0x7F JUMPI DUP1 PUSH4 0x7545EA8A EQ PUSH2 0x9B JUMPI DUP1 PUSH4 0x86BE4114 EQ PUSH2 0xB9 JUMPI JUMPDEST PUSH0 PUSH0 REVERT JUMPDEST PUSH2 0x99 PUSH1 0x4 DUP1 CALLDATASIZE SUB DUP2 ADD SWAP1 PUSH2 0x94 SWAP2 SWAP1 PUSH2 0x48B JUMP JUMPDEST PUSH2 0x15B JUMP JUMPDEST STOP JUMPDEST PUSH2 0xA3 PUSH2 0x1D4 JUMP JUMPDEST PUSH1 0x40 MLOAD PUSH2 0xB0 SWAP2 SWAP1 PUSH2 0x4CE JUMP JUMPDEST PUSH1 0x40 MLOAD DUP1 SWAP2 SUB SWAP1 RETURN JUMPDEST PUSH2 0xC1 PUSH2 0x1D9 JUMP JUMPDEST STOP JUMPDEST PUSH2 0xDD PUSH1 0x4 DUP1 CALLDATASIZE SUB DUP2 ADD SWAP1 PUSH2 0xD8 SWAP2 SWAP1 PUSH2 0x511 JUMP JUMPDEST PUSH2 0x29C JUMP JUMPDEST PUSH1 0x40 MLOAD PUSH2 0xEA SWAP2 SWAP1 PUSH2 0x54B JUMP JUMPDEST PUSH1 0x40 MLOAD DUP1 SWAP2 SUB SWAP1 RETURN JUMPDEST PUSH2 0x10D PUSH1 0x4 DUP1 CALLDATASIZE SUB DUP2 ADD SWAP1 PUSH2 0x108 SWAP2 SWAP1 PUSH2 0x5C5 JUMP JUMPDEST PUSH2 0x2D7 JUMP JUMPDEST STOP JUMPDEST PUSH2 0x129 PUSH1 0x4 DUP1 CALLDATASIZE SUB DUP2 ADD SWAP1 PUSH2 0x124 SWAP2 SWAP1 PUSH2 0x48B JUMP JUMPDEST PUSH2 0x329 JUMP JUMPDEST PUSH1 0x40 MLOAD PUSH2 0x136 SWAP2 SWAP1 PUSH2 0x4CE JUMP JUMPDEST PUSH1 0x40 MLOAD DUP1 SWAP2 SUB SWAP1 RETURN JUMPDEST PUSH2 0x159 PUSH1 0x4 DUP1 CALLDATASIZE SUB DUP2 ADD SWAP1 PUSH2 0x154 SWAP2 SWAP1 PUSH2 0x610 JUMP JUMPDEST PUSH2 0x33E JUMP JUMPDEST STOP JUMPDEST PUSH0 DUP2 SWAP1 POP PUSH0 DUP2 PUSH20 0xFFFFFFFFFFFFFFFFFFFFFFFFFFFFFFFFFFFFFFFF AND PUSH4 0xAFD82067 PUSH1 0x40 MLOAD DUP2 PUSH4 0xFFFFFFFF AND PUSH1 0xE0 SHL DUP2 MSTORE PUSH1 0x4 ADD PUSH1 0x20 PUSH1 0x40 MLOAD DUP1 DUP4 SUB DUP2 DUP7 GAS STATICCALL ISZERO DUP1 ISZERO PUSH2 0x1A9 JUMPI RETURNDATASIZE PUSH0 PUSH0 RETURNDATACOPY RETURNDATASIZE PUSH0 REVERT JUMPDEST POP POP POP POP PUSH1 0x40 MLOAD RETURNDATASIZE PUSH1 0x1F NOT PUSH1 0x1F DUP3 ADD AND DUP3 ADD DUP1 PUSH1 0x40 MSTORE POP DUP2 ADD SWAP1 PUSH2 0x1CD SWAP2 SWAP1 PUSH2 0x662 JUMP JUMPDEST SWAP1 POP POP POP POP JUMP JUMPDEST PUSH0 SLOAD DUP2 JUMP JUMPDEST PUSH0 PUSH0 SWAP1 POP PUSH0 PUSH0 SWAP1 POP JUMPDEST PUSH1 0x1 DUP1 SLOAD SWAP1 POP DUP2 LT ISZERO PUSH2 0x282 JUMPI PUSH1 0x2 PUSH0 PUSH1 0x1 DUP4 DUP2 SLOAD DUP2 LT PUSH2 0x206 JUMPI PUSH2 0x205 PUSH2 0x68D JUMP JUMPDEST JUMPDEST SWAP1 PUSH0 MSTORE PUSH1 0x20 PUSH0 KECCAK256 ADD PUSH0 SWAP1 SLOAD SWAP1 PUSH2 0x100 EXP SWAP1 DIV PUSH20 0xFFFFFFFFFFFFFFFFFFFFFFFFFFFFFFFFFFFFFFFF AND PUSH20 0xFFFFFFFFFFFFFFFFFFFFFFFFFFFFFFFFFFFFFFFF AND PUSH20 0xFFFFFFFFFFFFFFFFFFFFFFFFFFFFFFFFFFFFFFFF AND DUP2 MSTORE PUSH1 0x20 ADD SWAP1 DUP2 MSTORE PUSH1 0x20 ADD PUSH0 KECCAK256 SLOAD DUP3 PUSH2 0x273 SWAP2 SWAP1 PUSH2 0x6E7 JUMP JUMPDEST SWAP2 POP DUP1 DUP1 PUSH1 0x1 ADD SWAP2 POP POP PUSH2 0x1E2 JUMP JUMPDEST POP PUSH1 0x1 DUP1 SLOAD SWAP1 POP DUP2 PUSH2 0x294 SWAP2 SWAP1 PUSH2 0x747 JUMP JUMPDEST PUSH0 DUP2 SWAP1 SSTORE POP POP JUMP JUMPDEST PUSH1 0x1 DUP2 DUP2 SLOAD DUP2 LT PUSH2 0x2AB JUMPI PUSH0 DUP1 REVERT JUMPDEST SWAP1 PUSH0 MSTORE PUSH1 0x20 PUSH0 KECCAK256 ADD PUSH0 SWAP2 POP SLOAD SWAP1 PUSH2 0x100 EXP SWAP1 DIV PUSH20 0xFFFFFFFFFFFFFFFFFFFFFFFFFFFFFFFFFFFFFFFF AND DUP2 JUMP JUMPDEST PUSH0 PUSH0 SWAP1 POP JUMPDEST DUP3 DUP3 SWAP1 POP DUP2 LT ISZERO PUSH2 0x324 JUMPI PUSH2 0x317 DUP4 DUP4 DUP4 DUP2 DUP2 LT PUSH2 0x2FD JUMPI PUSH2 0x2FC PUSH2 0x68D JUMP JUMPDEST JUMPDEST SWAP1 POP PUSH1 0x20 MUL ADD PUSH1 0x20 DUP2 ADD SWAP1 PUSH2 0x312 SWAP2 SWAP1 PUSH2 0x48B JUMP JUMPDEST PUSH2 0x15B JUMP JUMPDEST DUP1 DUP1 PUSH1 0x1 ADD SWAP2 POP POP PUSH2 0x2DC JUMP JUMPDEST POP POP POP JUMP JUMPDEST PUSH1 0x2 PUSH1 0x20 MSTORE DUP1 PUSH0 MSTORE PUSH1 0x40 PUSH0 KECCAK256 PUSH0 SWAP2 POP SWAP1 POP SLOAD DUP2 JUMP JUMPDEST PUSH0 PUSH1 0x2 PUSH0 DUP4 PUSH20 0xFFFFFFFFFFFFFFFFFFFFFFFFFFFFFFFFFFFFFFFF AND PUSH20 0xFFFFFFFFFFFFFFFFFFFFFFFFFFFFFFFFFFFFFFFF AND DUP2 MSTORE PUSH1 0x20 ADD SWAP1 DUP2 MSTORE PUSH1 0x20 ADD PUSH0 KECCAK256 SLOAD SUB PUSH2 0x3E3 JUMPI PUSH1 0x1 DUP2 SWAP1 DUP1 PUSH1 0x1 DUP2 SLOAD ADD DUP1 DUP3 SSTORE DUP1 SWAP2 POP POP PUSH1 0x1 SWAP1 SUB SWAP1 PUSH0 MSTORE PUSH1 0x20 PUSH0 KECCAK256 ADD PUSH0 SWAP1 SWAP2 SWAP1 SWAP2 SWAP1 SWAP2 PUSH2 0x100 EXP DUP2 SLOAD DUP2 PUSH20 0xFFFFFFFFFFFFFFFFFFFFFFFFFFFFFFFFFFFFFFFF MUL NOT AND SWAP1 DUP4 PUSH20 0xFFFFFFFFFFFFFFFFFFFFFFFFFFFFFFFFFFFFFFFF AND MUL OR SWAP1 SSTORE POP JUMPDEST DUP2 PUSH1 0x2 PUSH0 DUP4 PUSH20 0xFFFFFFFFFFFFFFFFFFFFFFFFFFFFFFFFFFFFFFFF AND PUSH20 0xFFFFFFFFFFFFFFFFFFFFFFFFFFFFFFFFFFFFFFFF AND DUP2 MSTORE PUSH1 0x20 ADD SWAP1 DUP2 MSTORE PUSH1 0x20 ADD PUSH0 KECCAK256 DUP2 SWAP1 SSTORE POP POP POP JUMP JUMPDEST PUSH0 PUSH0 REVERT JUMPDEST PUSH0 PUSH0 REVERT JUMPDEST PUSH0 PUSH20 0xFFFFFFFFFFFFFFFFFFFFFFFFFFFFFFFFFFFFFFFF DUP3 AND SWAP1 POP SWAP2 SWAP1 POP JUMP JUMPDEST PUSH0 PUSH2 0x45A DUP3 PUSH2 0x431 JUMP JUMPDEST SWAP1 POP SWAP2 SWAP1 POP JUMP JUMPDEST PUSH2 0x46A DUP2 PUSH2 0x450 JUMP JUMPDEST DUP2 EQ PUSH2 0x474 JUMPI PUSH0 PUSH0 REVERT JUMPDEST POP JUMP JUMPDEST PUSH0 DUP2 CALLDATALOAD SWAP1 POP PUSH2 0x485 DUP2 PUSH2 0x461 JUMP JUMPDEST SWAP3 SWAP2 POP POP JUMP JUMPDEST PUSH0 PUSH1 0x20 DUP3 DUP5 SUB SLT ISZERO PUSH2 0x4A0 JUMPI PUSH2 0x49F PUSH2 0x429 JUMP JUMPDEST JUMPDEST PUSH0 PUSH2 0x4AD DUP5 DUP3 DUP6 ADD PUSH2 0x477 JUMP JUMPDEST SWAP2 POP POP SWAP3 SWAP2 POP POP JUMP JUMPDEST PUSH0 DUP2 SWAP1 POP SWAP2 SWAP1 POP JUMP JUMPDEST PUSH2 0x4C8 DUP2 PUSH2 0x4B6 JUMP JUMPDEST DUP3 MSTORE POP POP JUMP JUMPDEST PUSH0 PUSH1 0x20 DUP3 ADD SWAP1 POP PUSH2 0x4E1 PUSH0 DUP4 ADD DUP5 PUSH2 0x4BF JUMP JUMPDEST SWAP3 SWAP2 POP POP JUMP JUMPDEST PUSH2 0x4F0 DUP2 PUSH2 0x4B6 JUMP JUMPDEST DUP2 EQ PUSH2 0x4FA JUMPI PUSH0 PUSH0 REVERT JUMPDEST POP JUMP JUMPDEST PUSH0 DUP2 CALLDATALOAD SWAP1 POP PUSH2 0x50B DUP2 PUSH2 0x4E7 JUMP JUMPDEST SWAP3 SWAP2 POP POP JUMP JUMPDEST PUSH0 PUSH1 0x20 DUP3 DUP5 SUB SLT ISZERO PUSH2 0x526 JUMPI PUSH2 0x525 PUSH2 0x429 JUMP JUMPDEST JUMPDEST PUSH0 PUSH2 0x533 DUP5 DUP3 DUP6 ADD PUSH2 0x4FD JUMP JUMPDEST SWAP2 POP POP SWAP3 SWAP2 POP POP JUMP JUMPDEST PUSH2 0x545 DUP2 PUSH2 0x450 JUMP JUMPDEST DUP3 MSTORE POP POP JUMP JUMPDEST PUSH0 PUSH1 0x20 DUP3 ADD SWAP1 POP PUSH2 0x55E PUSH0 DUP4 ADD DUP5 PUSH2 0x53C JUMP JUMPDEST SWAP3 SWAP2 POP POP JUMP JUMPDEST PUSH0 PUSH0 REVERT JUMPDEST PUSH0 PUSH0 REVERT JUMPDEST PUSH0 PUSH0 REVERT JUMPDEST PUSH0 PUSH0 DUP4 PUSH1 0x1F DUP5 ADD SLT PUSH2 0x585 JUMPI PUSH2 0x584 PUSH2 0x564 JUMP JUMPDEST JUMPDEST DUP3 CALLDATALOAD SWAP1 POP PUSH8 0xFFFFFFFFFFFFFFFF DUP2 GT ISZERO PUSH2 0x5A2 JUMPI PUSH2 0x5A1 PUSH2 0x568 JUMP JUMPDEST JUMPDEST PUSH1 0x20 DUP4 ADD SWAP2 POP DUP4 PUSH1 0x20 DUP3 MUL DUP4 ADD GT ISZERO PUSH2 0x5BE JUMPI PUSH2 0x5BD PUSH2 0x56C JUMP JUMPDEST JUMPDEST SWAP3 POP SWAP3 SWAP1 POP JUMP JUMPDEST PUSH0 PUSH0 PUSH1 0x20 DUP4 DUP6 SUB SLT ISZERO PUSH2 0x5DB JUMPI PUSH2 0x5DA PUSH2 0x429 JUMP JUMPDEST JUMPDEST PUSH0 DUP4 ADD CALLDATALOAD PUSH8 0xFFFFFFFFFFFFFFFF DUP2 GT ISZERO PUSH2 0x5F8 JUMPI PUSH2 0x5F7 PUSH2 0x42D JUMP JUMPDEST JUMPDEST PUSH2 0x604 DUP6 DUP3 DUP7 ADD PUSH2 0x570 JUMP JUMPDEST SWAP3 POP SWAP3 POP POP SWAP3 POP SWAP3 SWAP1 POP JUMP JUMPDEST PUSH0 PUSH0 PUSH1 0x40 DUP4 DUP6 SUB SLT ISZERO PUSH2 0x626 JUMPI PUSH2 0x625 PUSH2 0x429 JUMP JUMPDEST JUMPDEST PUSH0 PUSH2 0x633 DUP6 DUP3 DUP7 ADD PUSH2 0x4FD JUMP JUMPDEST SWAP3 POP POP PUSH1 0x20 PUSH2 0x644 DUP6 DUP3 DUP7 ADD PUSH2 0x477 JUMP JUMPDEST SWAP2 POP POP SWAP3 POP SWAP3 SWAP1 POP JUMP JUMPDEST PUSH0 DUP2 MLOAD SWAP1 POP PUSH2 0x65C DUP2 PUSH2 0x4E7 JUMP JUMPDEST SWAP3 SWAP2 POP POP JUMP JUMPDEST PUSH0 PUSH1 0x20 DUP3 DUP5 SUB SLT ISZERO PUSH2 0x677 JUMPI PUSH2 0x676 PUSH2 0x429 JUMP JUMPDEST JUMPDEST PUSH0 PUSH2 0x684 DUP5 DUP3 DUP6 ADD PUSH2 0x64E JUMP JUMPDEST SWAP2 POP POP SWAP3 SWAP2 POP POP JUMP JUMPDEST PUSH32 0x4E487B7100000000000000000000000000000000000000000000000000000000 PUSH0 MSTORE PUSH1 0x32 PUSH1 0x4 MSTORE PUSH1 0x24 PUSH0 REVERT JUMPDEST PUSH32 0x4E487B7100000000000000000000000000000000000000000000000000000000 PUSH0 MSTORE PUSH1 0x11 PUSH1 0x4 MSTORE PUSH1 0x24 PUSH0 REVERT JUMPDEST PUSH0 PUSH2 0x6F1 DUP3 PUSH2 0x4B6 JUMP JUMPDEST SWAP2 POP PUSH2 0x6FC DUP4 PUSH2 0x4B6 JUMP JUMPDEST SWAP3 POP DUP3 DUP3 ADD SWAP1 POP DUP1 DUP3 GT ISZERO PUSH2 0x714 JUMPI PUSH2 0x713 PUSH2 0x6BA JUMP JUMPDEST JUMPDEST SWAP3 SWAP2 POP POP JUMP JUMPDEST PUSH32 0x4E487B7100000000000000000000000000000000000000000000000000000000 PUSH0 MSTORE PUSH1 0x12 PUSH1 0x4 MSTORE PUSH1 0x24 PUSH0 REVERT JUMPDEST PUSH0 PUSH2 0x751 DUP3 PUSH2 0x4B6 JUMP JUMPDEST SWAP2 POP PUSH2 0x75C DUP4 PUSH2 0x4B6 JUMP JUMPDEST SWAP3 POP DUP3 PUSH2 0x76C JUMPI PUSH2 0x76B PUSH2 0x71A JUMP JUMPDEST JUMPDEST DUP3 DUP3 DIV SWAP1 POP SWAP3 SWAP2 POP POP JUMP INVALID LOG2 PUSH5 0x6970667358 0x22 SLT KECCAK256 PUSH26 0x409F79388CD6C73BB25508C89D507065735FC31816140707DB66 SWAP12 EXP 0xF6 0xC2 0xD PUSH5 0x736F6C6343 STOP ADDMOD 0x1F STOP CALLER "
				},
				"gasEstimates": {
					"creation": {
						"codeDepositCost": "393000",
						"executionCost": "428",
						"totalCost": "393428"
					},
					"external": {
						"calculateAverage()": "infinite",
						"callNodeScoring(address)": "infinite",
						"callNodes(address[])": "infinite",
						"nodeAddresses(uint256)": "4944",
						"nodeScore(address)": "2846",
						"scoring()": "2447",
						"submitScore(uint256,address)": "73673"
					}
				},
				"methodIdentifiers": {
					"calculateAverage()": "86be4114",
					"callNodeScoring(address)": "3da5866b",
					"callNodes(address[])": "d5d4d2d9",
					"nodeAddresses(uint256)": "c4d77090",
					"nodeScore(address)": "df6a6f8c",
					"scoring()": "7545ea8a",
					"submitScore(uint256,address)": "f52c4c5c"
				}
			},
			"storageLayout": {
				"storage": [
					{
						"astId": 9,
						"contract": "contracts/DemoNodes.sol:DemoNodes",
						"label": "scoring",
						"offset": 0,
						"slot": "0",
						"type": "t_uint256"
					},
					{
						"astId": 12,
						"contract": "contracts/DemoNodes.sol:DemoNodes",
						"label": "nodeAddresses",
						"offset": 0,
						"slot": "1",
						"type": "t_array(t_address)dyn_storage"
					},
					{
						"astId": 16,
						"contract": "contracts/DemoNodes.sol:DemoNodes",
						"label": "nodeScore",
						"offset": 0,
						"slot": "2",
						"type": "t_mapping(t_address,t_uint256)"
					}
				],
				"types": {
					"t_address": {
						"encoding": "inplace",
						"label": "address",
						"numberOfBytes": "20"
					},
					"t_array(t_address)dyn_storage": {
						"base": "t_address",
						"encoding": "dynamic_array",
						"label": "address[]",
						"numberOfBytes": "32"
					},
					"t_mapping(t_address,t_uint256)": {
						"encoding": "mapping",
						"key": "t_address",
						"label": "mapping(address => uint256)",
						"numberOfBytes": "32",
						"value": "t_uint256"
					},
					"t_uint256": {
						"encoding": "inplace",
						"label": "uint256",
						"numberOfBytes": "32"
					}
				}
			},
			"userdoc": {
				"kind": "user",
				"methods": {},
				"version": 1
			}
		}
	}
}