{
	"contracts/MockNode.sol": {
		"MockScoringNode": {
			"abi": [
				{
					"anonymous": false,
					"inputs": [
						{
							"indexed": true,
							"internalType": "bytes32",
							"name": "requestId",
							"type": "bytes32"
						},
						{
							"indexed": false,
							"internalType": "uint256",
							"name": "coordX",
							"type": "uint256"
						},
						{
							"indexed": false,
							"internalType": "uint256",
							"name": "coordY",
							"type": "uint256"
						}
					],
					"name": "DebugRequestId",
					"type": "event"
				},
				{
					"inputs": [
						{
							"internalType": "bytes32",
							"name": "_requestId",
							"type": "bytes32"
						},
						{
							"internalType": "uint256",
							"name": "_coordX",
							"type": "uint256"
						},
						{
							"internalType": "uint256",
							"name": "_coordY",
							"type": "uint256"
						},
						{
							"internalType": "address",
							"name": "_mainNode",
							"type": "address"
						}
					],
					"name": "requestScore",
					"outputs": [],
					"stateMutability": "nonpayable",
					"type": "function"
				}
			],
			"devdoc": {
				"kind": "dev",
				"methods": {},
				"version": 1
			},
			"evm": {
				"assembly": "    /* \"contracts/MockNode.sol\":316:1009  contract MockScoringNode is INodeScoring {... */\n  mstore(0x40, 0x80)\n  callvalue\n  dup1\n  iszero\n  tag_1\n  jumpi\n  revert(0x00, 0x00)\ntag_1:\n  pop\n  dataSize(sub_0)\n  dup1\n  dataOffset(sub_0)\n  0x00\n  codecopy\n  0x00\n  return\nstop\n\nsub_0: assembly {\n        /* \"contracts/MockNode.sol\":316:1009  contract MockScoringNode is INodeScoring {... */\n      mstore(0x40, 0x80)\n      callvalue\n      dup1\n      iszero\n      tag_1\n      jumpi\n      revert(0x00, 0x00)\n    tag_1:\n      pop\n      jumpi(tag_2, lt(calldatasize, 0x04))\n      shr(0xe0, calldataload(0x00))\n      dup1\n      0x88d80823\n      eq\n      tag_3\n      jumpi\n    tag_2:\n      revert(0x00, 0x00)\n        /* \"contracts/MockNode.sol\":366:920  function requestScore(bytes32 _requestId, uint256 _coordX, uint256 _coordY, address _mainNode) external{... */\n    tag_3:\n      tag_4\n      0x04\n      dup1\n      calldatasize\n      sub\n      dup2\n      add\n      swap1\n      tag_5\n      swap2\n      swap1\n      tag_6\n      jump\t// in\n    tag_5:\n      tag_7\n      jump\t// in\n    tag_4:\n      stop\n    tag_7:\n        /* \"contracts/MockNode.sol\":500:510  _requestId */\n      dup4\n        /* \"contracts/MockNode.sol\":485:529  DebugRequestId(_requestId, _coordX, _coordY) */\n      0x1afc7a51e8bc1680bd95186e2aa1d756d2984b3bccf9e158f1ae9dcd35b96414\n        /* \"contracts/MockNode.sol\":512:519  _coordX */\n      dup5\n        /* \"contracts/MockNode.sol\":521:528  _coordY */\n      dup5\n        /* \"contracts/MockNode.sol\":485:529  DebugRequestId(_requestId, _coordX, _coordY) */\n      mload(0x40)\n      tag_9\n      swap3\n      swap2\n      swap1\n      tag_10\n      jump\t// in\n    tag_9:\n      mload(0x40)\n      dup1\n      swap2\n      sub\n      swap1\n      log2\n        /* \"contracts/MockNode.sol\":680:693  uint256 score */\n      0x00\n        /* \"contracts/MockNode.sol\":780:782  60 */\n      0x3c\n        /* \"contracts/MockNode.sol\":774:776  41 */\n      0x29\n        /* \"contracts/MockNode.sol\":732:744  block.number */\n      number\n        /* \"contracts/MockNode.sol\":746:756  msg.sender */\n      caller\n        /* \"contracts/MockNode.sol\":758:768  _requestId */\n      dup9\n        /* \"contracts/MockNode.sol\":715:769  abi.encodePacked(block.number, msg.sender, _requestId) */\n      add(0x20, mload(0x40))\n      tag_11\n      swap4\n      swap3\n      swap2\n      swap1\n      tag_12\n      jump\t// in\n    tag_11:\n      mload(0x40)\n      0x20\n      dup2\n      dup4\n      sub\n      sub\n      dup2\n      mstore\n      swap1\n      0x40\n      mstore\n        /* \"contracts/MockNode.sol\":705:770  keccak256(abi.encodePacked(block.number, msg.sender, _requestId)) */\n      dup1\n      mload\n      swap1\n      0x20\n      add\n      keccak256\n        /* \"contracts/MockNode.sol\":697:771  uint256(keccak256(abi.encodePacked(block.number, msg.sender, _requestId))) */\n      0x00\n      shr\n        /* \"contracts/MockNode.sol\":697:776  uint256(keccak256(abi.encodePacked(block.number, msg.sender, _requestId))) % 41 */\n      tag_13\n      swap2\n      swap1\n      tag_14\n      jump\t// in\n    tag_13:\n        /* \"contracts/MockNode.sol\":696:782  (uint256(keccak256(abi.encodePacked(block.number, msg.sender, _requestId))) % 41) + 60 */\n      tag_15\n      swap2\n      swap1\n      tag_16\n      jump\t// in\n    tag_15:\n        /* \"contracts/MockNode.sol\":680:782  uint256 score = (uint256(keccak256(abi.encodePacked(block.number, msg.sender, _requestId))) % 41) + 60 */\n      swap1\n      pop\n        /* \"contracts/MockNode.sol\":871:880  _mainNode */\n      dup2\n        /* \"contracts/MockNode.sol\":861:893  IMainNode(_mainNode).submitScore */\n      0xffffffffffffffffffffffffffffffffffffffff\n      and\n      0x512fed43\n        /* \"contracts/MockNode.sol\":894:904  _requestId */\n      dup7\n        /* \"contracts/MockNode.sol\":906:911  score */\n      dup4\n        /* \"contracts/MockNode.sol\":861:912  IMainNode(_mainNode).submitScore(_requestId, score) */\n      mload(0x40)\n      dup4\n      0xffffffff\n      and\n      0xe0\n      shl\n      dup2\n      mstore\n      0x04\n      add\n      tag_17\n      swap3\n      swap2\n      swap1\n      tag_18\n      jump\t// in\n    tag_17:\n      0x00\n      mload(0x40)\n      dup1\n      dup4\n      sub\n      dup2\n      0x00\n      dup8\n      dup1\n      extcodesize\n      iszero\n      dup1\n      iszero\n      tag_19\n      jumpi\n      revert(0x00, 0x00)\n    tag_19:\n      pop\n      gas\n      call\n      iszero\n      dup1\n      iszero\n      tag_21\n      jumpi\n      returndatacopy(0x00, 0x00, returndatasize)\n      revert(0x00, returndatasize)\n    tag_21:\n      pop\n      pop\n      pop\n      pop\n        /* \"contracts/MockNode.sol\":469:920  {... */\n      pop\n        /* \"contracts/MockNode.sol\":366:920  function requestScore(bytes32 _requestId, uint256 _coordX, uint256 _coordY, address _mainNode) external{... */\n      pop\n      pop\n      pop\n      pop\n      jump\t// out\n        /* \"#utility.yul\":88:205   */\n    tag_23:\n        /* \"#utility.yul\":197:198   */\n      0x00\n        /* \"#utility.yul\":194:195   */\n      0x00\n        /* \"#utility.yul\":187:199   */\n      revert\n        /* \"#utility.yul\":334:411   */\n    tag_25:\n        /* \"#utility.yul\":371:378   */\n      0x00\n        /* \"#utility.yul\":400:405   */\n      dup2\n        /* \"#utility.yul\":389:405   */\n      swap1\n      pop\n        /* \"#utility.yul\":334:411   */\n      swap2\n      swap1\n      pop\n      jump\t// out\n        /* \"#utility.yul\":417:539   */\n    tag_26:\n        /* \"#utility.yul\":490:514   */\n      tag_53\n        /* \"#utility.yul\":508:513   */\n      dup2\n        /* \"#utility.yul\":490:514   */\n      tag_25\n      jump\t// in\n    tag_53:\n        /* \"#utility.yul\":483:488   */\n      dup2\n        /* \"#utility.yul\":480:515   */\n      eq\n        /* \"#utility.yul\":470:533   */\n      tag_54\n      jumpi\n        /* \"#utility.yul\":529:530   */\n      0x00\n        /* \"#utility.yul\":526:527   */\n      0x00\n        /* \"#utility.yul\":519:531   */\n      revert\n        /* \"#utility.yul\":470:533   */\n    tag_54:\n        /* \"#utility.yul\":417:539   */\n      pop\n      jump\t// out\n        /* \"#utility.yul\":545:684   */\n    tag_27:\n        /* \"#utility.yul\":591:596   */\n      0x00\n        /* \"#utility.yul\":629:635   */\n      dup2\n        /* \"#utility.yul\":616:636   */\n      calldataload\n        /* \"#utility.yul\":607:636   */\n      swap1\n      pop\n        /* \"#utility.yul\":645:678   */\n      tag_56\n        /* \"#utility.yul\":672:677   */\n      dup2\n        /* \"#utility.yul\":645:678   */\n      tag_26\n      jump\t// in\n    tag_56:\n        /* \"#utility.yul\":545:684   */\n      swap3\n      swap2\n      pop\n      pop\n      jump\t// out\n        /* \"#utility.yul\":690:767   */\n    tag_28:\n        /* \"#utility.yul\":727:734   */\n      0x00\n        /* \"#utility.yul\":756:761   */\n      dup2\n        /* \"#utility.yul\":745:761   */\n      swap1\n      pop\n        /* \"#utility.yul\":690:767   */\n      swap2\n      swap1\n      pop\n      jump\t// out\n        /* \"#utility.yul\":773:895   */\n    tag_29:\n        /* \"#utility.yul\":846:870   */\n      tag_59\n        /* \"#utility.yul\":864:869   */\n      dup2\n        /* \"#utility.yul\":846:870   */\n      tag_28\n      jump\t// in\n    tag_59:\n        /* \"#utility.yul\":839:844   */\n      dup2\n        /* \"#utility.yul\":836:871   */\n      eq\n        /* \"#utility.yul\":826:889   */\n      tag_60\n      jumpi\n        /* \"#utility.yul\":885:886   */\n      0x00\n        /* \"#utility.yul\":882:883   */\n      0x00\n        /* \"#utility.yul\":875:887   */\n      revert\n        /* \"#utility.yul\":826:889   */\n    tag_60:\n        /* \"#utility.yul\":773:895   */\n      pop\n      jump\t// out\n        /* \"#utility.yul\":901:1040   */\n    tag_30:\n        /* \"#utility.yul\":947:952   */\n      0x00\n        /* \"#utility.yul\":985:991   */\n      dup2\n        /* \"#utility.yul\":972:992   */\n      calldataload\n        /* \"#utility.yul\":963:992   */\n      swap1\n      pop\n        /* \"#utility.yul\":1001:1034   */\n      tag_62\n        /* \"#utility.yul\":1028:1033   */\n      dup2\n        /* \"#utility.yul\":1001:1034   */\n      tag_29\n      jump\t// in\n    tag_62:\n        /* \"#utility.yul\":901:1040   */\n      swap3\n      swap2\n      pop\n      pop\n      jump\t// out\n        /* \"#utility.yul\":1046:1172   */\n    tag_31:\n        /* \"#utility.yul\":1083:1090   */\n      0x00\n        /* \"#utility.yul\":1123:1165   */\n      0xffffffffffffffffffffffffffffffffffffffff\n        /* \"#utility.yul\":1116:1121   */\n      dup3\n        /* \"#utility.yul\":1112:1166   */\n      and\n        /* \"#utility.yul\":1101:1166   */\n      swap1\n      pop\n        /* \"#utility.yul\":1046:1172   */\n      swap2\n      swap1\n      pop\n      jump\t// out\n        /* \"#utility.yul\":1178:1274   */\n    tag_32:\n        /* \"#utility.yul\":1215:1222   */\n      0x00\n        /* \"#utility.yul\":1244:1268   */\n      tag_65\n        /* \"#utility.yul\":1262:1267   */\n      dup3\n        /* \"#utility.yul\":1244:1268   */\n      tag_31\n      jump\t// in\n    tag_65:\n        /* \"#utility.yul\":1233:1268   */\n      swap1\n      pop\n        /* \"#utility.yul\":1178:1274   */\n      swap2\n      swap1\n      pop\n      jump\t// out\n        /* \"#utility.yul\":1280:1402   */\n    tag_33:\n        /* \"#utility.yul\":1353:1377   */\n      tag_67\n        /* \"#utility.yul\":1371:1376   */\n      dup2\n        /* \"#utility.yul\":1353:1377   */\n      tag_32\n      jump\t// in\n    tag_67:\n        /* \"#utility.yul\":1346:1351   */\n      dup2\n        /* \"#utility.yul\":1343:1378   */\n      eq\n        /* \"#utility.yul\":1333:1396   */\n      tag_68\n      jumpi\n        /* \"#utility.yul\":1392:1393   */\n      0x00\n        /* \"#utility.yul\":1389:1390   */\n      0x00\n        /* \"#utility.yul\":1382:1394   */\n      revert\n        /* \"#utility.yul\":1333:1396   */\n    tag_68:\n        /* \"#utility.yul\":1280:1402   */\n      pop\n      jump\t// out\n        /* \"#utility.yul\":1408:1547   */\n    tag_34:\n        /* \"#utility.yul\":1454:1459   */\n      0x00\n        /* \"#utility.yul\":1492:1498   */\n      dup2\n        /* \"#utility.yul\":1479:1499   */\n      calldataload\n        /* \"#utility.yul\":1470:1499   */\n      swap1\n      pop\n        /* \"#utility.yul\":1508:1541   */\n      tag_70\n        /* \"#utility.yul\":1535:1540   */\n      dup2\n        /* \"#utility.yul\":1508:1541   */\n      tag_33\n      jump\t// in\n    tag_70:\n        /* \"#utility.yul\":1408:1547   */\n      swap3\n      swap2\n      pop\n      pop\n      jump\t// out\n        /* \"#utility.yul\":1553:2318   */\n    tag_6:\n        /* \"#utility.yul\":1639:1645   */\n      0x00\n        /* \"#utility.yul\":1647:1653   */\n      0x00\n        /* \"#utility.yul\":1655:1661   */\n      0x00\n        /* \"#utility.yul\":1663:1669   */\n      0x00\n        /* \"#utility.yul\":1712:1715   */\n      0x80\n        /* \"#utility.yul\":1700:1709   */\n      dup6\n        /* \"#utility.yul\":1691:1698   */\n      dup8\n        /* \"#utility.yul\":1687:1710   */\n      sub\n        /* \"#utility.yul\":1683:1716   */\n      slt\n        /* \"#utility.yul\":1680:1800   */\n      iszero\n      tag_72\n      jumpi\n        /* \"#utility.yul\":1719:1798   */\n      tag_73\n      tag_23\n      jump\t// in\n    tag_73:\n        /* \"#utility.yul\":1680:1800   */\n    tag_72:\n        /* \"#utility.yul\":1839:1840   */\n      0x00\n        /* \"#utility.yul\":1864:1917   */\n      tag_74\n        /* \"#utility.yul\":1909:1916   */\n      dup8\n        /* \"#utility.yul\":1900:1906   */\n      dup3\n        /* \"#utility.yul\":1889:1898   */\n      dup9\n        /* \"#utility.yul\":1885:1907   */\n      add\n        /* \"#utility.yul\":1864:1917   */\n      tag_27\n      jump\t// in\n    tag_74:\n        /* \"#utility.yul\":1854:1917   */\n      swap5\n      pop\n        /* \"#utility.yul\":1810:1927   */\n      pop\n        /* \"#utility.yul\":1966:1968   */\n      0x20\n        /* \"#utility.yul\":1992:2045   */\n      tag_75\n        /* \"#utility.yul\":2037:2044   */\n      dup8\n        /* \"#utility.yul\":2028:2034   */\n      dup3\n        /* \"#utility.yul\":2017:2026   */\n      dup9\n        /* \"#utility.yul\":2013:2035   */\n      add\n        /* \"#utility.yul\":1992:2045   */\n      tag_30\n      jump\t// in\n    tag_75:\n        /* \"#utility.yul\":1982:2045   */\n      swap4\n      pop\n        /* \"#utility.yul\":1937:2055   */\n      pop\n        /* \"#utility.yul\":2094:2096   */\n      0x40\n        /* \"#utility.yul\":2120:2173   */\n      tag_76\n        /* \"#utility.yul\":2165:2172   */\n      dup8\n        /* \"#utility.yul\":2156:2162   */\n      dup3\n        /* \"#utility.yul\":2145:2154   */\n      dup9\n        /* \"#utility.yul\":2141:2163   */\n      add\n        /* \"#utility.yul\":2120:2173   */\n      tag_30\n      jump\t// in\n    tag_76:\n        /* \"#utility.yul\":2110:2173   */\n      swap3\n      pop\n        /* \"#utility.yul\":2065:2183   */\n      pop\n        /* \"#utility.yul\":2222:2224   */\n      0x60\n        /* \"#utility.yul\":2248:2301   */\n      tag_77\n        /* \"#utility.yul\":2293:2300   */\n      dup8\n        /* \"#utility.yul\":2284:2290   */\n      dup3\n        /* \"#utility.yul\":2273:2282   */\n      dup9\n        /* \"#utility.yul\":2269:2291   */\n      add\n        /* \"#utility.yul\":2248:2301   */\n      tag_34\n      jump\t// in\n    tag_77:\n        /* \"#utility.yul\":2238:2301   */\n      swap2\n      pop\n        /* \"#utility.yul\":2193:2311   */\n      pop\n        /* \"#utility.yul\":1553:2318   */\n      swap3\n      swap6\n      swap2\n      swap5\n      pop\n      swap3\n      pop\n      jump\t// out\n        /* \"#utility.yul\":2324:2442   */\n    tag_35:\n        /* \"#utility.yul\":2411:2435   */\n      tag_79\n        /* \"#utility.yul\":2429:2434   */\n      dup2\n        /* \"#utility.yul\":2411:2435   */\n      tag_28\n      jump\t// in\n    tag_79:\n        /* \"#utility.yul\":2406:2409   */\n      dup3\n        /* \"#utility.yul\":2399:2436   */\n      mstore\n        /* \"#utility.yul\":2324:2442   */\n      pop\n      pop\n      jump\t// out\n        /* \"#utility.yul\":2448:2780   */\n    tag_10:\n        /* \"#utility.yul\":2569:2573   */\n      0x00\n        /* \"#utility.yul\":2607:2609   */\n      0x40\n        /* \"#utility.yul\":2596:2605   */\n      dup3\n        /* \"#utility.yul\":2592:2610   */\n      add\n        /* \"#utility.yul\":2584:2610   */\n      swap1\n      pop\n        /* \"#utility.yul\":2620:2691   */\n      tag_81\n        /* \"#utility.yul\":2688:2689   */\n      0x00\n        /* \"#utility.yul\":2677:2686   */\n      dup4\n        /* \"#utility.yul\":2673:2690   */\n      add\n        /* \"#utility.yul\":2664:2670   */\n      dup6\n        /* \"#utility.yul\":2620:2691   */\n      tag_35\n      jump\t// in\n    tag_81:\n        /* \"#utility.yul\":2701:2773   */\n      tag_82\n        /* \"#utility.yul\":2769:2771   */\n      0x20\n        /* \"#utility.yul\":2758:2767   */\n      dup4\n        /* \"#utility.yul\":2754:2772   */\n      add\n        /* \"#utility.yul\":2745:2751   */\n      dup5\n        /* \"#utility.yul\":2701:2773   */\n      tag_35\n      jump\t// in\n    tag_82:\n        /* \"#utility.yul\":2448:2780   */\n      swap4\n      swap3\n      pop\n      pop\n      pop\n      jump\t// out\n        /* \"#utility.yul\":2786:2865   */\n    tag_36:\n        /* \"#utility.yul\":2825:2832   */\n      0x00\n        /* \"#utility.yul\":2854:2859   */\n      dup2\n        /* \"#utility.yul\":2843:2859   */\n      swap1\n      pop\n        /* \"#utility.yul\":2786:2865   */\n      swap2\n      swap1\n      pop\n      jump\t// out\n        /* \"#utility.yul\":2871:3028   */\n    tag_37:\n        /* \"#utility.yul\":2976:3021   */\n      tag_85\n        /* \"#utility.yul\":2996:3020   */\n      tag_86\n        /* \"#utility.yul\":3014:3019   */\n      dup3\n        /* \"#utility.yul\":2996:3020   */\n      tag_28\n      jump\t// in\n    tag_86:\n        /* \"#utility.yul\":2976:3021   */\n      tag_36\n      jump\t// in\n    tag_85:\n        /* \"#utility.yul\":2971:2974   */\n      dup3\n        /* \"#utility.yul\":2964:3022   */\n      mstore\n        /* \"#utility.yul\":2871:3028   */\n      pop\n      pop\n      jump\t// out\n        /* \"#utility.yul\":3034:3128   */\n    tag_38:\n        /* \"#utility.yul\":3067:3075   */\n      0x00\n        /* \"#utility.yul\":3115:3120   */\n      dup2\n        /* \"#utility.yul\":3111:3113   */\n      0x60\n        /* \"#utility.yul\":3107:3121   */\n      shl\n        /* \"#utility.yul\":3086:3121   */\n      swap1\n      pop\n        /* \"#utility.yul\":3034:3128   */\n      swap2\n      swap1\n      pop\n      jump\t// out\n        /* \"#utility.yul\":3134:3228   */\n    tag_39:\n        /* \"#utility.yul\":3173:3180   */\n      0x00\n        /* \"#utility.yul\":3202:3222   */\n      tag_89\n        /* \"#utility.yul\":3216:3221   */\n      dup3\n        /* \"#utility.yul\":3202:3222   */\n      tag_38\n      jump\t// in\n    tag_89:\n        /* \"#utility.yul\":3191:3222   */\n      swap1\n      pop\n        /* \"#utility.yul\":3134:3228   */\n      swap2\n      swap1\n      pop\n      jump\t// out\n        /* \"#utility.yul\":3234:3334   */\n    tag_40:\n        /* \"#utility.yul\":3273:3280   */\n      0x00\n        /* \"#utility.yul\":3302:3328   */\n      tag_91\n        /* \"#utility.yul\":3322:3327   */\n      dup3\n        /* \"#utility.yul\":3302:3328   */\n      tag_39\n      jump\t// in\n    tag_91:\n        /* \"#utility.yul\":3291:3328   */\n      swap1\n      pop\n        /* \"#utility.yul\":3234:3334   */\n      swap2\n      swap1\n      pop\n      jump\t// out\n        /* \"#utility.yul\":3340:3497   */\n    tag_41:\n        /* \"#utility.yul\":3445:3490   */\n      tag_93\n        /* \"#utility.yul\":3465:3489   */\n      tag_94\n        /* \"#utility.yul\":3483:3488   */\n      dup3\n        /* \"#utility.yul\":3465:3489   */\n      tag_32\n      jump\t// in\n    tag_94:\n        /* \"#utility.yul\":3445:3490   */\n      tag_40\n      jump\t// in\n    tag_93:\n        /* \"#utility.yul\":3440:3443   */\n      dup3\n        /* \"#utility.yul\":3433:3491   */\n      mstore\n        /* \"#utility.yul\":3340:3497   */\n      pop\n      pop\n      jump\t// out\n        /* \"#utility.yul\":3503:3582   */\n    tag_42:\n        /* \"#utility.yul\":3542:3549   */\n      0x00\n        /* \"#utility.yul\":3571:3576   */\n      dup2\n        /* \"#utility.yul\":3560:3576   */\n      swap1\n      pop\n        /* \"#utility.yul\":3503:3582   */\n      swap2\n      swap1\n      pop\n      jump\t// out\n        /* \"#utility.yul\":3588:3745   */\n    tag_43:\n        /* \"#utility.yul\":3693:3738   */\n      tag_97\n        /* \"#utility.yul\":3713:3737   */\n      tag_98\n        /* \"#utility.yul\":3731:3736   */\n      dup3\n        /* \"#utility.yul\":3713:3737   */\n      tag_25\n      jump\t// in\n    tag_98:\n        /* \"#utility.yul\":3693:3738   */\n      tag_42\n      jump\t// in\n    tag_97:\n        /* \"#utility.yul\":3688:3691   */\n      dup3\n        /* \"#utility.yul\":3681:3739   */\n      mstore\n        /* \"#utility.yul\":3588:3745   */\n      pop\n      pop\n      jump\t// out\n        /* \"#utility.yul\":3751:4289   */\n    tag_12:\n        /* \"#utility.yul\":3919:3922   */\n      0x00\n        /* \"#utility.yul\":3934:4009   */\n      tag_100\n        /* \"#utility.yul\":4005:4008   */\n      dup3\n        /* \"#utility.yul\":3996:4002   */\n      dup7\n        /* \"#utility.yul\":3934:4009   */\n      tag_37\n      jump\t// in\n    tag_100:\n        /* \"#utility.yul\":4034:4036   */\n      0x20\n        /* \"#utility.yul\":4029:4032   */\n      dup3\n        /* \"#utility.yul\":4025:4037   */\n      add\n        /* \"#utility.yul\":4018:4037   */\n      swap2\n      pop\n        /* \"#utility.yul\":4047:4122   */\n      tag_101\n        /* \"#utility.yul\":4118:4121   */\n      dup3\n        /* \"#utility.yul\":4109:4115   */\n      dup6\n        /* \"#utility.yul\":4047:4122   */\n      tag_41\n      jump\t// in\n    tag_101:\n        /* \"#utility.yul\":4147:4149   */\n      0x14\n        /* \"#utility.yul\":4142:4145   */\n      dup3\n        /* \"#utility.yul\":4138:4150   */\n      add\n        /* \"#utility.yul\":4131:4150   */\n      swap2\n      pop\n        /* \"#utility.yul\":4160:4235   */\n      tag_102\n        /* \"#utility.yul\":4231:4234   */\n      dup3\n        /* \"#utility.yul\":4222:4228   */\n      dup5\n        /* \"#utility.yul\":4160:4235   */\n      tag_43\n      jump\t// in\n    tag_102:\n        /* \"#utility.yul\":4260:4262   */\n      0x20\n        /* \"#utility.yul\":4255:4258   */\n      dup3\n        /* \"#utility.yul\":4251:4263   */\n      add\n        /* \"#utility.yul\":4244:4263   */\n      swap2\n      pop\n        /* \"#utility.yul\":4280:4283   */\n      dup2\n        /* \"#utility.yul\":4273:4283   */\n      swap1\n      pop\n        /* \"#utility.yul\":3751:4289   */\n      swap5\n      swap4\n      pop\n      pop\n      pop\n      pop\n      jump\t// out\n        /* \"#utility.yul\":4295:4475   */\n    tag_44:\n        /* \"#utility.yul\":4343:4420   */\n      0x4e487b7100000000000000000000000000000000000000000000000000000000\n        /* \"#utility.yul\":4340:4341   */\n      0x00\n        /* \"#utility.yul\":4333:4421   */\n      mstore\n        /* \"#utility.yul\":4440:4444   */\n      0x12\n        /* \"#utility.yul\":4437:4438   */\n      0x04\n        /* \"#utility.yul\":4430:4445   */\n      mstore\n        /* \"#utility.yul\":4464:4468   */\n      0x24\n        /* \"#utility.yul\":4461:4462   */\n      0x00\n        /* \"#utility.yul\":4454:4469   */\n      revert\n        /* \"#utility.yul\":4481:4657   */\n    tag_14:\n        /* \"#utility.yul\":4513:4514   */\n      0x00\n        /* \"#utility.yul\":4530:4550   */\n      tag_105\n        /* \"#utility.yul\":4548:4549   */\n      dup3\n        /* \"#utility.yul\":4530:4550   */\n      tag_28\n      jump\t// in\n    tag_105:\n        /* \"#utility.yul\":4525:4550   */\n      swap2\n      pop\n        /* \"#utility.yul\":4564:4584   */\n      tag_106\n        /* \"#utility.yul\":4582:4583   */\n      dup4\n        /* \"#utility.yul\":4564:4584   */\n      tag_28\n      jump\t// in\n    tag_106:\n        /* \"#utility.yul\":4559:4584   */\n      swap3\n      pop\n        /* \"#utility.yul\":4603:4604   */\n      dup3\n        /* \"#utility.yul\":4593:4628   */\n      tag_107\n      jumpi\n        /* \"#utility.yul\":4608:4626   */\n      tag_108\n      tag_44\n      jump\t// in\n    tag_108:\n        /* \"#utility.yul\":4593:4628   */\n    tag_107:\n        /* \"#utility.yul\":4649:4650   */\n      dup3\n        /* \"#utility.yul\":4646:4647   */\n      dup3\n        /* \"#utility.yul\":4642:4651   */\n      mod\n        /* \"#utility.yul\":4637:4651   */\n      swap1\n      pop\n        /* \"#utility.yul\":4481:4657   */\n      swap3\n      swap2\n      pop\n      pop\n      jump\t// out\n        /* \"#utility.yul\":4663:4843   */\n    tag_45:\n        /* \"#utility.yul\":4711:4788   */\n      0x4e487b7100000000000000000000000000000000000000000000000000000000\n        /* \"#utility.yul\":4708:4709   */\n      0x00\n        /* \"#utility.yul\":4701:4789   */\n      mstore\n        /* \"#utility.yul\":4808:4812   */\n      0x11\n        /* \"#utility.yul\":4805:4806   */\n      0x04\n        /* \"#utility.yul\":4798:4813   */\n      mstore\n        /* \"#utility.yul\":4832:4836   */\n      0x24\n        /* \"#utility.yul\":4829:4830   */\n      0x00\n        /* \"#utility.yul\":4822:4837   */\n      revert\n        /* \"#utility.yul\":4849:5040   */\n    tag_16:\n        /* \"#utility.yul\":4889:4892   */\n      0x00\n        /* \"#utility.yul\":4908:4928   */\n      tag_111\n        /* \"#utility.yul\":4926:4927   */\n      dup3\n        /* \"#utility.yul\":4908:4928   */\n      tag_28\n      jump\t// in\n    tag_111:\n        /* \"#utility.yul\":4903:4928   */\n      swap2\n      pop\n        /* \"#utility.yul\":4942:4962   */\n      tag_112\n        /* \"#utility.yul\":4960:4961   */\n      dup4\n        /* \"#utility.yul\":4942:4962   */\n      tag_28\n      jump\t// in\n    tag_112:\n        /* \"#utility.yul\":4937:4962   */\n      swap3\n      pop\n        /* \"#utility.yul\":4985:4986   */\n      dup3\n        /* \"#utility.yul\":4982:4983   */\n      dup3\n        /* \"#utility.yul\":4978:4987   */\n      add\n        /* \"#utility.yul\":4971:4987   */\n      swap1\n      pop\n        /* \"#utility.yul\":5006:5009   */\n      dup1\n        /* \"#utility.yul\":5003:5004   */\n      dup3\n        /* \"#utility.yul\":5000:5010   */\n      gt\n        /* \"#utility.yul\":4997:5033   */\n      iszero\n      tag_113\n      jumpi\n        /* \"#utility.yul\":5013:5031   */\n      tag_114\n      tag_45\n      jump\t// in\n    tag_114:\n        /* \"#utility.yul\":4997:5033   */\n    tag_113:\n        /* \"#utility.yul\":4849:5040   */\n      swap3\n      swap2\n      pop\n      pop\n      jump\t// out\n        /* \"#utility.yul\":5046:5164   */\n    tag_46:\n        /* \"#utility.yul\":5133:5157   */\n      tag_116\n        /* \"#utility.yul\":5151:5156   */\n      dup2\n        /* \"#utility.yul\":5133:5157   */\n      tag_25\n      jump\t// in\n    tag_116:\n        /* \"#utility.yul\":5128:5131   */\n      dup3\n        /* \"#utility.yul\":5121:5158   */\n      mstore\n        /* \"#utility.yul\":5046:5164   */\n      pop\n      pop\n      jump\t// out\n        /* \"#utility.yul\":5170:5502   */\n    tag_18:\n        /* \"#utility.yul\":5291:5295   */\n      0x00\n        /* \"#utility.yul\":5329:5331   */\n      0x40\n        /* \"#utility.yul\":5318:5327   */\n      dup3\n        /* \"#utility.yul\":5314:5332   */\n      add\n        /* \"#utility.yul\":5306:5332   */\n      swap1\n      pop\n        /* \"#utility.yul\":5342:5413   */\n      tag_118\n        /* \"#utility.yul\":5410:5411   */\n      0x00\n        /* \"#utility.yul\":5399:5408   */\n      dup4\n        /* \"#utility.yul\":5395:5412   */\n      add\n        /* \"#utility.yul\":5386:5392   */\n      dup6\n        /* \"#utility.yul\":5342:5413   */\n      tag_46\n      jump\t// in\n    tag_118:\n        /* \"#utility.yul\":5423:5495   */\n      tag_119\n        /* \"#utility.yul\":5491:5493   */\n      0x20\n        /* \"#utility.yul\":5480:5489   */\n      dup4\n        /* \"#utility.yul\":5476:5494   */\n      add\n        /* \"#utility.yul\":5467:5473   */\n      dup5\n        /* \"#utility.yul\":5423:5495   */\n      tag_35\n      jump\t// in\n    tag_119:\n        /* \"#utility.yul\":5170:5502   */\n      swap4\n      swap3\n      pop\n      pop\n      pop\n      jump\t// out\n\n    auxdata: 0xa2646970667358221220abdaa72d0b9c4de4354cce52dd43af7ef5ab0c9f506804324a77a3887e51310f64736f6c634300081f0033\n}\n",
				"bytecode": {
					"linkReferences": {},
					"object": "6080604052348015600e575f5ffd5b506104828061001c5f395ff3fe608060405234801561000f575f5ffd5b5060043610610029575f3560e01c806388d808231461002d575b5f5ffd5b610047600480360381019061004291906101fe565b610049565b005b837f1afc7a51e8bc1680bd95186e2aa1d756d2984b3bccf9e158f1ae9dcd35b96414848460405161007b929190610271565b60405180910390a25f603c602943338860405160200161009d9392919061031d565b604051602081830303815290604052805190602001205f1c6100bf9190610386565b6100c991906103e3565b90508173ffffffffffffffffffffffffffffffffffffffff1663512fed4386836040518363ffffffff1660e01b8152600401610106929190610425565b5f604051808303815f87803b15801561011d575f5ffd5b505af115801561012f573d5f5f3e3d5ffd5b505050505050505050565b5f5ffd5b5f819050919050565b6101508161013e565b811461015a575f5ffd5b50565b5f8135905061016b81610147565b92915050565b5f819050919050565b61018381610171565b811461018d575f5ffd5b50565b5f8135905061019e8161017a565b92915050565b5f73ffffffffffffffffffffffffffffffffffffffff82169050919050565b5f6101cd826101a4565b9050919050565b6101dd816101c3565b81146101e7575f5ffd5b50565b5f813590506101f8816101d4565b92915050565b5f5f5f5f608085870312156102165761021561013a565b5b5f6102238782880161015d565b945050602061023487828801610190565b935050604061024587828801610190565b9250506060610256878288016101ea565b91505092959194509250565b61026b81610171565b82525050565b5f6040820190506102845f830185610262565b6102916020830184610262565b9392505050565b5f819050919050565b6102b26102ad82610171565b610298565b82525050565b5f8160601b9050919050565b5f6102ce826102b8565b9050919050565b5f6102df826102c4565b9050919050565b6102f76102f2826101c3565b6102d5565b82525050565b5f819050919050565b6103176103128261013e565b6102fd565b82525050565b5f61032882866102a1565b60208201915061033882856102e6565b6014820191506103488284610306565b602082019150819050949350505050565b7f4e487b71000000000000000000000000000000000000000000000000000000005f52601260045260245ffd5b5f61039082610171565b915061039b83610171565b9250826103ab576103aa610359565b5b828206905092915050565b7f4e487b71000000000000000000000000000000000000000000000000000000005f52601160045260245ffd5b5f6103ed82610171565b91506103f883610171565b92508282019050808211156104105761040f6103b6565b5b92915050565b61041f8161013e565b82525050565b5f6040820190506104385f830185610416565b6104456020830184610262565b939250505056fea2646970667358221220abdaa72d0b9c4de4354cce52dd43af7ef5ab0c9f506804324a77a3887e51310f64736f6c634300081f0033",
					"opcodes": "PUSH1 0x80 PUSH1 0x40 MSTORE CALLVALUE DUP1 ISZERO PUSH1 0xE JUMPI PUSH0 PUSH0 REVERT JUMPDEST POP PUSH2 0x482 DUP1 PUSH2 0x1C PUSH0 CODECOPY PUSH0 RETURN INVALID PUSH1 0x80 PUSH1 0x40 MSTORE CALLVALUE DUP1 ISZERO PUSH2 0xF JUMPI PUSH0 PUSH0 REVERT JUMPDEST POP PUSH1 0x4 CALLDATASIZE LT PUSH2 0x29 JUMPI PUSH0 CALLDATALOAD PUSH1 0xE0 SHR DUP1 PUSH4 0x88D80823 EQ PUSH2 0x2D JUMPI JUMPDEST PUSH0 PUSH0 REVERT JUMPDEST PUSH2 0x47 PUSH1 0x4 DUP1 CALLDATASIZE SUB DUP2 ADD SWAP1 PUSH2 0x42 SWAP2 SWAP1 PUSH2 0x1FE JUMP JUMPDEST PUSH2 0x49 JUMP JUMPDEST STOP JUMPDEST DUP4 PUSH32 0x1AFC7A51E8BC1680BD95186E2AA1D756D2984B3BCCF9E158F1AE9DCD35B96414 DUP5 DUP5 PUSH1 0x40 MLOAD PUSH2 0x7B SWAP3 SWAP2 SWAP1 PUSH2 0x271 JUMP JUMPDEST PUSH1 0x40 MLOAD DUP1 SWAP2 SUB SWAP1 LOG2 PUSH0 PUSH1 0x3C PUSH1 0x29 NUMBER CALLER DUP9 PUSH1 0x40 MLOAD PUSH1 0x20 ADD PUSH2 0x9D SWAP4 SWAP3 SWAP2 SWAP1 PUSH2 0x31D JUMP JUMPDEST PUSH1 0x40 MLOAD PUSH1 0x20 DUP2 DUP4 SUB SUB DUP2 MSTORE SWAP1 PUSH1 0x40 MSTORE DUP1 MLOAD SWAP1 PUSH1 0x20 ADD KECCAK256 PUSH0 SHR PUSH2 0xBF SWAP2 SWAP1 PUSH2 0x386 JUMP JUMPDEST PUSH2 0xC9 SWAP2 SWAP1 PUSH2 0x3E3 JUMP JUMPDEST SWAP1 POP DUP2 PUSH20 0xFFFFFFFFFFFFFFFFFFFFFFFFFFFFFFFFFFFFFFFF AND PUSH4 0x512FED43 DUP7 DUP4 PUSH1 0x40 MLOAD DUP4 PUSH4 0xFFFFFFFF AND PUSH1 0xE0 SHL DUP2 MSTORE PUSH1 0x4 ADD PUSH2 0x106 SWAP3 SWAP2 SWAP1 PUSH2 0x425 JUMP JUMPDEST PUSH0 PUSH1 0x40 MLOAD DUP1 DUP4 SUB DUP2 PUSH0 DUP8 DUP1 EXTCODESIZE ISZERO DUP1 ISZERO PUSH2 0x11D JUMPI PUSH0 PUSH0 REVERT JUMPDEST POP GAS CALL ISZERO DUP1 ISZERO PUSH2 0x12F JUMPI RETURNDATASIZE PUSH0 PUSH0 RETURNDATACOPY RETURNDATASIZE PUSH0 REVERT JUMPDEST POP POP POP POP POP POP POP POP POP JUMP JUMPDEST PUSH0 PUSH0 REVERT JUMPDEST PUSH0 DUP2 SWAP1 POP SWAP2 SWAP1 POP JUMP JUMPDEST PUSH2 0x150 DUP2 PUSH2 0x13E JUMP JUMPDEST DUP2 EQ PUSH2 0x15A JUMPI PUSH0 PUSH0 REVERT JUMPDEST POP JUMP JUMPDEST PUSH0 DUP2 CALLDATALOAD SWAP1 POP PUSH2 0x16B DUP2 PUSH2 0x147 JUMP JUMPDEST SWAP3 SWAP2 POP POP JUMP JUMPDEST PUSH0 DUP2 SWAP1 POP SWAP2 SWAP1 POP JUMP JUMPDEST PUSH2 0x183 DUP2 PUSH2 0x171 JUMP JUMPDEST DUP2 EQ PUSH2 0x18D JUMPI PUSH0 PUSH0 REVERT JUMPDEST POP JUMP JUMPDEST PUSH0 DUP2 CALLDATALOAD SWAP1 POP PUSH2 0x19E DUP2 PUSH2 0x17A JUMP JUMPDEST SWAP3 SWAP2 POP POP JUMP JUMPDEST PUSH0 PUSH20 0xFFFFFFFFFFFFFFFFFFFFFFFFFFFFFFFFFFFFFFFF DUP3 AND SWAP1 POP SWAP2 SWAP1 POP JUMP JUMPDEST PUSH0 PUSH2 0x1CD DUP3 PUSH2 0x1A4 JUMP JUMPDEST SWAP1 POP SWAP2 SWAP1 POP JUMP JUMPDEST PUSH2 0x1DD DUP2 PUSH2 0x1C3 JUMP JUMPDEST DUP2 EQ PUSH2 0x1E7 JUMPI PUSH0 PUSH0 REVERT JUMPDEST POP JUMP JUMPDEST PUSH0 DUP2 CALLDATALOAD SWAP1 POP PUSH2 0x1F8 DUP2 PUSH2 0x1D4 JUMP JUMPDEST SWAP3 SWAP2 POP POP JUMP JUMPDEST PUSH0 PUSH0 PUSH0 PUSH0 PUSH1 0x80 DUP6 DUP8 SUB SLT ISZERO PUSH2 0x216 JUMPI PUSH2 0x215 PUSH2 0x13A JUMP JUMPDEST JUMPDEST PUSH0 PUSH2 0x223 DUP8 DUP3 DUP9 ADD PUSH2 0x15D JUMP JUMPDEST SWAP5 POP POP PUSH1 0x20 PUSH2 0x234 DUP8 DUP3 DUP9 ADD PUSH2 0x190 JUMP JUMPDEST SWAP4 POP POP PUSH1 0x40 PUSH2 0x245 DUP8 DUP3 DUP9 ADD PUSH2 0x190 JUMP JUMPDEST SWAP3 POP POP PUSH1 0x60 PUSH2 0x256 DUP8 DUP3 DUP9 ADD PUSH2 0x1EA JUMP JUMPDEST SWAP2 POP POP SWAP3 SWAP6 SWAP2 SWAP5 POP SWAP3 POP JUMP JUMPDEST PUSH2 0x26B DUP2 PUSH2 0x171 JUMP JUMPDEST DUP3 MSTORE POP POP JUMP JUMPDEST PUSH0 PUSH1 0x40 DUP3 ADD SWAP1 POP PUSH2 0x284 PUSH0 DUP4 ADD DUP6 PUSH2 0x262 JUMP JUMPDEST PUSH2 0x291 PUSH1 0x20 DUP4 ADD DUP5 PUSH2 0x262 JUMP JUMPDEST SWAP4 SWAP3 POP POP POP JUMP JUMPDEST PUSH0 DUP2 SWAP1 POP SWAP2 SWAP1 POP JUMP JUMPDEST PUSH2 0x2B2 PUSH2 0x2AD DUP3 PUSH2 0x171 JUMP JUMPDEST PUSH2 0x298 JUMP JUMPDEST DUP3 MSTORE POP POP JUMP JUMPDEST PUSH0 DUP2 PUSH1 0x60 SHL SWAP1 POP SWAP2 SWAP1 POP JUMP JUMPDEST PUSH0 PUSH2 0x2CE DUP3 PUSH2 0x2B8 JUMP JUMPDEST SWAP1 POP SWAP2 SWAP1 POP JUMP JUMPDEST PUSH0 PUSH2 0x2DF DUP3 PUSH2 0x2C4 JUMP JUMPDEST SWAP1 POP SWAP2 SWAP1 POP JUMP JUMPDEST PUSH2 0x2F7 PUSH2 0x2F2 DUP3 PUSH2 0x1C3 JUMP JUMPDEST PUSH2 0x2D5 JUMP JUMPDEST DUP3 MSTORE POP POP JUMP JUMPDEST PUSH0 DUP2 SWAP1 POP SWAP2 SWAP1 POP JUMP JUMPDEST PUSH2 0x317 PUSH2 0x312 DUP3 PUSH2 0x13E JUMP JUMPDEST PUSH2 0x2FD JUMP JUMPDEST DUP3 MSTORE POP POP JUMP JUMPDEST PUSH0 PUSH2 0x328 DUP3 DUP7 PUSH2 0x2A1 JUMP JUMPDEST PUSH1 0x20 DUP3 ADD SWAP2 POP PUSH2 0x338 DUP3 DUP6 PUSH2 0x2E6 JUMP JUMPDEST PUSH1 0x14 DUP3 ADD SWAP2 POP PUSH2 0x348 DUP3 DUP5 PUSH2 0x306 JUMP JUMPDEST PUSH1 0x20 DUP3 ADD SWAP2 POP DUP2 SWAP1 POP SWAP5 SWAP4 POP POP POP POP JUMP JUMPDEST PUSH32 0x4E487B7100000000000000000000000000000000000000000000000000000000 PUSH0 MSTORE PUSH1 0x12 PUSH1 0x4 MSTORE PUSH1 0x24 PUSH0 REVERT JUMPDEST PUSH0 PUSH2 0x390 DUP3 PUSH2 0x171 JUMP JUMPDEST SWAP2 POP PUSH2 0x39B DUP4 PUSH2 0x171 JUMP JUMPDEST SWAP3 POP DUP3 PUSH2 0x3AB JUMPI PUSH2 0x3AA PUSH2 0x359 JUMP JUMPDEST JUMPDEST DUP3 DUP3 MOD SWAP1 POP SWAP3 SWAP2 POP POP JUMP JUMPDEST PUSH32 0x4E487B7100000000000000000000000000000000000000000000000000000000 PUSH0 MSTORE PUSH1 0x11 PUSH1 0x4 MSTORE PUSH1 0x24 PUSH0 REVERT JUMPDEST PUSH0 PUSH2 0x3ED DUP3 PUSH2 0x171 JUMP JUMPDEST SWAP2 POP PUSH2 0x3F8 DUP4 PUSH2 0x171 JUMP JUMPDEST SWAP3 POP DUP3 DUP3 ADD SWAP1 POP DUP1 DUP3 GT ISZERO PUSH2 0x410 JUMPI PUSH2 0x40F PUSH2 0x3B6 JUMP JUMPDEST JUMPDEST SWAP3 SWAP2 POP POP JUMP JUMPDEST PUSH2 0x41F DUP2 PUSH2 0x13E JUMP JUMPDEST DUP3 MSTORE POP POP JUMP JUMPDEST PUSH0 PUSH1 0x40 DUP3 ADD SWAP1 POP PUSH2 0x438 PUSH0 DUP4 ADD DUP6 PUSH2 0x416 JUMP JUMPDEST PUSH2 0x445 PUSH1 0x20 DUP4 ADD DUP5 PUSH2 0x262 JUMP JUMPDEST SWAP4 SWAP3 POP POP POP JUMP INVALID LOG2 PUSH5 0x6970667358 0x22 SLT KECCAK256 0xAB 0xDA 0xA7 0x2D SIGNEXTEND SWAP13 0x4D RETF CALLDATALOAD 0x4C 0xCE MSTORE 0xDD NUMBER 0xAF PUSH31 0xF5AB0C9F506804324A77A3887E51310F64736F6C634300081F003300000000 "
				},
				"gasEstimates": {
					"creation": {
						"codeDepositCost": "230800",
						"executionCost": "273",
						"totalCost": "231073"
					},
					"external": {
						"requestScore(bytes32,uint256,uint256,address)": "infinite"
					}
				},
				"methodIdentifiers": {
					"requestScore(bytes32,uint256,uint256,address)": "88d80823"
				}
			},
			"storageLayout": {
				"storage": [],
				"types": null
			},
			"userdoc": {
				"kind": "user",
				"methods": {},
				"version": 1
			}
		}
	}
}