{
	"contracts/DemoScoringNodes.sol": {
		"DemoScoringNodes": {
			"abi": [
				{
					"anonymous": false,
					"inputs": [
						{
							"indexed": true,
							"internalType": "bytes32",
							"name": "requestId",
							"type": "bytes32"
						},
						{
							"indexed": false,
							"internalType": "uint256",
							"name": "average",
							"type": "uint256"
						}
					],
					"name": "AverageCalculated",
					"type": "event"
				},
				{
					"anonymous": false,
					"inputs": [
						{
							"indexed": true,
							"internalType": "bytes32",
							"name": "requestId",
							"type": "bytes32"
						},
						{
							"indexed": true,
							"internalType": "address",
							"name": "node",
							"type": "address"
						},
						{
							"indexed": false,
							"internalType": "uint256",
							"name": "score",
							"type": "uint256"
						}
					],
					"name": "ScoreReceived",
					"type": "event"
				},
				{
					"anonymous": false,
					"inputs": [
						{
							"indexed": true,
							"internalType": "bytes32",
							"name": "requestId",
							"type": "bytes32"
						},
						{
							"indexed": false,
							"internalType": "uint256",
							"name": "coordX",
							"type": "uint256"
						},
						{
							"indexed": false,
							"internalType": "uint256",
							"name": "coordY",
							"type": "uint256"
						},
						{
							"indexed": false,
							"internalType": "uint256",
							"name": "nodeCount",
							"type": "uint256"
						}
					],
					"name": "ScoringRequested",
					"type": "event"
				},
				{
					"inputs": [
						{
							"internalType": "bytes32",
							"name": "_requestId",
							"type": "bytes32"
						}
					],
					"name": "calculateAverage",
					"outputs": [],
					"stateMutability": "nonpayable",
					"type": "function"
				},
				{
					"inputs": [
						{
							"internalType": "bytes32",
							"name": "_requestId",
							"type": "bytes32"
						},
						{
							"internalType": "address",
							"name": "_node",
							"type": "address"
						}
					],
					"name": "getNodeScore",
					"outputs": [
						{
							"internalType": "uint256",
							"name": "",
							"type": "uint256"
						}
					],
					"stateMutability": "view",
					"type": "function"
				},
				{
					"inputs": [
						{
							"internalType": "bytes32",
							"name": "_requestId",
							"type": "bytes32"
						}
					],
					"name": "getRequestStatus",
					"outputs": [
						{
							"internalType": "uint256",
							"name": "responded",
							"type": "uint256"
						},
						{
							"internalType": "uint256",
							"name": "total",
							"type": "uint256"
						},
						{
							"internalType": "uint256",
							"name": "average",
							"type": "uint256"
						},
						{
							"internalType": "bool",
							"name": "complete",
							"type": "bool"
						}
					],
					"stateMutability": "view",
					"type": "function"
				},
				{
					"inputs": [
						{
							"internalType": "bytes32",
							"name": "_requestId",
							"type": "bytes32"
						},
						{
							"internalType": "address",
							"name": "_node",
							"type": "address"
						}
					],
					"name": "hasNodeResponded",
					"outputs": [
						{
							"internalType": "bool",
							"name": "",
							"type": "bool"
						}
					],
					"stateMutability": "view",
					"type": "function"
				},
				{
					"inputs": [
						{
							"internalType": "uint256",
							"name": "_coordX",
							"type": "uint256"
						},
						{
							"internalType": "uint256",
							"name": "_coordY",
							"type": "uint256"
						},
						{
							"internalType": "address[]",
							"name": "_nodes",
							"type": "address[]"
						}
					],
					"name": "requestNodeScoring",
					"outputs": [
						{
							"internalType": "bytes32",
							"name": "",
							"type": "bytes32"
						}
					],
					"stateMutability": "nonpayable",
					"type": "function"
				},
				{
					"inputs": [
						{
							"internalType": "bytes32",
							"name": "",
							"type": "bytes32"
						}
					],
					"name": "requests",
					"outputs": [
						{
							"internalType": "uint256",
							"name": "coordX",
							"type": "uint256"
						},
						{
							"internalType": "uint256",
							"name": "coordY",
							"type": "uint256"
						},
						{
							"internalType": "uint256",
							"name": "respondedCount",
							"type": "uint256"
						},
						{
							"internalType": "uint256",
							"name": "totalNodes",
							"type": "uint256"
						},
						{
							"internalType": "uint256",
							"name": "averageScore",
							"type": "uint256"
						},
						{
							"internalType": "bool",
							"name": "isComplete",
							"type": "bool"
						}
					],
					"stateMutability": "view",
					"type": "function"
				},
				{
					"inputs": [
						{
							"internalType": "bytes32",
							"name": "_requestId",
							"type": "bytes32"
						},
						{
							"internalType": "uint256",
							"name": "_score",
							"type": "uint256"
						}
					],
					"name": "submitScore",
					"outputs": [],
					"stateMutability": "nonpayable",
					"type": "function"
				}
			],
			"devdoc": {
				"kind": "dev",
				"methods": {},
				"version": 1
			},
			"evm": {
				"assembly": "    /* \"contracts/DemoScoringNodes.sol\":296:4259  contract DemoScoringNodes is IMainNode{... */\n  mstore(0x40, 0x80)\n  callvalue\n  dup1\n  iszero\n  tag_1\n  jumpi\n  revert(0x00, 0x00)\ntag_1:\n  pop\n  dataSize(sub_0)\n  dup1\n  dataOffset(sub_0)\n  0x00\n  codecopy\n  0x00\n  return\nstop\n\nsub_0: assembly {\n        /* \"contracts/DemoScoringNodes.sol\":296:4259  contract DemoScoringNodes is IMainNode{... */\n      mstore(0x40, 0x80)\n      callvalue\n      dup1\n      iszero\n      tag_1\n      jumpi\n      revert(0x00, 0x00)\n    tag_1:\n      pop\n      jumpi(tag_2, lt(calldatasize, 0x04))\n      shr(0xe0, calldataload(0x00))\n      dup1\n      0x82a87c01\n      gt\n      tag_10\n      jumpi\n      dup1\n      0x82a87c01\n      eq\n      tag_6\n      jumpi\n      dup1\n      0x9d866985\n      eq\n      tag_7\n      jumpi\n      dup1\n      0xbcf88653\n      eq\n      tag_8\n      jumpi\n      dup1\n      0xfab7d44b\n      eq\n      tag_9\n      jumpi\n      jump(tag_2)\n    tag_10:\n      dup1\n      0x45d07664\n      eq\n      tag_3\n      jumpi\n      dup1\n      0x512fed43\n      eq\n      tag_4\n      jumpi\n      dup1\n      0x59e9e22b\n      eq\n      tag_5\n      jumpi\n    tag_2:\n      revert(0x00, 0x00)\n        /* \"contracts/DemoScoringNodes.sol\":3548:3871  function getRequestStatus(bytes32 _requestId)... */\n    tag_3:\n      tag_11\n      0x04\n      dup1\n      calldatasize\n      sub\n      dup2\n      add\n      swap1\n      tag_12\n      swap2\n      swap1\n      tag_13\n      jump\t// in\n    tag_12:\n      tag_14\n      jump\t// in\n    tag_11:\n      mload(0x40)\n      tag_15\n      swap5\n      swap4\n      swap3\n      swap2\n      swap1\n      tag_16\n      jump\t// in\n    tag_15:\n      mload(0x40)\n      dup1\n      swap2\n      sub\n      swap1\n      return\n        /* \"contracts/DemoScoringNodes.sol\":2061:2797  function submitScore(bytes32 _requestId, uint256 _score) external {... */\n    tag_4:\n      tag_17\n      0x04\n      dup1\n      calldatasize\n      sub\n      dup2\n      add\n      swap1\n      tag_18\n      swap2\n      swap1\n      tag_19\n      jump\t// in\n    tag_18:\n      tag_20\n      jump\t// in\n    tag_17:\n      stop\n        /* \"contracts/DemoScoringNodes.sol\":2870:3489  function calculateAverage(bytes32 _requestId) public {... */\n    tag_5:\n      tag_21\n      0x04\n      dup1\n      calldatasize\n      sub\n      dup2\n      add\n      swap1\n      tag_22\n      swap2\n      swap1\n      tag_13\n      jump\t// in\n    tag_22:\n      tag_23\n      jump\t// in\n    tag_21:\n      stop\n        /* \"contracts/DemoScoringNodes.sol\":1101:1981  function requestNodeScoring(uint256 _coordX, uint256 _coordY, address[] calldata _nodes)... */\n    tag_6:\n      tag_24\n      0x04\n      dup1\n      calldatasize\n      sub\n      dup2\n      add\n      swap1\n      tag_25\n      swap2\n      swap1\n      tag_26\n      jump\t// in\n    tag_25:\n      tag_27\n      jump\t// in\n    tag_24:\n      mload(0x40)\n      tag_28\n      swap2\n      swap1\n      tag_29\n      jump\t// in\n    tag_28:\n      mload(0x40)\n      dup1\n      swap2\n      sub\n      swap1\n      return\n        /* \"contracts/DemoScoringNodes.sol\":669:719  mapping(bytes32 => ScoringRequest) public requests */\n    tag_7:\n      tag_30\n      0x04\n      dup1\n      calldatasize\n      sub\n      dup2\n      add\n      swap1\n      tag_31\n      swap2\n      swap1\n      tag_13\n      jump\t// in\n    tag_31:\n      tag_32\n      jump\t// in\n    tag_30:\n      mload(0x40)\n      tag_33\n      swap7\n      swap6\n      swap5\n      swap4\n      swap3\n      swap2\n      swap1\n      tag_34\n      jump\t// in\n    tag_33:\n      mload(0x40)\n      dup1\n      swap2\n      sub\n      swap1\n      return\n        /* \"contracts/DemoScoringNodes.sol\":4068:4256  function hasNodeResponded(bytes32 _requestId, address _node)... */\n    tag_8:\n      tag_35\n      0x04\n      dup1\n      calldatasize\n      sub\n      dup2\n      add\n      swap1\n      tag_36\n      swap2\n      swap1\n      tag_37\n      jump\t// in\n    tag_36:\n      tag_38\n      jump\t// in\n    tag_35:\n      mload(0x40)\n      tag_39\n      swap2\n      swap1\n      tag_40\n      jump\t// in\n    tag_39:\n      mload(0x40)\n      dup1\n      swap2\n      sub\n      swap1\n      return\n        /* \"contracts/DemoScoringNodes.sol\":3879:4060  function getNodeScore(bytes32 _requestId, address _node)... */\n    tag_9:\n      tag_41\n      0x04\n      dup1\n      calldatasize\n      sub\n      dup2\n      add\n      swap1\n      tag_42\n      swap2\n      swap1\n      tag_37\n      jump\t// in\n    tag_42:\n      tag_43\n      jump\t// in\n    tag_41:\n      mload(0x40)\n      tag_44\n      swap2\n      swap1\n      tag_45\n      jump\t// in\n    tag_44:\n      mload(0x40)\n      dup1\n      swap2\n      sub\n      swap1\n      return\n        /* \"contracts/DemoScoringNodes.sol\":3548:3871  function getRequestStatus(bytes32 _requestId)... */\n    tag_14:\n        /* \"contracts/DemoScoringNodes.sol\":3644:3661  uint256 responded */\n      0x00\n        /* \"contracts/DemoScoringNodes.sol\":3663:3676  uint256 total */\n      0x00\n        /* \"contracts/DemoScoringNodes.sol\":3678:3693  uint256 average */\n      0x00\n        /* \"contracts/DemoScoringNodes.sol\":3695:3708  bool complete */\n      0x00\n        /* \"contracts/DemoScoringNodes.sol\":3726:3752  ScoringRequest storage req */\n      0x00\n        /* \"contracts/DemoScoringNodes.sol\":3755:3763  requests */\n      0x00\n        /* \"contracts/DemoScoringNodes.sol\":3755:3775  requests[_requestId] */\n      0x00\n        /* \"contracts/DemoScoringNodes.sol\":3764:3774  _requestId */\n      dup8\n        /* \"contracts/DemoScoringNodes.sol\":3755:3775  requests[_requestId] */\n      dup2\n      mstore\n      0x20\n      add\n      swap1\n      dup2\n      mstore\n      0x20\n      add\n      0x00\n      keccak256\n        /* \"contracts/DemoScoringNodes.sol\":3726:3775  ScoringRequest storage req = requests[_requestId] */\n      swap1\n      pop\n        /* \"contracts/DemoScoringNodes.sol\":3794:3797  req */\n      dup1\n        /* \"contracts/DemoScoringNodes.sol\":3794:3812  req.respondedCount */\n      0x05\n      add\n      sload\n        /* \"contracts/DemoScoringNodes.sol\":3814:3817  req */\n      dup2\n        /* \"contracts/DemoScoringNodes.sol\":3814:3828  req.totalNodes */\n      0x06\n      add\n      sload\n        /* \"contracts/DemoScoringNodes.sol\":3830:3833  req */\n      dup3\n        /* \"contracts/DemoScoringNodes.sol\":3830:3846  req.averageScore */\n      0x07\n      add\n      sload\n        /* \"contracts/DemoScoringNodes.sol\":3848:3851  req */\n      dup4\n        /* \"contracts/DemoScoringNodes.sol\":3848:3862  req.isComplete */\n      0x08\n      add\n      0x00\n      swap1\n      sload\n      swap1\n      0x0100\n      exp\n      swap1\n      div\n      0xff\n      and\n        /* \"contracts/DemoScoringNodes.sol\":3786:3863  return (req.respondedCount, req.totalNodes, req.averageScore, req.isComplete) */\n      swap5\n      pop\n      swap5\n      pop\n      swap5\n      pop\n      swap5\n      pop\n      pop\n        /* \"contracts/DemoScoringNodes.sol\":3548:3871  function getRequestStatus(bytes32 _requestId)... */\n      swap2\n      swap4\n      pop\n      swap2\n      swap4\n      jump\t// out\n        /* \"contracts/DemoScoringNodes.sol\":2061:2797  function submitScore(bytes32 _requestId, uint256 _score) external {... */\n    tag_20:\n        /* \"contracts/DemoScoringNodes.sol\":2138:2164  ScoringRequest storage req */\n      0x00\n        /* \"contracts/DemoScoringNodes.sol\":2167:2175  requests */\n      0x00\n        /* \"contracts/DemoScoringNodes.sol\":2167:2187  requests[_requestId] */\n      0x00\n        /* \"contracts/DemoScoringNodes.sol\":2176:2186  _requestId */\n      dup5\n        /* \"contracts/DemoScoringNodes.sol\":2167:2187  requests[_requestId] */\n      dup2\n      mstore\n      0x20\n      add\n      swap1\n      dup2\n      mstore\n      0x20\n      add\n      0x00\n      keccak256\n        /* \"contracts/DemoScoringNodes.sol\":2138:2187  ScoringRequest storage req = requests[_requestId] */\n      swap1\n      pop\n        /* \"contracts/DemoScoringNodes.sol\":2225:2226  0 */\n      0x00\n        /* \"contracts/DemoScoringNodes.sol\":2208:2211  req */\n      dup2\n        /* \"contracts/DemoScoringNodes.sol\":2208:2222  req.totalNodes */\n      0x06\n      add\n      sload\n        /* \"contracts/DemoScoringNodes.sol\":2208:2226  req.totalNodes > 0 */\n      gt\n        /* \"contracts/DemoScoringNodes.sol\":2200:2249  require(req.totalNodes > 0, \"Invalid request ID\") */\n      tag_48\n      jumpi\n      mload(0x40)\n      0x08c379a000000000000000000000000000000000000000000000000000000000\n      dup2\n      mstore\n      0x04\n      add\n      tag_49\n      swap1\n      tag_50\n      jump\t// in\n    tag_49:\n      mload(0x40)\n      dup1\n      swap2\n      sub\n      swap1\n      revert\n    tag_48:\n        /* \"contracts/DemoScoringNodes.sol\":2269:2272  req */\n      dup1\n        /* \"contracts/DemoScoringNodes.sol\":2269:2285  req.hasResponded */\n      0x04\n      add\n        /* \"contracts/DemoScoringNodes.sol\":2269:2297  req.hasResponded[msg.sender] */\n      0x00\n        /* \"contracts/DemoScoringNodes.sol\":2286:2296  msg.sender */\n      caller\n        /* \"contracts/DemoScoringNodes.sol\":2269:2297  req.hasResponded[msg.sender] */\n      0xffffffffffffffffffffffffffffffffffffffff\n      and\n      0xffffffffffffffffffffffffffffffffffffffff\n      and\n      dup2\n      mstore\n      0x20\n      add\n      swap1\n      dup2\n      mstore\n      0x20\n      add\n      0x00\n      keccak256\n      0x00\n      swap1\n      sload\n      swap1\n      0x0100\n      exp\n      swap1\n      div\n      0xff\n      and\n        /* \"contracts/DemoScoringNodes.sol\":2268:2297  !req.hasResponded[msg.sender] */\n      iszero\n        /* \"contracts/DemoScoringNodes.sol\":2260:2324  require(!req.hasResponded[msg.sender], \"Node already responded\") */\n      tag_51\n      jumpi\n      mload(0x40)\n      0x08c379a000000000000000000000000000000000000000000000000000000000\n      dup2\n      mstore\n      0x04\n      add\n      tag_52\n      swap1\n      tag_53\n      jump\t// in\n    tag_52:\n      mload(0x40)\n      dup1\n      swap2\n      sub\n      swap1\n      revert\n    tag_51:\n        /* \"contracts/DemoScoringNodes.sol\":2344:2347  req */\n      dup1\n        /* \"contracts/DemoScoringNodes.sol\":2344:2358  req.isComplete */\n      0x08\n      add\n      0x00\n      swap1\n      sload\n      swap1\n      0x0100\n      exp\n      swap1\n      div\n      0xff\n      and\n        /* \"contracts/DemoScoringNodes.sol\":2343:2358  !req.isComplete */\n      iszero\n        /* \"contracts/DemoScoringNodes.sol\":2335:2388  require(!req.isComplete, \"Request already completed\") */\n      tag_54\n      jumpi\n      mload(0x40)\n      0x08c379a000000000000000000000000000000000000000000000000000000000\n      dup2\n      mstore\n      0x04\n      add\n      tag_55\n      swap1\n      tag_56\n      jump\t// in\n    tag_55:\n      mload(0x40)\n      dup1\n      swap2\n      sub\n      swap1\n      revert\n    tag_54:\n        /* \"contracts/DemoScoringNodes.sol\":2461:2467  _score */\n      dup2\n        /* \"contracts/DemoScoringNodes.sol\":2436:2439  req */\n      dup2\n        /* \"contracts/DemoScoringNodes.sol\":2436:2446  req.scores */\n      0x03\n      add\n        /* \"contracts/DemoScoringNodes.sol\":2436:2458  req.scores[msg.sender] */\n      0x00\n        /* \"contracts/DemoScoringNodes.sol\":2447:2457  msg.sender */\n      caller\n        /* \"contracts/DemoScoringNodes.sol\":2436:2458  req.scores[msg.sender] */\n      0xffffffffffffffffffffffffffffffffffffffff\n      and\n      0xffffffffffffffffffffffffffffffffffffffff\n      and\n      dup2\n      mstore\n      0x20\n      add\n      swap1\n      dup2\n      mstore\n      0x20\n      add\n      0x00\n      keccak256\n        /* \"contracts/DemoScoringNodes.sol\":2436:2467  req.scores[msg.sender] = _score */\n      dup2\n      swap1\n      sstore\n      pop\n        /* \"contracts/DemoScoringNodes.sol\":2509:2513  true */\n      0x01\n        /* \"contracts/DemoScoringNodes.sol\":2478:2481  req */\n      dup2\n        /* \"contracts/DemoScoringNodes.sol\":2478:2494  req.hasResponded */\n      0x04\n      add\n        /* \"contracts/DemoScoringNodes.sol\":2478:2506  req.hasResponded[msg.sender] */\n      0x00\n        /* \"contracts/DemoScoringNodes.sol\":2495:2505  msg.sender */\n      caller\n        /* \"contracts/DemoScoringNodes.sol\":2478:2506  req.hasResponded[msg.sender] */\n      0xffffffffffffffffffffffffffffffffffffffff\n      and\n      0xffffffffffffffffffffffffffffffffffffffff\n      and\n      dup2\n      mstore\n      0x20\n      add\n      swap1\n      dup2\n      mstore\n      0x20\n      add\n      0x00\n      keccak256\n      0x00\n        /* \"contracts/DemoScoringNodes.sol\":2478:2513  req.hasResponded[msg.sender] = true */\n      0x0100\n      exp\n      dup2\n      sload\n      dup2\n      0xff\n      mul\n      not\n      and\n      swap1\n      dup4\n      iszero\n      iszero\n      mul\n      or\n      swap1\n      sstore\n      pop\n        /* \"contracts/DemoScoringNodes.sol\":2524:2527  req */\n      dup1\n        /* \"contracts/DemoScoringNodes.sol\":2524:2542  req.respondedCount */\n      0x05\n      add\n      0x00\n        /* \"contracts/DemoScoringNodes.sol\":2524:2544  req.respondedCount++ */\n      dup2\n      sload\n      dup1\n      swap3\n      swap2\n      swap1\n      tag_57\n      swap1\n      tag_58\n      jump\t// in\n    tag_57:\n      swap2\n      swap1\n      pop\n      sstore\n      pop\n        /* \"contracts/DemoScoringNodes.sol\":2588:2598  msg.sender */\n      caller\n        /* \"contracts/DemoScoringNodes.sol\":2562:2607  ScoreReceived(_requestId, msg.sender, _score) */\n      0xffffffffffffffffffffffffffffffffffffffff\n      and\n        /* \"contracts/DemoScoringNodes.sol\":2576:2586  _requestId */\n      dup4\n        /* \"contracts/DemoScoringNodes.sol\":2562:2607  ScoreReceived(_requestId, msg.sender, _score) */\n      0xb65dcacaabdd1c739ec12f70f9f2fc5628c616d2940061108347f4008d9ceb0e\n        /* \"contracts/DemoScoringNodes.sol\":2600:2606  _score */\n      dup5\n        /* \"contracts/DemoScoringNodes.sol\":2562:2607  ScoreReceived(_requestId, msg.sender, _score) */\n      mload(0x40)\n      tag_59\n      swap2\n      swap1\n      tag_45\n      jump\t// in\n    tag_59:\n      mload(0x40)\n      dup1\n      swap2\n      sub\n      swap1\n      log3\n        /* \"contracts/DemoScoringNodes.sol\":2719:2722  req */\n      dup1\n        /* \"contracts/DemoScoringNodes.sol\":2719:2733  req.totalNodes */\n      0x06\n      add\n      sload\n        /* \"contracts/DemoScoringNodes.sol\":2697:2700  req */\n      dup2\n        /* \"contracts/DemoScoringNodes.sol\":2697:2715  req.respondedCount */\n      0x05\n      add\n      sload\n        /* \"contracts/DemoScoringNodes.sol\":2697:2733  req.respondedCount == req.totalNodes */\n      sub\n        /* \"contracts/DemoScoringNodes.sol\":2693:2790  if (req.respondedCount == req.totalNodes) {... */\n      tag_60\n      jumpi\n        /* \"contracts/DemoScoringNodes.sol\":2750:2778  calculateAverage(_requestId) */\n      tag_61\n        /* \"contracts/DemoScoringNodes.sol\":2767:2777  _requestId */\n      dup4\n        /* \"contracts/DemoScoringNodes.sol\":2750:2766  calculateAverage */\n      tag_23\n        /* \"contracts/DemoScoringNodes.sol\":2750:2778  calculateAverage(_requestId) */\n      jump\t// in\n    tag_61:\n        /* \"contracts/DemoScoringNodes.sol\":2693:2790  if (req.respondedCount == req.totalNodes) {... */\n    tag_60:\n        /* \"contracts/DemoScoringNodes.sol\":2127:2797  {... */\n      pop\n        /* \"contracts/DemoScoringNodes.sol\":2061:2797  function submitScore(bytes32 _requestId, uint256 _score) external {... */\n      pop\n      pop\n      jump\t// out\n        /* \"contracts/DemoScoringNodes.sol\":2870:3489  function calculateAverage(bytes32 _requestId) public {... */\n    tag_23:\n        /* \"contracts/DemoScoringNodes.sol\":2934:2960  ScoringRequest storage req */\n      0x00\n        /* \"contracts/DemoScoringNodes.sol\":2963:2971  requests */\n      0x00\n        /* \"contracts/DemoScoringNodes.sol\":2963:2983  requests[_requestId] */\n      0x00\n        /* \"contracts/DemoScoringNodes.sol\":2972:2982  _requestId */\n      dup4\n        /* \"contracts/DemoScoringNodes.sol\":2963:2983  requests[_requestId] */\n      dup2\n      mstore\n      0x20\n      add\n      swap1\n      dup2\n      mstore\n      0x20\n      add\n      0x00\n      keccak256\n        /* \"contracts/DemoScoringNodes.sol\":2934:2983  ScoringRequest storage req = requests[_requestId] */\n      swap1\n      pop\n        /* \"contracts/DemoScoringNodes.sol\":3021:3022  0 */\n      0x00\n        /* \"contracts/DemoScoringNodes.sol\":3004:3007  req */\n      dup2\n        /* \"contracts/DemoScoringNodes.sol\":3004:3018  req.totalNodes */\n      0x06\n      add\n      sload\n        /* \"contracts/DemoScoringNodes.sol\":3004:3022  req.totalNodes > 0 */\n      gt\n        /* \"contracts/DemoScoringNodes.sol\":2996:3045  require(req.totalNodes > 0, \"Invalid request ID\") */\n      tag_63\n      jumpi\n      mload(0x40)\n      0x08c379a000000000000000000000000000000000000000000000000000000000\n      dup2\n      mstore\n      0x04\n      add\n      tag_64\n      swap1\n      tag_50\n      jump\t// in\n    tag_64:\n      mload(0x40)\n      dup1\n      swap2\n      sub\n      swap1\n      revert\n    tag_63:\n        /* \"contracts/DemoScoringNodes.sol\":3065:3068  req */\n      dup1\n        /* \"contracts/DemoScoringNodes.sol\":3065:3079  req.isComplete */\n      0x08\n      add\n      0x00\n      swap1\n      sload\n      swap1\n      0x0100\n      exp\n      swap1\n      div\n      0xff\n      and\n        /* \"contracts/DemoScoringNodes.sol\":3064:3079  !req.isComplete */\n      iszero\n        /* \"contracts/DemoScoringNodes.sol\":3056:3102  require(!req.isComplete, \"Already calculated\") */\n      tag_65\n      jumpi\n      mload(0x40)\n      0x08c379a000000000000000000000000000000000000000000000000000000000\n      dup2\n      mstore\n      0x04\n      add\n      tag_66\n      swap1\n      tag_67\n      jump\t// in\n    tag_66:\n      mload(0x40)\n      dup1\n      swap2\n      sub\n      swap1\n      revert\n    tag_65:\n        /* \"contracts/DemoScoringNodes.sol\":3143:3146  req */\n      dup1\n        /* \"contracts/DemoScoringNodes.sol\":3143:3157  req.totalNodes */\n      0x06\n      add\n      sload\n        /* \"contracts/DemoScoringNodes.sol\":3121:3124  req */\n      dup2\n        /* \"contracts/DemoScoringNodes.sol\":3121:3139  req.respondedCount */\n      0x05\n      add\n      sload\n        /* \"contracts/DemoScoringNodes.sol\":3121:3157  req.respondedCount == req.totalNodes */\n      eq\n        /* \"contracts/DemoScoringNodes.sol\":3113:3189  require(req.respondedCount == req.totalNodes, \"Not all nodes responded yet\") */\n      tag_68\n      jumpi\n      mload(0x40)\n      0x08c379a000000000000000000000000000000000000000000000000000000000\n      dup2\n      mstore\n      0x04\n      add\n      tag_69\n      swap1\n      tag_70\n      jump\t// in\n    tag_69:\n      mload(0x40)\n      dup1\n      swap2\n      sub\n      swap1\n      revert\n    tag_68:\n        /* \"contracts/DemoScoringNodes.sol\":3202:3213  uint256 sum */\n      0x00\n        /* \"contracts/DemoScoringNodes.sol\":3216:3217  0 */\n      0x00\n        /* \"contracts/DemoScoringNodes.sol\":3202:3217  uint256 sum = 0 */\n      swap1\n      pop\n        /* \"contracts/DemoScoringNodes.sol\":3233:3242  uint256 i */\n      0x00\n        /* \"contracts/DemoScoringNodes.sol\":3245:3246  0 */\n      0x00\n        /* \"contracts/DemoScoringNodes.sol\":3233:3246  uint256 i = 0 */\n      swap1\n      pop\n        /* \"contracts/DemoScoringNodes.sol\":3228:3333  for (uint256 i = 0; i < req.nodes.length; i++) {... */\n    tag_71:\n        /* \"contracts/DemoScoringNodes.sol\":3252:3255  req */\n      dup3\n        /* \"contracts/DemoScoringNodes.sol\":3252:3261  req.nodes */\n      0x02\n      add\n        /* \"contracts/DemoScoringNodes.sol\":3252:3268  req.nodes.length */\n      dup1\n      sload\n      swap1\n      pop\n        /* \"contracts/DemoScoringNodes.sol\":3248:3249  i */\n      dup2\n        /* \"contracts/DemoScoringNodes.sol\":3248:3268  i < req.nodes.length */\n      lt\n        /* \"contracts/DemoScoringNodes.sol\":3228:3333  for (uint256 i = 0; i < req.nodes.length; i++) {... */\n      iszero\n      tag_72\n      jumpi\n        /* \"contracts/DemoScoringNodes.sol\":3297:3300  req */\n      dup3\n        /* \"contracts/DemoScoringNodes.sol\":3297:3307  req.scores */\n      0x03\n      add\n        /* \"contracts/DemoScoringNodes.sol\":3297:3321  req.scores[req.nodes[i]] */\n      0x00\n        /* \"contracts/DemoScoringNodes.sol\":3308:3311  req */\n      dup5\n        /* \"contracts/DemoScoringNodes.sol\":3308:3317  req.nodes */\n      0x02\n      add\n        /* \"contracts/DemoScoringNodes.sol\":3318:3319  i */\n      dup4\n        /* \"contracts/DemoScoringNodes.sol\":3308:3320  req.nodes[i] */\n      dup2\n      sload\n      dup2\n      lt\n      tag_74\n      jumpi\n      tag_75\n      tag_76\n      jump\t// in\n    tag_75:\n    tag_74:\n      swap1\n      0x00\n      mstore\n      keccak256(0x00, 0x20)\n      add\n      0x00\n      swap1\n      sload\n      swap1\n      0x0100\n      exp\n      swap1\n      div\n      0xffffffffffffffffffffffffffffffffffffffff\n      and\n        /* \"contracts/DemoScoringNodes.sol\":3297:3321  req.scores[req.nodes[i]] */\n      0xffffffffffffffffffffffffffffffffffffffff\n      and\n      0xffffffffffffffffffffffffffffffffffffffff\n      and\n      dup2\n      mstore\n      0x20\n      add\n      swap1\n      dup2\n      mstore\n      0x20\n      add\n      0x00\n      keccak256\n      sload\n        /* \"contracts/DemoScoringNodes.sol\":3290:3321  sum += req.scores[req.nodes[i]] */\n      dup3\n      tag_78\n      swap2\n      swap1\n      tag_79\n      jump\t// in\n    tag_78:\n      swap2\n      pop\n        /* \"contracts/DemoScoringNodes.sol\":3270:3273  i++ */\n      dup1\n      dup1\n      0x01\n      add\n      swap2\n      pop\n      pop\n        /* \"contracts/DemoScoringNodes.sol\":3228:3333  for (uint256 i = 0; i < req.nodes.length; i++) {... */\n      jump(tag_71)\n    tag_72:\n      pop\n        /* \"contracts/DemoScoringNodes.sol\":3370:3373  req */\n      dup2\n        /* \"contracts/DemoScoringNodes.sol\":3370:3384  req.totalNodes */\n      0x06\n      add\n      sload\n        /* \"contracts/DemoScoringNodes.sol\":3364:3367  sum */\n      dup2\n        /* \"contracts/DemoScoringNodes.sol\":3364:3384  sum / req.totalNodes */\n      tag_80\n      swap2\n      swap1\n      tag_81\n      jump\t// in\n    tag_80:\n        /* \"contracts/DemoScoringNodes.sol\":3345:3348  req */\n      dup3\n        /* \"contracts/DemoScoringNodes.sol\":3345:3361  req.averageScore */\n      0x07\n      add\n        /* \"contracts/DemoScoringNodes.sol\":3345:3384  req.averageScore = sum / req.totalNodes */\n      dup2\n      swap1\n      sstore\n      pop\n        /* \"contracts/DemoScoringNodes.sol\":3412:3416  true */\n      0x01\n        /* \"contracts/DemoScoringNodes.sol\":3395:3398  req */\n      dup3\n        /* \"contracts/DemoScoringNodes.sol\":3395:3409  req.isComplete */\n      0x08\n      add\n      0x00\n        /* \"contracts/DemoScoringNodes.sol\":3395:3416  req.isComplete = true */\n      0x0100\n      exp\n      dup2\n      sload\n      dup2\n      0xff\n      mul\n      not\n      and\n      swap1\n      dup4\n      iszero\n      iszero\n      mul\n      or\n      swap1\n      sstore\n      pop\n        /* \"contracts/DemoScoringNodes.sol\":3452:3462  _requestId */\n      dup3\n        /* \"contracts/DemoScoringNodes.sol\":3434:3481  AverageCalculated(_requestId, req.averageScore) */\n      0x2892d598e4e0a5f04879c50284827a25921e2883e44ea0f7a4ad076b4be83322\n        /* \"contracts/DemoScoringNodes.sol\":3464:3467  req */\n      dup4\n        /* \"contracts/DemoScoringNodes.sol\":3464:3480  req.averageScore */\n      0x07\n      add\n      sload\n        /* \"contracts/DemoScoringNodes.sol\":3434:3481  AverageCalculated(_requestId, req.averageScore) */\n      mload(0x40)\n      tag_82\n      swap2\n      swap1\n      tag_45\n      jump\t// in\n    tag_82:\n      mload(0x40)\n      dup1\n      swap2\n      sub\n      swap1\n      log2\n        /* \"contracts/DemoScoringNodes.sol\":2923:3489  {... */\n      pop\n      pop\n        /* \"contracts/DemoScoringNodes.sol\":2870:3489  function calculateAverage(bytes32 _requestId) public {... */\n      pop\n      jump\t// out\n        /* \"contracts/DemoScoringNodes.sol\":1101:1981  function requestNodeScoring(uint256 _coordX, uint256 _coordY, address[] calldata _nodes)... */\n    tag_27:\n        /* \"contracts/DemoScoringNodes.sol\":1226:1233  bytes32 */\n      0x00\n        /* \"contracts/DemoScoringNodes.sol\":1275:1276  0 */\n      0x00\n        /* \"contracts/DemoScoringNodes.sol\":1259:1265  _nodes */\n      dup4\n      dup4\n        /* \"contracts/DemoScoringNodes.sol\":1259:1272  _nodes.length */\n      swap1\n      pop\n        /* \"contracts/DemoScoringNodes.sol\":1259:1276  _nodes.length > 0 */\n      gt\n        /* \"contracts/DemoScoringNodes.sol\":1251:1298  require(_nodes.length > 0, \"No nodes provided\") */\n      tag_84\n      jumpi\n      mload(0x40)\n      0x08c379a000000000000000000000000000000000000000000000000000000000\n      dup2\n      mstore\n      0x04\n      add\n      tag_85\n      swap1\n      tag_86\n      jump\t// in\n    tag_85:\n      mload(0x40)\n      dup1\n      swap2\n      sub\n      swap1\n      revert\n    tag_84:\n        /* \"contracts/DemoScoringNodes.sol\":1311:1328  bytes32 requestId */\n      0x00\n        /* \"contracts/DemoScoringNodes.sol\":1358:1373  block.timestamp */\n      timestamp\n        /* \"contracts/DemoScoringNodes.sol\":1375:1389  requestCounter */\n      0x01\n      0x00\n        /* \"contracts/DemoScoringNodes.sol\":1375:1391  requestCounter++ */\n      dup2\n      sload\n      dup1\n      swap3\n      swap2\n      swap1\n      tag_87\n      swap1\n      tag_58\n      jump\t// in\n    tag_87:\n      swap2\n      swap1\n      pop\n      sstore\n        /* \"contracts/DemoScoringNodes.sol\":1341:1392  abi.encodePacked(block.timestamp, requestCounter++) */\n      add(0x20, mload(0x40))\n      tag_88\n      swap3\n      swap2\n      swap1\n      tag_89\n      jump\t// in\n    tag_88:\n      mload(0x40)\n      0x20\n      dup2\n      dup4\n      sub\n      sub\n      dup2\n      mstore\n      swap1\n      0x40\n      mstore\n        /* \"contracts/DemoScoringNodes.sol\":1331:1393  keccak256(abi.encodePacked(block.timestamp, requestCounter++)) */\n      dup1\n      mload\n      swap1\n      0x20\n      add\n      keccak256\n        /* \"contracts/DemoScoringNodes.sol\":1311:1393  bytes32 requestId = keccak256(abi.encodePacked(block.timestamp, requestCounter++)) */\n      swap1\n      pop\n        /* \"contracts/DemoScoringNodes.sol\":1406:1432  ScoringRequest storage req */\n      0x00\n        /* \"contracts/DemoScoringNodes.sol\":1435:1443  requests */\n      0x00\n        /* \"contracts/DemoScoringNodes.sol\":1435:1454  requests[requestId] */\n      0x00\n        /* \"contracts/DemoScoringNodes.sol\":1444:1453  requestId */\n      dup4\n        /* \"contracts/DemoScoringNodes.sol\":1435:1454  requests[requestId] */\n      dup2\n      mstore\n      0x20\n      add\n      swap1\n      dup2\n      mstore\n      0x20\n      add\n      0x00\n      keccak256\n        /* \"contracts/DemoScoringNodes.sol\":1406:1454  ScoringRequest storage req = requests[requestId] */\n      swap1\n      pop\n        /* \"contracts/DemoScoringNodes.sol\":1478:1485  _coordX */\n      dup7\n        /* \"contracts/DemoScoringNodes.sol\":1465:1468  req */\n      dup2\n        /* \"contracts/DemoScoringNodes.sol\":1465:1475  req.coordX */\n      0x00\n      add\n        /* \"contracts/DemoScoringNodes.sol\":1465:1485  req.coordX = _coordX */\n      dup2\n      swap1\n      sstore\n      pop\n        /* \"contracts/DemoScoringNodes.sol\":1509:1516  _coordY */\n      dup6\n        /* \"contracts/DemoScoringNodes.sol\":1496:1499  req */\n      dup2\n        /* \"contracts/DemoScoringNodes.sol\":1496:1506  req.coordY */\n      0x01\n      add\n        /* \"contracts/DemoScoringNodes.sol\":1496:1516  req.coordY = _coordY */\n      dup2\n      swap1\n      sstore\n      pop\n        /* \"contracts/DemoScoringNodes.sol\":1539:1545  _nodes */\n      dup5\n      dup5\n        /* \"contracts/DemoScoringNodes.sol\":1527:1530  req */\n      dup3\n        /* \"contracts/DemoScoringNodes.sol\":1527:1536  req.nodes */\n      0x02\n      add\n        /* \"contracts/DemoScoringNodes.sol\":1527:1545  req.nodes = _nodes */\n      swap2\n      swap1\n      tag_90\n      swap3\n      swap2\n      swap1\n      tag_91\n      jump\t// in\n    tag_90:\n      pop\n        /* \"contracts/DemoScoringNodes.sol\":1573:1579  _nodes */\n      dup5\n      dup5\n        /* \"contracts/DemoScoringNodes.sol\":1573:1586  _nodes.length */\n      swap1\n      pop\n        /* \"contracts/DemoScoringNodes.sol\":1556:1559  req */\n      dup2\n        /* \"contracts/DemoScoringNodes.sol\":1556:1570  req.totalNodes */\n      0x06\n      add\n        /* \"contracts/DemoScoringNodes.sol\":1556:1586  req.totalNodes = _nodes.length */\n      dup2\n      swap1\n      sstore\n      pop\n        /* \"contracts/DemoScoringNodes.sol\":1618:1619  0 */\n      0x00\n        /* \"contracts/DemoScoringNodes.sol\":1597:1600  req */\n      dup2\n        /* \"contracts/DemoScoringNodes.sol\":1597:1615  req.respondedCount */\n      0x05\n      add\n        /* \"contracts/DemoScoringNodes.sol\":1597:1619  req.respondedCount = 0 */\n      dup2\n      swap1\n      sstore\n      pop\n        /* \"contracts/DemoScoringNodes.sol\":1647:1652  false */\n      0x00\n        /* \"contracts/DemoScoringNodes.sol\":1630:1633  req */\n      dup2\n        /* \"contracts/DemoScoringNodes.sol\":1630:1644  req.isComplete */\n      0x08\n      add\n      0x00\n        /* \"contracts/DemoScoringNodes.sol\":1630:1652  req.isComplete = false */\n      0x0100\n      exp\n      dup2\n      sload\n      dup2\n      0xff\n      mul\n      not\n      and\n      swap1\n      dup4\n      iszero\n      iszero\n      mul\n      or\n      swap1\n      sstore\n      pop\n        /* \"contracts/DemoScoringNodes.sol\":1738:1747  uint256 i */\n      0x00\n        /* \"contracts/DemoScoringNodes.sol\":1750:1751  0 */\n      0x00\n        /* \"contracts/DemoScoringNodes.sol\":1738:1751  uint256 i = 0 */\n      swap1\n      pop\n        /* \"contracts/DemoScoringNodes.sol\":1733:1869  for (uint256 i = 0; i < _nodes.length; i++) {... */\n    tag_92:\n        /* \"contracts/DemoScoringNodes.sol\":1757:1763  _nodes */\n      dup6\n      dup6\n        /* \"contracts/DemoScoringNodes.sol\":1757:1770  _nodes.length */\n      swap1\n      pop\n        /* \"contracts/DemoScoringNodes.sol\":1753:1754  i */\n      dup2\n        /* \"contracts/DemoScoringNodes.sol\":1753:1770  i < _nodes.length */\n      lt\n        /* \"contracts/DemoScoringNodes.sol\":1733:1869  for (uint256 i = 0; i < _nodes.length; i++) {... */\n      iszero\n      tag_93\n      jumpi\n        /* \"contracts/DemoScoringNodes.sol\":1805:1811  _nodes */\n      dup6\n      dup6\n        /* \"contracts/DemoScoringNodes.sol\":1812:1813  i */\n      dup3\n        /* \"contracts/DemoScoringNodes.sol\":1805:1814  _nodes[i] */\n      dup2\n      dup2\n      lt\n      tag_95\n      jumpi\n      tag_96\n      tag_76\n      jump\t// in\n    tag_96:\n    tag_95:\n      swap1\n      pop\n      0x20\n      mul\n      add\n      0x20\n      dup2\n      add\n      swap1\n      tag_97\n      swap2\n      swap1\n      tag_98\n      jump\t// in\n    tag_97:\n        /* \"contracts/DemoScoringNodes.sol\":1792:1828  INodeScoring(_nodes[i]).requestScore */\n      0xffffffffffffffffffffffffffffffffffffffff\n      and\n      0x35434170\n        /* \"contracts/DemoScoringNodes.sol\":1829:1838  requestId */\n      dup5\n        /* \"contracts/DemoScoringNodes.sol\":1840:1847  _coordX */\n      dup11\n        /* \"contracts/DemoScoringNodes.sol\":1849:1856  _coordY */\n      dup11\n        /* \"contracts/DemoScoringNodes.sol\":1792:1857  INodeScoring(_nodes[i]).requestScore(requestId, _coordX, _coordY) */\n      mload(0x40)\n      dup5\n      0xffffffff\n      and\n      0xe0\n      shl\n      dup2\n      mstore\n      0x04\n      add\n      tag_99\n      swap4\n      swap3\n      swap2\n      swap1\n      tag_100\n      jump\t// in\n    tag_99:\n      0x00\n      mload(0x40)\n      dup1\n      dup4\n      sub\n      dup2\n      0x00\n      dup8\n      dup1\n      extcodesize\n      iszero\n      dup1\n      iszero\n      tag_101\n      jumpi\n      revert(0x00, 0x00)\n    tag_101:\n      pop\n      gas\n      call\n      iszero\n      dup1\n      iszero\n      tag_103\n      jumpi\n      returndatacopy(0x00, 0x00, returndatasize)\n      revert(0x00, returndatasize)\n    tag_103:\n      pop\n      pop\n      pop\n      pop\n        /* \"contracts/DemoScoringNodes.sol\":1772:1775  i++ */\n      dup1\n      dup1\n      0x01\n      add\n      swap2\n      pop\n      pop\n        /* \"contracts/DemoScoringNodes.sol\":1733:1869  for (uint256 i = 0; i < _nodes.length; i++) {... */\n      jump(tag_92)\n    tag_93:\n      pop\n        /* \"contracts/DemoScoringNodes.sol\":1903:1912  requestId */\n      dup2\n        /* \"contracts/DemoScoringNodes.sol\":1886:1946  ScoringRequested(requestId, _coordX, _coordY, _nodes.length) */\n      0x886bcecf5afd8198eb4189263ae211916adeb68a5bf7e3e5988e9f53446d1bb6\n        /* \"contracts/DemoScoringNodes.sol\":1914:1921  _coordX */\n      dup9\n        /* \"contracts/DemoScoringNodes.sol\":1923:1930  _coordY */\n      dup9\n        /* \"contracts/DemoScoringNodes.sol\":1932:1938  _nodes */\n      dup9\n      dup9\n        /* \"contracts/DemoScoringNodes.sol\":1932:1945  _nodes.length */\n      swap1\n      pop\n        /* \"contracts/DemoScoringNodes.sol\":1886:1946  ScoringRequested(requestId, _coordX, _coordY, _nodes.length) */\n      mload(0x40)\n      tag_104\n      swap4\n      swap3\n      swap2\n      swap1\n      tag_105\n      jump\t// in\n    tag_104:\n      mload(0x40)\n      dup1\n      swap2\n      sub\n      swap1\n      log2\n        /* \"contracts/DemoScoringNodes.sol\":1964:1973  requestId */\n      dup2\n        /* \"contracts/DemoScoringNodes.sol\":1957:1973  return requestId */\n      swap3\n      pop\n      pop\n      pop\n        /* \"contracts/DemoScoringNodes.sol\":1101:1981  function requestNodeScoring(uint256 _coordX, uint256 _coordY, address[] calldata _nodes)... */\n      swap5\n      swap4\n      pop\n      pop\n      pop\n      pop\n      jump\t// out\n        /* \"contracts/DemoScoringNodes.sol\":669:719  mapping(bytes32 => ScoringRequest) public requests */\n    tag_32:\n      mstore(0x20, 0x00)\n      dup1\n      0x00\n      mstore\n      keccak256(0x00, 0x40)\n      0x00\n      swap2\n      pop\n      swap1\n      pop\n      dup1\n      0x00\n      add\n      sload\n      swap1\n      dup1\n      0x01\n      add\n      sload\n      swap1\n      dup1\n      0x05\n      add\n      sload\n      swap1\n      dup1\n      0x06\n      add\n      sload\n      swap1\n      dup1\n      0x07\n      add\n      sload\n      swap1\n      dup1\n      0x08\n      add\n      0x00\n      swap1\n      sload\n      swap1\n      0x0100\n      exp\n      swap1\n      div\n      0xff\n      and\n      swap1\n      pop\n      dup7\n      jump\t// out\n        /* \"contracts/DemoScoringNodes.sol\":4068:4256  function hasNodeResponded(bytes32 _requestId, address _node)... */\n    tag_38:\n        /* \"contracts/DemoScoringNodes.sol\":4179:4183  bool */\n      0x00\n        /* \"contracts/DemoScoringNodes.sol\":4208:4216  requests */\n      0x00\n        /* \"contracts/DemoScoringNodes.sol\":4208:4228  requests[_requestId] */\n      0x00\n        /* \"contracts/DemoScoringNodes.sol\":4217:4227  _requestId */\n      dup5\n        /* \"contracts/DemoScoringNodes.sol\":4208:4228  requests[_requestId] */\n      dup2\n      mstore\n      0x20\n      add\n      swap1\n      dup2\n      mstore\n      0x20\n      add\n      0x00\n      keccak256\n        /* \"contracts/DemoScoringNodes.sol\":4208:4241  requests[_requestId].hasResponded */\n      0x04\n      add\n        /* \"contracts/DemoScoringNodes.sol\":4208:4248  requests[_requestId].hasResponded[_node] */\n      0x00\n        /* \"contracts/DemoScoringNodes.sol\":4242:4247  _node */\n      dup4\n        /* \"contracts/DemoScoringNodes.sol\":4208:4248  requests[_requestId].hasResponded[_node] */\n      0xffffffffffffffffffffffffffffffffffffffff\n      and\n      0xffffffffffffffffffffffffffffffffffffffff\n      and\n      dup2\n      mstore\n      0x20\n      add\n      swap1\n      dup2\n      mstore\n      0x20\n      add\n      0x00\n      keccak256\n      0x00\n      swap1\n      sload\n      swap1\n      0x0100\n      exp\n      swap1\n      div\n      0xff\n      and\n        /* \"contracts/DemoScoringNodes.sol\":4201:4248  return requests[_requestId].hasResponded[_node] */\n      swap1\n      pop\n        /* \"contracts/DemoScoringNodes.sol\":4068:4256  function hasNodeResponded(bytes32 _requestId, address _node)... */\n      swap3\n      swap2\n      pop\n      pop\n      jump\t// out\n        /* \"contracts/DemoScoringNodes.sol\":3879:4060  function getNodeScore(bytes32 _requestId, address _node)... */\n    tag_43:\n        /* \"contracts/DemoScoringNodes.sol\":3986:3993  uint256 */\n      0x00\n        /* \"contracts/DemoScoringNodes.sol\":4018:4026  requests */\n      0x00\n        /* \"contracts/DemoScoringNodes.sol\":4018:4038  requests[_requestId] */\n      0x00\n        /* \"contracts/DemoScoringNodes.sol\":4027:4037  _requestId */\n      dup5\n        /* \"contracts/DemoScoringNodes.sol\":4018:4038  requests[_requestId] */\n      dup2\n      mstore\n      0x20\n      add\n      swap1\n      dup2\n      mstore\n      0x20\n      add\n      0x00\n      keccak256\n        /* \"contracts/DemoScoringNodes.sol\":4018:4045  requests[_requestId].scores */\n      0x03\n      add\n        /* \"contracts/DemoScoringNodes.sol\":4018:4052  requests[_requestId].scores[_node] */\n      0x00\n        /* \"contracts/DemoScoringNodes.sol\":4046:4051  _node */\n      dup4\n        /* \"contracts/DemoScoringNodes.sol\":4018:4052  requests[_requestId].scores[_node] */\n      0xffffffffffffffffffffffffffffffffffffffff\n      and\n      0xffffffffffffffffffffffffffffffffffffffff\n      and\n      dup2\n      mstore\n      0x20\n      add\n      swap1\n      dup2\n      mstore\n      0x20\n      add\n      0x00\n      keccak256\n      sload\n        /* \"contracts/DemoScoringNodes.sol\":4011:4052  return requests[_requestId].scores[_node] */\n      swap1\n      pop\n        /* \"contracts/DemoScoringNodes.sol\":3879:4060  function getNodeScore(bytes32 _requestId, address _node)... */\n      swap3\n      swap2\n      pop\n      pop\n      jump\t// out\n    tag_91:\n      dup3\n      dup1\n      sload\n      dup3\n      dup3\n      sstore\n      swap1\n      0x00\n      mstore\n      keccak256(0x00, 0x20)\n      swap1\n      dup2\n      add\n      swap3\n      dup3\n      iszero\n      tag_108\n      jumpi\n      swap2\n      0x20\n      mul\n      dup3\n      add\n    tag_109:\n      dup3\n      dup2\n      gt\n      iszero\n      tag_110\n      jumpi\n      dup3\n      calldataload\n      0xffffffffffffffffffffffffffffffffffffffff\n      and\n      dup3\n      exp(0x0100, 0x00)\n      dup2\n      sload\n      dup2\n      0xffffffffffffffffffffffffffffffffffffffff\n      mul\n      not\n      and\n      swap1\n      dup4\n      0xffffffffffffffffffffffffffffffffffffffff\n      and\n      mul\n      or\n      swap1\n      sstore\n      pop\n      swap2\n      0x20\n      add\n      swap2\n      swap1\n      0x01\n      add\n      swap1\n      jump(tag_109)\n    tag_110:\n    tag_108:\n      pop\n      swap1\n      pop\n      tag_111\n      swap2\n      swap1\n      tag_112\n      jump\t// in\n    tag_111:\n      pop\n      swap1\n      jump\t// out\n    tag_112:\n    tag_113:\n      dup1\n      dup3\n      gt\n      iszero\n      tag_114\n      jumpi\n      0x00\n      dup2\n      0x00\n      swap1\n      sstore\n      pop\n      0x01\n      add\n      jump(tag_113)\n    tag_114:\n      pop\n      swap1\n      jump\t// out\n        /* \"#utility.yul\":88:205   */\n    tag_116:\n        /* \"#utility.yul\":197:198   */\n      0x00\n        /* \"#utility.yul\":194:195   */\n      0x00\n        /* \"#utility.yul\":187:199   */\n      revert\n        /* \"#utility.yul\":211:328   */\n    tag_117:\n        /* \"#utility.yul\":320:321   */\n      0x00\n        /* \"#utility.yul\":317:318   */\n      0x00\n        /* \"#utility.yul\":310:322   */\n      revert\n        /* \"#utility.yul\":334:411   */\n    tag_118:\n        /* \"#utility.yul\":371:378   */\n      0x00\n        /* \"#utility.yul\":400:405   */\n      dup2\n        /* \"#utility.yul\":389:405   */\n      swap1\n      pop\n        /* \"#utility.yul\":334:411   */\n      swap2\n      swap1\n      pop\n      jump\t// out\n        /* \"#utility.yul\":417:539   */\n    tag_119:\n        /* \"#utility.yul\":490:514   */\n      tag_159\n        /* \"#utility.yul\":508:513   */\n      dup2\n        /* \"#utility.yul\":490:514   */\n      tag_118\n      jump\t// in\n    tag_159:\n        /* \"#utility.yul\":483:488   */\n      dup2\n        /* \"#utility.yul\":480:515   */\n      eq\n        /* \"#utility.yul\":470:533   */\n      tag_160\n      jumpi\n        /* \"#utility.yul\":529:530   */\n      0x00\n        /* \"#utility.yul\":526:527   */\n      0x00\n        /* \"#utility.yul\":519:531   */\n      revert\n        /* \"#utility.yul\":470:533   */\n    tag_160:\n        /* \"#utility.yul\":417:539   */\n      pop\n      jump\t// out\n        /* \"#utility.yul\":545:684   */\n    tag_120:\n        /* \"#utility.yul\":591:596   */\n      0x00\n        /* \"#utility.yul\":629:635   */\n      dup2\n        /* \"#utility.yul\":616:636   */\n      calldataload\n        /* \"#utility.yul\":607:636   */\n      swap1\n      pop\n        /* \"#utility.yul\":645:678   */\n      tag_162\n        /* \"#utility.yul\":672:677   */\n      dup2\n        /* \"#utility.yul\":645:678   */\n      tag_119\n      jump\t// in\n    tag_162:\n        /* \"#utility.yul\":545:684   */\n      swap3\n      swap2\n      pop\n      pop\n      jump\t// out\n        /* \"#utility.yul\":690:1019   */\n    tag_13:\n        /* \"#utility.yul\":749:755   */\n      0x00\n        /* \"#utility.yul\":798:800   */\n      0x20\n        /* \"#utility.yul\":786:795   */\n      dup3\n        /* \"#utility.yul\":777:784   */\n      dup5\n        /* \"#utility.yul\":773:796   */\n      sub\n        /* \"#utility.yul\":769:801   */\n      slt\n        /* \"#utility.yul\":766:885   */\n      iszero\n      tag_164\n      jumpi\n        /* \"#utility.yul\":804:883   */\n      tag_165\n      tag_116\n      jump\t// in\n    tag_165:\n        /* \"#utility.yul\":766:885   */\n    tag_164:\n        /* \"#utility.yul\":924:925   */\n      0x00\n        /* \"#utility.yul\":949:1002   */\n      tag_166\n        /* \"#utility.yul\":994:1001   */\n      dup5\n        /* \"#utility.yul\":985:991   */\n      dup3\n        /* \"#utility.yul\":974:983   */\n      dup6\n        /* \"#utility.yul\":970:992   */\n      add\n        /* \"#utility.yul\":949:1002   */\n      tag_120\n      jump\t// in\n    tag_166:\n        /* \"#utility.yul\":939:1002   */\n      swap2\n      pop\n        /* \"#utility.yul\":895:1012   */\n      pop\n        /* \"#utility.yul\":690:1019   */\n      swap3\n      swap2\n      pop\n      pop\n      jump\t// out\n        /* \"#utility.yul\":1025:1102   */\n    tag_121:\n        /* \"#utility.yul\":1062:1069   */\n      0x00\n        /* \"#utility.yul\":1091:1096   */\n      dup2\n        /* \"#utility.yul\":1080:1096   */\n      swap1\n      pop\n        /* \"#utility.yul\":1025:1102   */\n      swap2\n      swap1\n      pop\n      jump\t// out\n        /* \"#utility.yul\":1108:1226   */\n    tag_122:\n        /* \"#utility.yul\":1195:1219   */\n      tag_169\n        /* \"#utility.yul\":1213:1218   */\n      dup2\n        /* \"#utility.yul\":1195:1219   */\n      tag_121\n      jump\t// in\n    tag_169:\n        /* \"#utility.yul\":1190:1193   */\n      dup3\n        /* \"#utility.yul\":1183:1220   */\n      mstore\n        /* \"#utility.yul\":1108:1226   */\n      pop\n      pop\n      jump\t// out\n        /* \"#utility.yul\":1232:1322   */\n    tag_123:\n        /* \"#utility.yul\":1266:1273   */\n      0x00\n        /* \"#utility.yul\":1309:1314   */\n      dup2\n        /* \"#utility.yul\":1302:1315   */\n      iszero\n        /* \"#utility.yul\":1295:1316   */\n      iszero\n        /* \"#utility.yul\":1284:1316   */\n      swap1\n      pop\n        /* \"#utility.yul\":1232:1322   */\n      swap2\n      swap1\n      pop\n      jump\t// out\n        /* \"#utility.yul\":1328:1437   */\n    tag_124:\n        /* \"#utility.yul\":1409:1430   */\n      tag_172\n        /* \"#utility.yul\":1424:1429   */\n      dup2\n        /* \"#utility.yul\":1409:1430   */\n      tag_123\n      jump\t// in\n    tag_172:\n        /* \"#utility.yul\":1404:1407   */\n      dup3\n        /* \"#utility.yul\":1397:1431   */\n      mstore\n        /* \"#utility.yul\":1328:1437   */\n      pop\n      pop\n      jump\t// out\n        /* \"#utility.yul\":1443:1984   */\n    tag_16:\n        /* \"#utility.yul\":1614:1618   */\n      0x00\n        /* \"#utility.yul\":1652:1655   */\n      0x80\n        /* \"#utility.yul\":1641:1650   */\n      dup3\n        /* \"#utility.yul\":1637:1656   */\n      add\n        /* \"#utility.yul\":1629:1656   */\n      swap1\n      pop\n        /* \"#utility.yul\":1666:1737   */\n      tag_174\n        /* \"#utility.yul\":1734:1735   */\n      0x00\n        /* \"#utility.yul\":1723:1732   */\n      dup4\n        /* \"#utility.yul\":1719:1736   */\n      add\n        /* \"#utility.yul\":1710:1716   */\n      dup8\n        /* \"#utility.yul\":1666:1737   */\n      tag_122\n      jump\t// in\n    tag_174:\n        /* \"#utility.yul\":1747:1819   */\n      tag_175\n        /* \"#utility.yul\":1815:1817   */\n      0x20\n        /* \"#utility.yul\":1804:1813   */\n      dup4\n        /* \"#utility.yul\":1800:1818   */\n      add\n        /* \"#utility.yul\":1791:1797   */\n      dup7\n        /* \"#utility.yul\":1747:1819   */\n      tag_122\n      jump\t// in\n    tag_175:\n        /* \"#utility.yul\":1829:1901   */\n      tag_176\n        /* \"#utility.yul\":1897:1899   */\n      0x40\n        /* \"#utility.yul\":1886:1895   */\n      dup4\n        /* \"#utility.yul\":1882:1900   */\n      add\n        /* \"#utility.yul\":1873:1879   */\n      dup6\n        /* \"#utility.yul\":1829:1901   */\n      tag_122\n      jump\t// in\n    tag_176:\n        /* \"#utility.yul\":1911:1977   */\n      tag_177\n        /* \"#utility.yul\":1973:1975   */\n      0x60\n        /* \"#utility.yul\":1962:1971   */\n      dup4\n        /* \"#utility.yul\":1958:1976   */\n      add\n        /* \"#utility.yul\":1949:1955   */\n      dup5\n        /* \"#utility.yul\":1911:1977   */\n      tag_124\n      jump\t// in\n    tag_177:\n        /* \"#utility.yul\":1443:1984   */\n      swap6\n      swap5\n      pop\n      pop\n      pop\n      pop\n      pop\n      jump\t// out\n        /* \"#utility.yul\":1990:2112   */\n    tag_125:\n        /* \"#utility.yul\":2063:2087   */\n      tag_179\n        /* \"#utility.yul\":2081:2086   */\n      dup2\n        /* \"#utility.yul\":2063:2087   */\n      tag_121\n      jump\t// in\n    tag_179:\n        /* \"#utility.yul\":2056:2061   */\n      dup2\n        /* \"#utility.yul\":2053:2088   */\n      eq\n        /* \"#utility.yul\":2043:2106   */\n      tag_180\n      jumpi\n        /* \"#utility.yul\":2102:2103   */\n      0x00\n        /* \"#utility.yul\":2099:2100   */\n      0x00\n        /* \"#utility.yul\":2092:2104   */\n      revert\n        /* \"#utility.yul\":2043:2106   */\n    tag_180:\n        /* \"#utility.yul\":1990:2112   */\n      pop\n      jump\t// out\n        /* \"#utility.yul\":2118:2257   */\n    tag_126:\n        /* \"#utility.yul\":2164:2169   */\n      0x00\n        /* \"#utility.yul\":2202:2208   */\n      dup2\n        /* \"#utility.yul\":2189:2209   */\n      calldataload\n        /* \"#utility.yul\":2180:2209   */\n      swap1\n      pop\n        /* \"#utility.yul\":2218:2251   */\n      tag_182\n        /* \"#utility.yul\":2245:2250   */\n      dup2\n        /* \"#utility.yul\":2218:2251   */\n      tag_125\n      jump\t// in\n    tag_182:\n        /* \"#utility.yul\":2118:2257   */\n      swap3\n      swap2\n      pop\n      pop\n      jump\t// out\n        /* \"#utility.yul\":2263:2737   */\n    tag_19:\n        /* \"#utility.yul\":2331:2337   */\n      0x00\n        /* \"#utility.yul\":2339:2345   */\n      0x00\n        /* \"#utility.yul\":2388:2390   */\n      0x40\n        /* \"#utility.yul\":2376:2385   */\n      dup4\n        /* \"#utility.yul\":2367:2374   */\n      dup6\n        /* \"#utility.yul\":2363:2386   */\n      sub\n        /* \"#utility.yul\":2359:2391   */\n      slt\n        /* \"#utility.yul\":2356:2475   */\n      iszero\n      tag_184\n      jumpi\n        /* \"#utility.yul\":2394:2473   */\n      tag_185\n      tag_116\n      jump\t// in\n    tag_185:\n        /* \"#utility.yul\":2356:2475   */\n    tag_184:\n        /* \"#utility.yul\":2514:2515   */\n      0x00\n        /* \"#utility.yul\":2539:2592   */\n      tag_186\n        /* \"#utility.yul\":2584:2591   */\n      dup6\n        /* \"#utility.yul\":2575:2581   */\n      dup3\n        /* \"#utility.yul\":2564:2573   */\n      dup7\n        /* \"#utility.yul\":2560:2582   */\n      add\n        /* \"#utility.yul\":2539:2592   */\n      tag_120\n      jump\t// in\n    tag_186:\n        /* \"#utility.yul\":2529:2592   */\n      swap3\n      pop\n        /* \"#utility.yul\":2485:2602   */\n      pop\n        /* \"#utility.yul\":2641:2643   */\n      0x20\n        /* \"#utility.yul\":2667:2720   */\n      tag_187\n        /* \"#utility.yul\":2712:2719   */\n      dup6\n        /* \"#utility.yul\":2703:2709   */\n      dup3\n        /* \"#utility.yul\":2692:2701   */\n      dup7\n        /* \"#utility.yul\":2688:2710   */\n      add\n        /* \"#utility.yul\":2667:2720   */\n      tag_126\n      jump\t// in\n    tag_187:\n        /* \"#utility.yul\":2657:2720   */\n      swap2\n      pop\n        /* \"#utility.yul\":2612:2730   */\n      pop\n        /* \"#utility.yul\":2263:2737   */\n      swap3\n      pop\n      swap3\n      swap1\n      pop\n      jump\t// out\n        /* \"#utility.yul\":2743:2860   */\n    tag_127:\n        /* \"#utility.yul\":2852:2853   */\n      0x00\n        /* \"#utility.yul\":2849:2850   */\n      0x00\n        /* \"#utility.yul\":2842:2854   */\n      revert\n        /* \"#utility.yul\":2866:2983   */\n    tag_128:\n        /* \"#utility.yul\":2975:2976   */\n      0x00\n        /* \"#utility.yul\":2972:2973   */\n      0x00\n        /* \"#utility.yul\":2965:2977   */\n      revert\n        /* \"#utility.yul\":2989:3106   */\n    tag_129:\n        /* \"#utility.yul\":3098:3099   */\n      0x00\n        /* \"#utility.yul\":3095:3096   */\n      0x00\n        /* \"#utility.yul\":3088:3100   */\n      revert\n        /* \"#utility.yul\":3129:3697   */\n    tag_130:\n        /* \"#utility.yul\":3202:3210   */\n      0x00\n        /* \"#utility.yul\":3212:3218   */\n      0x00\n        /* \"#utility.yul\":3262:3265   */\n      dup4\n        /* \"#utility.yul\":3255:3259   */\n      0x1f\n        /* \"#utility.yul\":3247:3253   */\n      dup5\n        /* \"#utility.yul\":3243:3260   */\n      add\n        /* \"#utility.yul\":3239:3266   */\n      slt\n        /* \"#utility.yul\":3229:3351   */\n      tag_192\n      jumpi\n        /* \"#utility.yul\":3270:3349   */\n      tag_193\n      tag_127\n      jump\t// in\n    tag_193:\n        /* \"#utility.yul\":3229:3351   */\n    tag_192:\n        /* \"#utility.yul\":3383:3389   */\n      dup3\n        /* \"#utility.yul\":3370:3390   */\n      calldataload\n        /* \"#utility.yul\":3360:3390   */\n      swap1\n      pop\n        /* \"#utility.yul\":3413:3431   */\n      0xffffffffffffffff\n        /* \"#utility.yul\":3405:3411   */\n      dup2\n        /* \"#utility.yul\":3402:3432   */\n      gt\n        /* \"#utility.yul\":3399:3516   */\n      iszero\n      tag_194\n      jumpi\n        /* \"#utility.yul\":3435:3514   */\n      tag_195\n      tag_128\n      jump\t// in\n    tag_195:\n        /* \"#utility.yul\":3399:3516   */\n    tag_194:\n        /* \"#utility.yul\":3549:3553   */\n      0x20\n        /* \"#utility.yul\":3541:3547   */\n      dup4\n        /* \"#utility.yul\":3537:3554   */\n      add\n        /* \"#utility.yul\":3525:3554   */\n      swap2\n      pop\n        /* \"#utility.yul\":3603:3606   */\n      dup4\n        /* \"#utility.yul\":3595:3599   */\n      0x20\n        /* \"#utility.yul\":3587:3593   */\n      dup3\n        /* \"#utility.yul\":3583:3600   */\n      mul\n        /* \"#utility.yul\":3573:3581   */\n      dup4\n        /* \"#utility.yul\":3569:3601   */\n      add\n        /* \"#utility.yul\":3566:3607   */\n      gt\n        /* \"#utility.yul\":3563:3691   */\n      iszero\n      tag_196\n      jumpi\n        /* \"#utility.yul\":3610:3689   */\n      tag_197\n      tag_129\n      jump\t// in\n    tag_197:\n        /* \"#utility.yul\":3563:3691   */\n    tag_196:\n        /* \"#utility.yul\":3129:3697   */\n      swap3\n      pop\n      swap3\n      swap1\n      pop\n      jump\t// out\n        /* \"#utility.yul\":3703:4552   */\n    tag_26:\n        /* \"#utility.yul\":3807:3813   */\n      0x00\n        /* \"#utility.yul\":3815:3821   */\n      0x00\n        /* \"#utility.yul\":3823:3829   */\n      0x00\n        /* \"#utility.yul\":3831:3837   */\n      0x00\n        /* \"#utility.yul\":3880:3882   */\n      0x60\n        /* \"#utility.yul\":3868:3877   */\n      dup6\n        /* \"#utility.yul\":3859:3866   */\n      dup8\n        /* \"#utility.yul\":3855:3878   */\n      sub\n        /* \"#utility.yul\":3851:3883   */\n      slt\n        /* \"#utility.yul\":3848:3967   */\n      iszero\n      tag_199\n      jumpi\n        /* \"#utility.yul\":3886:3965   */\n      tag_200\n      tag_116\n      jump\t// in\n    tag_200:\n        /* \"#utility.yul\":3848:3967   */\n    tag_199:\n        /* \"#utility.yul\":4006:4007   */\n      0x00\n        /* \"#utility.yul\":4031:4084   */\n      tag_201\n        /* \"#utility.yul\":4076:4083   */\n      dup8\n        /* \"#utility.yul\":4067:4073   */\n      dup3\n        /* \"#utility.yul\":4056:4065   */\n      dup9\n        /* \"#utility.yul\":4052:4074   */\n      add\n        /* \"#utility.yul\":4031:4084   */\n      tag_126\n      jump\t// in\n    tag_201:\n        /* \"#utility.yul\":4021:4084   */\n      swap5\n      pop\n        /* \"#utility.yul\":3977:4094   */\n      pop\n        /* \"#utility.yul\":4133:4135   */\n      0x20\n        /* \"#utility.yul\":4159:4212   */\n      tag_202\n        /* \"#utility.yul\":4204:4211   */\n      dup8\n        /* \"#utility.yul\":4195:4201   */\n      dup3\n        /* \"#utility.yul\":4184:4193   */\n      dup9\n        /* \"#utility.yul\":4180:4202   */\n      add\n        /* \"#utility.yul\":4159:4212   */\n      tag_126\n      jump\t// in\n    tag_202:\n        /* \"#utility.yul\":4149:4212   */\n      swap4\n      pop\n        /* \"#utility.yul\":4104:4222   */\n      pop\n        /* \"#utility.yul\":4289:4291   */\n      0x40\n        /* \"#utility.yul\":4278:4287   */\n      dup6\n        /* \"#utility.yul\":4274:4292   */\n      add\n        /* \"#utility.yul\":4261:4293   */\n      calldataload\n        /* \"#utility.yul\":4320:4338   */\n      0xffffffffffffffff\n        /* \"#utility.yul\":4312:4318   */\n      dup2\n        /* \"#utility.yul\":4309:4339   */\n      gt\n        /* \"#utility.yul\":4306:4423   */\n      iszero\n      tag_203\n      jumpi\n        /* \"#utility.yul\":4342:4421   */\n      tag_204\n      tag_117\n      jump\t// in\n    tag_204:\n        /* \"#utility.yul\":4306:4423   */\n    tag_203:\n        /* \"#utility.yul\":4455:4535   */\n      tag_205\n        /* \"#utility.yul\":4527:4534   */\n      dup8\n        /* \"#utility.yul\":4518:4524   */\n      dup3\n        /* \"#utility.yul\":4507:4516   */\n      dup9\n        /* \"#utility.yul\":4503:4525   */\n      add\n        /* \"#utility.yul\":4455:4535   */\n      tag_130\n      jump\t// in\n    tag_205:\n        /* \"#utility.yul\":4437:4535   */\n      swap3\n      pop\n      swap3\n      pop\n        /* \"#utility.yul\":4232:4545   */\n      pop\n        /* \"#utility.yul\":3703:4552   */\n      swap3\n      swap6\n      swap2\n      swap5\n      pop\n      swap3\n      pop\n      jump\t// out\n        /* \"#utility.yul\":4558:4676   */\n    tag_131:\n        /* \"#utility.yul\":4645:4669   */\n      tag_207\n        /* \"#utility.yul\":4663:4668   */\n      dup2\n        /* \"#utility.yul\":4645:4669   */\n      tag_118\n      jump\t// in\n    tag_207:\n        /* \"#utility.yul\":4640:4643   */\n      dup3\n        /* \"#utility.yul\":4633:4670   */\n      mstore\n        /* \"#utility.yul\":4558:4676   */\n      pop\n      pop\n      jump\t// out\n        /* \"#utility.yul\":4682:4904   */\n    tag_29:\n        /* \"#utility.yul\":4775:4779   */\n      0x00\n        /* \"#utility.yul\":4813:4815   */\n      0x20\n        /* \"#utility.yul\":4802:4811   */\n      dup3\n        /* \"#utility.yul\":4798:4816   */\n      add\n        /* \"#utility.yul\":4790:4816   */\n      swap1\n      pop\n        /* \"#utility.yul\":4826:4897   */\n      tag_209\n        /* \"#utility.yul\":4894:4895   */\n      0x00\n        /* \"#utility.yul\":4883:4892   */\n      dup4\n        /* \"#utility.yul\":4879:4896   */\n      add\n        /* \"#utility.yul\":4870:4876   */\n      dup5\n        /* \"#utility.yul\":4826:4897   */\n      tag_131\n      jump\t// in\n    tag_209:\n        /* \"#utility.yul\":4682:4904   */\n      swap3\n      swap2\n      pop\n      pop\n      jump\t// out\n        /* \"#utility.yul\":4910:5673   */\n    tag_34:\n        /* \"#utility.yul\":5137:5141   */\n      0x00\n        /* \"#utility.yul\":5175:5178   */\n      0xc0\n        /* \"#utility.yul\":5164:5173   */\n      dup3\n        /* \"#utility.yul\":5160:5179   */\n      add\n        /* \"#utility.yul\":5152:5179   */\n      swap1\n      pop\n        /* \"#utility.yul\":5189:5260   */\n      tag_211\n        /* \"#utility.yul\":5257:5258   */\n      0x00\n        /* \"#utility.yul\":5246:5255   */\n      dup4\n        /* \"#utility.yul\":5242:5259   */\n      add\n        /* \"#utility.yul\":5233:5239   */\n      dup10\n        /* \"#utility.yul\":5189:5260   */\n      tag_122\n      jump\t// in\n    tag_211:\n        /* \"#utility.yul\":5270:5342   */\n      tag_212\n        /* \"#utility.yul\":5338:5340   */\n      0x20\n        /* \"#utility.yul\":5327:5336   */\n      dup4\n        /* \"#utility.yul\":5323:5341   */\n      add\n        /* \"#utility.yul\":5314:5320   */\n      dup9\n        /* \"#utility.yul\":5270:5342   */\n      tag_122\n      jump\t// in\n    tag_212:\n        /* \"#utility.yul\":5352:5424   */\n      tag_213\n        /* \"#utility.yul\":5420:5422   */\n      0x40\n        /* \"#utility.yul\":5409:5418   */\n      dup4\n        /* \"#utility.yul\":5405:5423   */\n      add\n        /* \"#utility.yul\":5396:5402   */\n      dup8\n        /* \"#utility.yul\":5352:5424   */\n      tag_122\n      jump\t// in\n    tag_213:\n        /* \"#utility.yul\":5434:5506   */\n      tag_214\n        /* \"#utility.yul\":5502:5504   */\n      0x60\n        /* \"#utility.yul\":5491:5500   */\n      dup4\n        /* \"#utility.yul\":5487:5505   */\n      add\n        /* \"#utility.yul\":5478:5484   */\n      dup7\n        /* \"#utility.yul\":5434:5506   */\n      tag_122\n      jump\t// in\n    tag_214:\n        /* \"#utility.yul\":5516:5589   */\n      tag_215\n        /* \"#utility.yul\":5584:5587   */\n      0x80\n        /* \"#utility.yul\":5573:5582   */\n      dup4\n        /* \"#utility.yul\":5569:5588   */\n      add\n        /* \"#utility.yul\":5560:5566   */\n      dup6\n        /* \"#utility.yul\":5516:5589   */\n      tag_122\n      jump\t// in\n    tag_215:\n        /* \"#utility.yul\":5599:5666   */\n      tag_216\n        /* \"#utility.yul\":5661:5664   */\n      0xa0\n        /* \"#utility.yul\":5650:5659   */\n      dup4\n        /* \"#utility.yul\":5646:5665   */\n      add\n        /* \"#utility.yul\":5637:5643   */\n      dup5\n        /* \"#utility.yul\":5599:5666   */\n      tag_124\n      jump\t// in\n    tag_216:\n        /* \"#utility.yul\":4910:5673   */\n      swap8\n      swap7\n      pop\n      pop\n      pop\n      pop\n      pop\n      pop\n      pop\n      jump\t// out\n        /* \"#utility.yul\":5679:5805   */\n    tag_132:\n        /* \"#utility.yul\":5716:5723   */\n      0x00\n        /* \"#utility.yul\":5756:5798   */\n      0xffffffffffffffffffffffffffffffffffffffff\n        /* \"#utility.yul\":5749:5754   */\n      dup3\n        /* \"#utility.yul\":5745:5799   */\n      and\n        /* \"#utility.yul\":5734:5799   */\n      swap1\n      pop\n        /* \"#utility.yul\":5679:5805   */\n      swap2\n      swap1\n      pop\n      jump\t// out\n        /* \"#utility.yul\":5811:5907   */\n    tag_133:\n        /* \"#utility.yul\":5848:5855   */\n      0x00\n        /* \"#utility.yul\":5877:5901   */\n      tag_219\n        /* \"#utility.yul\":5895:5900   */\n      dup3\n        /* \"#utility.yul\":5877:5901   */\n      tag_132\n      jump\t// in\n    tag_219:\n        /* \"#utility.yul\":5866:5901   */\n      swap1\n      pop\n        /* \"#utility.yul\":5811:5907   */\n      swap2\n      swap1\n      pop\n      jump\t// out\n        /* \"#utility.yul\":5913:6035   */\n    tag_134:\n        /* \"#utility.yul\":5986:6010   */\n      tag_221\n        /* \"#utility.yul\":6004:6009   */\n      dup2\n        /* \"#utility.yul\":5986:6010   */\n      tag_133\n      jump\t// in\n    tag_221:\n        /* \"#utility.yul\":5979:5984   */\n      dup2\n        /* \"#utility.yul\":5976:6011   */\n      eq\n        /* \"#utility.yul\":5966:6029   */\n      tag_222\n      jumpi\n        /* \"#utility.yul\":6025:6026   */\n      0x00\n        /* \"#utility.yul\":6022:6023   */\n      0x00\n        /* \"#utility.yul\":6015:6027   */\n      revert\n        /* \"#utility.yul\":5966:6029   */\n    tag_222:\n        /* \"#utility.yul\":5913:6035   */\n      pop\n      jump\t// out\n        /* \"#utility.yul\":6041:6180   */\n    tag_135:\n        /* \"#utility.yul\":6087:6092   */\n      0x00\n        /* \"#utility.yul\":6125:6131   */\n      dup2\n        /* \"#utility.yul\":6112:6132   */\n      calldataload\n        /* \"#utility.yul\":6103:6132   */\n      swap1\n      pop\n        /* \"#utility.yul\":6141:6174   */\n      tag_224\n        /* \"#utility.yul\":6168:6173   */\n      dup2\n        /* \"#utility.yul\":6141:6174   */\n      tag_134\n      jump\t// in\n    tag_224:\n        /* \"#utility.yul\":6041:6180   */\n      swap3\n      swap2\n      pop\n      pop\n      jump\t// out\n        /* \"#utility.yul\":6186:6660   */\n    tag_37:\n        /* \"#utility.yul\":6254:6260   */\n      0x00\n        /* \"#utility.yul\":6262:6268   */\n      0x00\n        /* \"#utility.yul\":6311:6313   */\n      0x40\n        /* \"#utility.yul\":6299:6308   */\n      dup4\n        /* \"#utility.yul\":6290:6297   */\n      dup6\n        /* \"#utility.yul\":6286:6309   */\n      sub\n        /* \"#utility.yul\":6282:6314   */\n      slt\n        /* \"#utility.yul\":6279:6398   */\n      iszero\n      tag_226\n      jumpi\n        /* \"#utility.yul\":6317:6396   */\n      tag_227\n      tag_116\n      jump\t// in\n    tag_227:\n        /* \"#utility.yul\":6279:6398   */\n    tag_226:\n        /* \"#utility.yul\":6437:6438   */\n      0x00\n        /* \"#utility.yul\":6462:6515   */\n      tag_228\n        /* \"#utility.yul\":6507:6514   */\n      dup6\n        /* \"#utility.yul\":6498:6504   */\n      dup3\n        /* \"#utility.yul\":6487:6496   */\n      dup7\n        /* \"#utility.yul\":6483:6505   */\n      add\n        /* \"#utility.yul\":6462:6515   */\n      tag_120\n      jump\t// in\n    tag_228:\n        /* \"#utility.yul\":6452:6515   */\n      swap3\n      pop\n        /* \"#utility.yul\":6408:6525   */\n      pop\n        /* \"#utility.yul\":6564:6566   */\n      0x20\n        /* \"#utility.yul\":6590:6643   */\n      tag_229\n        /* \"#utility.yul\":6635:6642   */\n      dup6\n        /* \"#utility.yul\":6626:6632   */\n      dup3\n        /* \"#utility.yul\":6615:6624   */\n      dup7\n        /* \"#utility.yul\":6611:6633   */\n      add\n        /* \"#utility.yul\":6590:6643   */\n      tag_135\n      jump\t// in\n    tag_229:\n        /* \"#utility.yul\":6580:6643   */\n      swap2\n      pop\n        /* \"#utility.yul\":6535:6653   */\n      pop\n        /* \"#utility.yul\":6186:6660   */\n      swap3\n      pop\n      swap3\n      swap1\n      pop\n      jump\t// out\n        /* \"#utility.yul\":6666:6876   */\n    tag_40:\n        /* \"#utility.yul\":6753:6757   */\n      0x00\n        /* \"#utility.yul\":6791:6793   */\n      0x20\n        /* \"#utility.yul\":6780:6789   */\n      dup3\n        /* \"#utility.yul\":6776:6794   */\n      add\n        /* \"#utility.yul\":6768:6794   */\n      swap1\n      pop\n        /* \"#utility.yul\":6804:6869   */\n      tag_231\n        /* \"#utility.yul\":6866:6867   */\n      0x00\n        /* \"#utility.yul\":6855:6864   */\n      dup4\n        /* \"#utility.yul\":6851:6868   */\n      add\n        /* \"#utility.yul\":6842:6848   */\n      dup5\n        /* \"#utility.yul\":6804:6869   */\n      tag_124\n      jump\t// in\n    tag_231:\n        /* \"#utility.yul\":6666:6876   */\n      swap3\n      swap2\n      pop\n      pop\n      jump\t// out\n        /* \"#utility.yul\":6882:7104   */\n    tag_45:\n        /* \"#utility.yul\":6975:6979   */\n      0x00\n        /* \"#utility.yul\":7013:7015   */\n      0x20\n        /* \"#utility.yul\":7002:7011   */\n      dup3\n        /* \"#utility.yul\":6998:7016   */\n      add\n        /* \"#utility.yul\":6990:7016   */\n      swap1\n      pop\n        /* \"#utility.yul\":7026:7097   */\n      tag_233\n        /* \"#utility.yul\":7094:7095   */\n      0x00\n        /* \"#utility.yul\":7083:7092   */\n      dup4\n        /* \"#utility.yul\":7079:7096   */\n      add\n        /* \"#utility.yul\":7070:7076   */\n      dup5\n        /* \"#utility.yul\":7026:7097   */\n      tag_122\n      jump\t// in\n    tag_233:\n        /* \"#utility.yul\":6882:7104   */\n      swap3\n      swap2\n      pop\n      pop\n      jump\t// out\n        /* \"#utility.yul\":7110:7279   */\n    tag_136:\n        /* \"#utility.yul\":7194:7205   */\n      0x00\n        /* \"#utility.yul\":7228:7234   */\n      dup3\n        /* \"#utility.yul\":7223:7226   */\n      dup3\n        /* \"#utility.yul\":7216:7235   */\n      mstore\n        /* \"#utility.yul\":7268:7272   */\n      0x20\n        /* \"#utility.yul\":7263:7266   */\n      dup3\n        /* \"#utility.yul\":7259:7273   */\n      add\n        /* \"#utility.yul\":7244:7273   */\n      swap1\n      pop\n        /* \"#utility.yul\":7110:7279   */\n      swap3\n      swap2\n      pop\n      pop\n      jump\t// out\n        /* \"#utility.yul\":7285:7453   */\n    tag_137:\n        /* \"#utility.yul\":7425:7445   */\n      0x496e76616c696420726571756573742049440000000000000000000000000000\n        /* \"#utility.yul\":7421:7422   */\n      0x00\n        /* \"#utility.yul\":7413:7419   */\n      dup3\n        /* \"#utility.yul\":7409:7423   */\n      add\n        /* \"#utility.yul\":7402:7446   */\n      mstore\n        /* \"#utility.yul\":7285:7453   */\n      pop\n      jump\t// out\n        /* \"#utility.yul\":7459:7825   */\n    tag_138:\n        /* \"#utility.yul\":7601:7604   */\n      0x00\n        /* \"#utility.yul\":7622:7689   */\n      tag_237\n        /* \"#utility.yul\":7686:7688   */\n      0x12\n        /* \"#utility.yul\":7681:7684   */\n      dup4\n        /* \"#utility.yul\":7622:7689   */\n      tag_136\n      jump\t// in\n    tag_237:\n        /* \"#utility.yul\":7615:7689   */\n      swap2\n      pop\n        /* \"#utility.yul\":7698:7791   */\n      tag_238\n        /* \"#utility.yul\":7787:7790   */\n      dup3\n        /* \"#utility.yul\":7698:7791   */\n      tag_137\n      jump\t// in\n    tag_238:\n        /* \"#utility.yul\":7816:7818   */\n      0x20\n        /* \"#utility.yul\":7811:7814   */\n      dup3\n        /* \"#utility.yul\":7807:7819   */\n      add\n        /* \"#utility.yul\":7800:7819   */\n      swap1\n      pop\n        /* \"#utility.yul\":7459:7825   */\n      swap2\n      swap1\n      pop\n      jump\t// out\n        /* \"#utility.yul\":7831:8250   */\n    tag_50:\n        /* \"#utility.yul\":7997:8001   */\n      0x00\n        /* \"#utility.yul\":8035:8037   */\n      0x20\n        /* \"#utility.yul\":8024:8033   */\n      dup3\n        /* \"#utility.yul\":8020:8038   */\n      add\n        /* \"#utility.yul\":8012:8038   */\n      swap1\n      pop\n        /* \"#utility.yul\":8084:8093   */\n      dup2\n        /* \"#utility.yul\":8078:8082   */\n      dup2\n        /* \"#utility.yul\":8074:8094   */\n      sub\n        /* \"#utility.yul\":8070:8071   */\n      0x00\n        /* \"#utility.yul\":8059:8068   */\n      dup4\n        /* \"#utility.yul\":8055:8072   */\n      add\n        /* \"#utility.yul\":8048:8095   */\n      mstore\n        /* \"#utility.yul\":8112:8243   */\n      tag_240\n        /* \"#utility.yul\":8238:8242   */\n      dup2\n        /* \"#utility.yul\":8112:8243   */\n      tag_138\n      jump\t// in\n    tag_240:\n        /* \"#utility.yul\":8104:8243   */\n      swap1\n      pop\n        /* \"#utility.yul\":7831:8250   */\n      swap2\n      swap1\n      pop\n      jump\t// out\n        /* \"#utility.yul\":8256:8428   */\n    tag_139:\n        /* \"#utility.yul\":8396:8420   */\n      0x4e6f646520616c726561647920726573706f6e64656400000000000000000000\n        /* \"#utility.yul\":8392:8393   */\n      0x00\n        /* \"#utility.yul\":8384:8390   */\n      dup3\n        /* \"#utility.yul\":8380:8394   */\n      add\n        /* \"#utility.yul\":8373:8421   */\n      mstore\n        /* \"#utility.yul\":8256:8428   */\n      pop\n      jump\t// out\n        /* \"#utility.yul\":8434:8800   */\n    tag_140:\n        /* \"#utility.yul\":8576:8579   */\n      0x00\n        /* \"#utility.yul\":8597:8664   */\n      tag_243\n        /* \"#utility.yul\":8661:8663   */\n      0x16\n        /* \"#utility.yul\":8656:8659   */\n      dup4\n        /* \"#utility.yul\":8597:8664   */\n      tag_136\n      jump\t// in\n    tag_243:\n        /* \"#utility.yul\":8590:8664   */\n      swap2\n      pop\n        /* \"#utility.yul\":8673:8766   */\n      tag_244\n        /* \"#utility.yul\":8762:8765   */\n      dup3\n        /* \"#utility.yul\":8673:8766   */\n      tag_139\n      jump\t// in\n    tag_244:\n        /* \"#utility.yul\":8791:8793   */\n      0x20\n        /* \"#utility.yul\":8786:8789   */\n      dup3\n        /* \"#utility.yul\":8782:8794   */\n      add\n        /* \"#utility.yul\":8775:8794   */\n      swap1\n      pop\n        /* \"#utility.yul\":8434:8800   */\n      swap2\n      swap1\n      pop\n      jump\t// out\n        /* \"#utility.yul\":8806:9225   */\n    tag_53:\n        /* \"#utility.yul\":8972:8976   */\n      0x00\n        /* \"#utility.yul\":9010:9012   */\n      0x20\n        /* \"#utility.yul\":8999:9008   */\n      dup3\n        /* \"#utility.yul\":8995:9013   */\n      add\n        /* \"#utility.yul\":8987:9013   */\n      swap1\n      pop\n        /* \"#utility.yul\":9059:9068   */\n      dup2\n        /* \"#utility.yul\":9053:9057   */\n      dup2\n        /* \"#utility.yul\":9049:9069   */\n      sub\n        /* \"#utility.yul\":9045:9046   */\n      0x00\n        /* \"#utility.yul\":9034:9043   */\n      dup4\n        /* \"#utility.yul\":9030:9047   */\n      add\n        /* \"#utility.yul\":9023:9070   */\n      mstore\n        /* \"#utility.yul\":9087:9218   */\n      tag_246\n        /* \"#utility.yul\":9213:9217   */\n      dup2\n        /* \"#utility.yul\":9087:9218   */\n      tag_140\n      jump\t// in\n    tag_246:\n        /* \"#utility.yul\":9079:9218   */\n      swap1\n      pop\n        /* \"#utility.yul\":8806:9225   */\n      swap2\n      swap1\n      pop\n      jump\t// out\n        /* \"#utility.yul\":9231:9406   */\n    tag_141:\n        /* \"#utility.yul\":9371:9398   */\n      0x5265717565737420616c726561647920636f6d706c6574656400000000000000\n        /* \"#utility.yul\":9367:9368   */\n      0x00\n        /* \"#utility.yul\":9359:9365   */\n      dup3\n        /* \"#utility.yul\":9355:9369   */\n      add\n        /* \"#utility.yul\":9348:9399   */\n      mstore\n        /* \"#utility.yul\":9231:9406   */\n      pop\n      jump\t// out\n        /* \"#utility.yul\":9412:9778   */\n    tag_142:\n        /* \"#utility.yul\":9554:9557   */\n      0x00\n        /* \"#utility.yul\":9575:9642   */\n      tag_249\n        /* \"#utility.yul\":9639:9641   */\n      0x19\n        /* \"#utility.yul\":9634:9637   */\n      dup4\n        /* \"#utility.yul\":9575:9642   */\n      tag_136\n      jump\t// in\n    tag_249:\n        /* \"#utility.yul\":9568:9642   */\n      swap2\n      pop\n        /* \"#utility.yul\":9651:9744   */\n      tag_250\n        /* \"#utility.yul\":9740:9743   */\n      dup3\n        /* \"#utility.yul\":9651:9744   */\n      tag_141\n      jump\t// in\n    tag_250:\n        /* \"#utility.yul\":9769:9771   */\n      0x20\n        /* \"#utility.yul\":9764:9767   */\n      dup3\n        /* \"#utility.yul\":9760:9772   */\n      add\n        /* \"#utility.yul\":9753:9772   */\n      swap1\n      pop\n        /* \"#utility.yul\":9412:9778   */\n      swap2\n      swap1\n      pop\n      jump\t// out\n        /* \"#utility.yul\":9784:10203   */\n    tag_56:\n        /* \"#utility.yul\":9950:9954   */\n      0x00\n        /* \"#utility.yul\":9988:9990   */\n      0x20\n        /* \"#utility.yul\":9977:9986   */\n      dup3\n        /* \"#utility.yul\":9973:9991   */\n      add\n        /* \"#utility.yul\":9965:9991   */\n      swap1\n      pop\n        /* \"#utility.yul\":10037:10046   */\n      dup2\n        /* \"#utility.yul\":10031:10035   */\n      dup2\n        /* \"#utility.yul\":10027:10047   */\n      sub\n        /* \"#utility.yul\":10023:10024   */\n      0x00\n        /* \"#utility.yul\":10012:10021   */\n      dup4\n        /* \"#utility.yul\":10008:10025   */\n      add\n        /* \"#utility.yul\":10001:10048   */\n      mstore\n        /* \"#utility.yul\":10065:10196   */\n      tag_252\n        /* \"#utility.yul\":10191:10195   */\n      dup2\n        /* \"#utility.yul\":10065:10196   */\n      tag_142\n      jump\t// in\n    tag_252:\n        /* \"#utility.yul\":10057:10196   */\n      swap1\n      pop\n        /* \"#utility.yul\":9784:10203   */\n      swap2\n      swap1\n      pop\n      jump\t// out\n        /* \"#utility.yul\":10209:10389   */\n    tag_143:\n        /* \"#utility.yul\":10257:10334   */\n      0x4e487b7100000000000000000000000000000000000000000000000000000000\n        /* \"#utility.yul\":10254:10255   */\n      0x00\n        /* \"#utility.yul\":10247:10335   */\n      mstore\n        /* \"#utility.yul\":10354:10358   */\n      0x11\n        /* \"#utility.yul\":10351:10352   */\n      0x04\n        /* \"#utility.yul\":10344:10359   */\n      mstore\n        /* \"#utility.yul\":10378:10382   */\n      0x24\n        /* \"#utility.yul\":10375:10376   */\n      0x00\n        /* \"#utility.yul\":10368:10383   */\n      revert\n        /* \"#utility.yul\":10395:10628   */\n    tag_58:\n        /* \"#utility.yul\":10434:10437   */\n      0x00\n        /* \"#utility.yul\":10457:10481   */\n      tag_255\n        /* \"#utility.yul\":10475:10480   */\n      dup3\n        /* \"#utility.yul\":10457:10481   */\n      tag_121\n      jump\t// in\n    tag_255:\n        /* \"#utility.yul\":10448:10481   */\n      swap2\n      pop\n        /* \"#utility.yul\":10503:10569   */\n      0xffffffffffffffffffffffffffffffffffffffffffffffffffffffffffffffff\n        /* \"#utility.yul\":10496:10501   */\n      dup3\n        /* \"#utility.yul\":10493:10570   */\n      sub\n        /* \"#utility.yul\":10490:10593   */\n      tag_256\n      jumpi\n        /* \"#utility.yul\":10573:10591   */\n      tag_257\n      tag_143\n      jump\t// in\n    tag_257:\n        /* \"#utility.yul\":10490:10593   */\n    tag_256:\n        /* \"#utility.yul\":10620:10621   */\n      0x01\n        /* \"#utility.yul\":10613:10618   */\n      dup3\n        /* \"#utility.yul\":10609:10622   */\n      add\n        /* \"#utility.yul\":10602:10622   */\n      swap1\n      pop\n        /* \"#utility.yul\":10395:10628   */\n      swap2\n      swap1\n      pop\n      jump\t// out\n        /* \"#utility.yul\":10634:10802   */\n    tag_144:\n        /* \"#utility.yul\":10774:10794   */\n      0x416c72656164792063616c63756c617465640000000000000000000000000000\n        /* \"#utility.yul\":10770:10771   */\n      0x00\n        /* \"#utility.yul\":10762:10768   */\n      dup3\n        /* \"#utility.yul\":10758:10772   */\n      add\n        /* \"#utility.yul\":10751:10795   */\n      mstore\n        /* \"#utility.yul\":10634:10802   */\n      pop\n      jump\t// out\n        /* \"#utility.yul\":10808:11174   */\n    tag_145:\n        /* \"#utility.yul\":10950:10953   */\n      0x00\n        /* \"#utility.yul\":10971:11038   */\n      tag_260\n        /* \"#utility.yul\":11035:11037   */\n      0x12\n        /* \"#utility.yul\":11030:11033   */\n      dup4\n        /* \"#utility.yul\":10971:11038   */\n      tag_136\n      jump\t// in\n    tag_260:\n        /* \"#utility.yul\":10964:11038   */\n      swap2\n      pop\n        /* \"#utility.yul\":11047:11140   */\n      tag_261\n        /* \"#utility.yul\":11136:11139   */\n      dup3\n        /* \"#utility.yul\":11047:11140   */\n      tag_144\n      jump\t// in\n    tag_261:\n        /* \"#utility.yul\":11165:11167   */\n      0x20\n        /* \"#utility.yul\":11160:11163   */\n      dup3\n        /* \"#utility.yul\":11156:11168   */\n      add\n        /* \"#utility.yul\":11149:11168   */\n      swap1\n      pop\n        /* \"#utility.yul\":10808:11174   */\n      swap2\n      swap1\n      pop\n      jump\t// out\n        /* \"#utility.yul\":11180:11599   */\n    tag_67:\n        /* \"#utility.yul\":11346:11350   */\n      0x00\n        /* \"#utility.yul\":11384:11386   */\n      0x20\n        /* \"#utility.yul\":11373:11382   */\n      dup3\n        /* \"#utility.yul\":11369:11387   */\n      add\n        /* \"#utility.yul\":11361:11387   */\n      swap1\n      pop\n        /* \"#utility.yul\":11433:11442   */\n      dup2\n        /* \"#utility.yul\":11427:11431   */\n      dup2\n        /* \"#utility.yul\":11423:11443   */\n      sub\n        /* \"#utility.yul\":11419:11420   */\n      0x00\n        /* \"#utility.yul\":11408:11417   */\n      dup4\n        /* \"#utility.yul\":11404:11421   */\n      add\n        /* \"#utility.yul\":11397:11444   */\n      mstore\n        /* \"#utility.yul\":11461:11592   */\n      tag_263\n        /* \"#utility.yul\":11587:11591   */\n      dup2\n        /* \"#utility.yul\":11461:11592   */\n      tag_145\n      jump\t// in\n    tag_263:\n        /* \"#utility.yul\":11453:11592   */\n      swap1\n      pop\n        /* \"#utility.yul\":11180:11599   */\n      swap2\n      swap1\n      pop\n      jump\t// out\n        /* \"#utility.yul\":11605:11782   */\n    tag_146:\n        /* \"#utility.yul\":11745:11774   */\n      0x4e6f7420616c6c206e6f64657320726573706f6e646564207965740000000000\n        /* \"#utility.yul\":11741:11742   */\n      0x00\n        /* \"#utility.yul\":11733:11739   */\n      dup3\n        /* \"#utility.yul\":11729:11743   */\n      add\n        /* \"#utility.yul\":11722:11775   */\n      mstore\n        /* \"#utility.yul\":11605:11782   */\n      pop\n      jump\t// out\n        /* \"#utility.yul\":11788:12154   */\n    tag_147:\n        /* \"#utility.yul\":11930:11933   */\n      0x00\n        /* \"#utility.yul\":11951:12018   */\n      tag_266\n        /* \"#utility.yul\":12015:12017   */\n      0x1b\n        /* \"#utility.yul\":12010:12013   */\n      dup4\n        /* \"#utility.yul\":11951:12018   */\n      tag_136\n      jump\t// in\n    tag_266:\n        /* \"#utility.yul\":11944:12018   */\n      swap2\n      pop\n        /* \"#utility.yul\":12027:12120   */\n      tag_267\n        /* \"#utility.yul\":12116:12119   */\n      dup3\n        /* \"#utility.yul\":12027:12120   */\n      tag_146\n      jump\t// in\n    tag_267:\n        /* \"#utility.yul\":12145:12147   */\n      0x20\n        /* \"#utility.yul\":12140:12143   */\n      dup3\n        /* \"#utility.yul\":12136:12148   */\n      add\n        /* \"#utility.yul\":12129:12148   */\n      swap1\n      pop\n        /* \"#utility.yul\":11788:12154   */\n      swap2\n      swap1\n      pop\n      jump\t// out\n        /* \"#utility.yul\":12160:12579   */\n    tag_70:\n        /* \"#utility.yul\":12326:12330   */\n      0x00\n        /* \"#utility.yul\":12364:12366   */\n      0x20\n        /* \"#utility.yul\":12353:12362   */\n      dup3\n        /* \"#utility.yul\":12349:12367   */\n      add\n        /* \"#utility.yul\":12341:12367   */\n      swap1\n      pop\n        /* \"#utility.yul\":12413:12422   */\n      dup2\n        /* \"#utility.yul\":12407:12411   */\n      dup2\n        /* \"#utility.yul\":12403:12423   */\n      sub\n        /* \"#utility.yul\":12399:12400   */\n      0x00\n        /* \"#utility.yul\":12388:12397   */\n      dup4\n        /* \"#utility.yul\":12384:12401   */\n      add\n        /* \"#utility.yul\":12377:12424   */\n      mstore\n        /* \"#utility.yul\":12441:12572   */\n      tag_269\n        /* \"#utility.yul\":12567:12571   */\n      dup2\n        /* \"#utility.yul\":12441:12572   */\n      tag_147\n      jump\t// in\n    tag_269:\n        /* \"#utility.yul\":12433:12572   */\n      swap1\n      pop\n        /* \"#utility.yul\":12160:12579   */\n      swap2\n      swap1\n      pop\n      jump\t// out\n        /* \"#utility.yul\":12585:12765   */\n    tag_76:\n        /* \"#utility.yul\":12633:12710   */\n      0x4e487b7100000000000000000000000000000000000000000000000000000000\n        /* \"#utility.yul\":12630:12631   */\n      0x00\n        /* \"#utility.yul\":12623:12711   */\n      mstore\n        /* \"#utility.yul\":12730:12734   */\n      0x32\n        /* \"#utility.yul\":12727:12728   */\n      0x04\n        /* \"#utility.yul\":12720:12735   */\n      mstore\n        /* \"#utility.yul\":12754:12758   */\n      0x24\n        /* \"#utility.yul\":12751:12752   */\n      0x00\n        /* \"#utility.yul\":12744:12759   */\n      revert\n        /* \"#utility.yul\":12771:12962   */\n    tag_79:\n        /* \"#utility.yul\":12811:12814   */\n      0x00\n        /* \"#utility.yul\":12830:12850   */\n      tag_272\n        /* \"#utility.yul\":12848:12849   */\n      dup3\n        /* \"#utility.yul\":12830:12850   */\n      tag_121\n      jump\t// in\n    tag_272:\n        /* \"#utility.yul\":12825:12850   */\n      swap2\n      pop\n        /* \"#utility.yul\":12864:12884   */\n      tag_273\n        /* \"#utility.yul\":12882:12883   */\n      dup4\n        /* \"#utility.yul\":12864:12884   */\n      tag_121\n      jump\t// in\n    tag_273:\n        /* \"#utility.yul\":12859:12884   */\n      swap3\n      pop\n        /* \"#utility.yul\":12907:12908   */\n      dup3\n        /* \"#utility.yul\":12904:12905   */\n      dup3\n        /* \"#utility.yul\":12900:12909   */\n      add\n        /* \"#utility.yul\":12893:12909   */\n      swap1\n      pop\n        /* \"#utility.yul\":12928:12931   */\n      dup1\n        /* \"#utility.yul\":12925:12926   */\n      dup3\n        /* \"#utility.yul\":12922:12932   */\n      gt\n        /* \"#utility.yul\":12919:12955   */\n      iszero\n      tag_274\n      jumpi\n        /* \"#utility.yul\":12935:12953   */\n      tag_275\n      tag_143\n      jump\t// in\n    tag_275:\n        /* \"#utility.yul\":12919:12955   */\n    tag_274:\n        /* \"#utility.yul\":12771:12962   */\n      swap3\n      swap2\n      pop\n      pop\n      jump\t// out\n        /* \"#utility.yul\":12968:13148   */\n    tag_148:\n        /* \"#utility.yul\":13016:13093   */\n      0x4e487b7100000000000000000000000000000000000000000000000000000000\n        /* \"#utility.yul\":13013:13014   */\n      0x00\n        /* \"#utility.yul\":13006:13094   */\n      mstore\n        /* \"#utility.yul\":13113:13117   */\n      0x12\n        /* \"#utility.yul\":13110:13111   */\n      0x04\n        /* \"#utility.yul\":13103:13118   */\n      mstore\n        /* \"#utility.yul\":13137:13141   */\n      0x24\n        /* \"#utility.yul\":13134:13135   */\n      0x00\n        /* \"#utility.yul\":13127:13142   */\n      revert\n        /* \"#utility.yul\":13154:13339   */\n    tag_81:\n        /* \"#utility.yul\":13194:13195   */\n      0x00\n        /* \"#utility.yul\":13211:13231   */\n      tag_278\n        /* \"#utility.yul\":13229:13230   */\n      dup3\n        /* \"#utility.yul\":13211:13231   */\n      tag_121\n      jump\t// in\n    tag_278:\n        /* \"#utility.yul\":13206:13231   */\n      swap2\n      pop\n        /* \"#utility.yul\":13245:13265   */\n      tag_279\n        /* \"#utility.yul\":13263:13264   */\n      dup4\n        /* \"#utility.yul\":13245:13265   */\n      tag_121\n      jump\t// in\n    tag_279:\n        /* \"#utility.yul\":13240:13265   */\n      swap3\n      pop\n        /* \"#utility.yul\":13284:13285   */\n      dup3\n        /* \"#utility.yul\":13274:13309   */\n      tag_280\n      jumpi\n        /* \"#utility.yul\":13289:13307   */\n      tag_281\n      tag_148\n      jump\t// in\n    tag_281:\n        /* \"#utility.yul\":13274:13309   */\n    tag_280:\n        /* \"#utility.yul\":13331:13332   */\n      dup3\n        /* \"#utility.yul\":13328:13329   */\n      dup3\n        /* \"#utility.yul\":13324:13333   */\n      div\n        /* \"#utility.yul\":13319:13333   */\n      swap1\n      pop\n        /* \"#utility.yul\":13154:13339   */\n      swap3\n      swap2\n      pop\n      pop\n      jump\t// out\n        /* \"#utility.yul\":13345:13512   */\n    tag_149:\n        /* \"#utility.yul\":13485:13504   */\n      0x4e6f206e6f6465732070726f7669646564000000000000000000000000000000\n        /* \"#utility.yul\":13481:13482   */\n      0x00\n        /* \"#utility.yul\":13473:13479   */\n      dup3\n        /* \"#utility.yul\":13469:13483   */\n      add\n        /* \"#utility.yul\":13462:13505   */\n      mstore\n        /* \"#utility.yul\":13345:13512   */\n      pop\n      jump\t// out\n        /* \"#utility.yul\":13518:13884   */\n    tag_150:\n        /* \"#utility.yul\":13660:13663   */\n      0x00\n        /* \"#utility.yul\":13681:13748   */\n      tag_284\n        /* \"#utility.yul\":13745:13747   */\n      0x11\n        /* \"#utility.yul\":13740:13743   */\n      dup4\n        /* \"#utility.yul\":13681:13748   */\n      tag_136\n      jump\t// in\n    tag_284:\n        /* \"#utility.yul\":13674:13748   */\n      swap2\n      pop\n        /* \"#utility.yul\":13757:13850   */\n      tag_285\n        /* \"#utility.yul\":13846:13849   */\n      dup3\n        /* \"#utility.yul\":13757:13850   */\n      tag_149\n      jump\t// in\n    tag_285:\n        /* \"#utility.yul\":13875:13877   */\n      0x20\n        /* \"#utility.yul\":13870:13873   */\n      dup3\n        /* \"#utility.yul\":13866:13878   */\n      add\n        /* \"#utility.yul\":13859:13878   */\n      swap1\n      pop\n        /* \"#utility.yul\":13518:13884   */\n      swap2\n      swap1\n      pop\n      jump\t// out\n        /* \"#utility.yul\":13890:14309   */\n    tag_86:\n        /* \"#utility.yul\":14056:14060   */\n      0x00\n        /* \"#utility.yul\":14094:14096   */\n      0x20\n        /* \"#utility.yul\":14083:14092   */\n      dup3\n        /* \"#utility.yul\":14079:14097   */\n      add\n        /* \"#utility.yul\":14071:14097   */\n      swap1\n      pop\n        /* \"#utility.yul\":14143:14152   */\n      dup2\n        /* \"#utility.yul\":14137:14141   */\n      dup2\n        /* \"#utility.yul\":14133:14153   */\n      sub\n        /* \"#utility.yul\":14129:14130   */\n      0x00\n        /* \"#utility.yul\":14118:14127   */\n      dup4\n        /* \"#utility.yul\":14114:14131   */\n      add\n        /* \"#utility.yul\":14107:14154   */\n      mstore\n        /* \"#utility.yul\":14171:14302   */\n      tag_287\n        /* \"#utility.yul\":14297:14301   */\n      dup2\n        /* \"#utility.yul\":14171:14302   */\n      tag_150\n      jump\t// in\n    tag_287:\n        /* \"#utility.yul\":14163:14302   */\n      swap1\n      pop\n        /* \"#utility.yul\":13890:14309   */\n      swap2\n      swap1\n      pop\n      jump\t// out\n        /* \"#utility.yul\":14315:14394   */\n    tag_151:\n        /* \"#utility.yul\":14354:14361   */\n      0x00\n        /* \"#utility.yul\":14383:14388   */\n      dup2\n        /* \"#utility.yul\":14372:14388   */\n      swap1\n      pop\n        /* \"#utility.yul\":14315:14394   */\n      swap2\n      swap1\n      pop\n      jump\t// out\n        /* \"#utility.yul\":14400:14557   */\n    tag_152:\n        /* \"#utility.yul\":14505:14550   */\n      tag_290\n        /* \"#utility.yul\":14525:14549   */\n      tag_291\n        /* \"#utility.yul\":14543:14548   */\n      dup3\n        /* \"#utility.yul\":14525:14549   */\n      tag_121\n      jump\t// in\n    tag_291:\n        /* \"#utility.yul\":14505:14550   */\n      tag_151\n      jump\t// in\n    tag_290:\n        /* \"#utility.yul\":14500:14503   */\n      dup3\n        /* \"#utility.yul\":14493:14551   */\n      mstore\n        /* \"#utility.yul\":14400:14557   */\n      pop\n      pop\n      jump\t// out\n        /* \"#utility.yul\":14563:14960   */\n    tag_89:\n        /* \"#utility.yul\":14703:14706   */\n      0x00\n        /* \"#utility.yul\":14718:14793   */\n      tag_293\n        /* \"#utility.yul\":14789:14792   */\n      dup3\n        /* \"#utility.yul\":14780:14786   */\n      dup6\n        /* \"#utility.yul\":14718:14793   */\n      tag_152\n      jump\t// in\n    tag_293:\n        /* \"#utility.yul\":14818:14820   */\n      0x20\n        /* \"#utility.yul\":14813:14816   */\n      dup3\n        /* \"#utility.yul\":14809:14821   */\n      add\n        /* \"#utility.yul\":14802:14821   */\n      swap2\n      pop\n        /* \"#utility.yul\":14831:14906   */\n      tag_294\n        /* \"#utility.yul\":14902:14905   */\n      dup3\n        /* \"#utility.yul\":14893:14899   */\n      dup5\n        /* \"#utility.yul\":14831:14906   */\n      tag_152\n      jump\t// in\n    tag_294:\n        /* \"#utility.yul\":14931:14933   */\n      0x20\n        /* \"#utility.yul\":14926:14929   */\n      dup3\n        /* \"#utility.yul\":14922:14934   */\n      add\n        /* \"#utility.yul\":14915:14934   */\n      swap2\n      pop\n        /* \"#utility.yul\":14951:14954   */\n      dup2\n        /* \"#utility.yul\":14944:14954   */\n      swap1\n      pop\n        /* \"#utility.yul\":14563:14960   */\n      swap4\n      swap3\n      pop\n      pop\n      pop\n      jump\t// out\n        /* \"#utility.yul\":14966:15295   */\n    tag_98:\n        /* \"#utility.yul\":15025:15031   */\n      0x00\n        /* \"#utility.yul\":15074:15076   */\n      0x20\n        /* \"#utility.yul\":15062:15071   */\n      dup3\n        /* \"#utility.yul\":15053:15060   */\n      dup5\n        /* \"#utility.yul\":15049:15072   */\n      sub\n        /* \"#utility.yul\":15045:15077   */\n      slt\n        /* \"#utility.yul\":15042:15161   */\n      iszero\n      tag_296\n      jumpi\n        /* \"#utility.yul\":15080:15159   */\n      tag_297\n      tag_116\n      jump\t// in\n    tag_297:\n        /* \"#utility.yul\":15042:15161   */\n    tag_296:\n        /* \"#utility.yul\":15200:15201   */\n      0x00\n        /* \"#utility.yul\":15225:15278   */\n      tag_298\n        /* \"#utility.yul\":15270:15277   */\n      dup5\n        /* \"#utility.yul\":15261:15267   */\n      dup3\n        /* \"#utility.yul\":15250:15259   */\n      dup6\n        /* \"#utility.yul\":15246:15268   */\n      add\n        /* \"#utility.yul\":15225:15278   */\n      tag_135\n      jump\t// in\n    tag_298:\n        /* \"#utility.yul\":15215:15278   */\n      swap2\n      pop\n        /* \"#utility.yul\":15171:15288   */\n      pop\n        /* \"#utility.yul\":14966:15295   */\n      swap3\n      swap2\n      pop\n      pop\n      jump\t// out\n        /* \"#utility.yul\":15301:15743   */\n    tag_100:\n        /* \"#utility.yul\":15450:15454   */\n      0x00\n        /* \"#utility.yul\":15488:15490   */\n      0x60\n        /* \"#utility.yul\":15477:15486   */\n      dup3\n        /* \"#utility.yul\":15473:15491   */\n      add\n        /* \"#utility.yul\":15465:15491   */\n      swap1\n      pop\n        /* \"#utility.yul\":15501:15572   */\n      tag_300\n        /* \"#utility.yul\":15569:15570   */\n      0x00\n        /* \"#utility.yul\":15558:15567   */\n      dup4\n        /* \"#utility.yul\":15554:15571   */\n      add\n        /* \"#utility.yul\":15545:15551   */\n      dup7\n        /* \"#utility.yul\":15501:15572   */\n      tag_131\n      jump\t// in\n    tag_300:\n        /* \"#utility.yul\":15582:15654   */\n      tag_301\n        /* \"#utility.yul\":15650:15652   */\n      0x20\n        /* \"#utility.yul\":15639:15648   */\n      dup4\n        /* \"#utility.yul\":15635:15653   */\n      add\n        /* \"#utility.yul\":15626:15632   */\n      dup6\n        /* \"#utility.yul\":15582:15654   */\n      tag_122\n      jump\t// in\n    tag_301:\n        /* \"#utility.yul\":15664:15736   */\n      tag_302\n        /* \"#utility.yul\":15732:15734   */\n      0x40\n        /* \"#utility.yul\":15721:15730   */\n      dup4\n        /* \"#utility.yul\":15717:15735   */\n      add\n        /* \"#utility.yul\":15708:15714   */\n      dup5\n        /* \"#utility.yul\":15664:15736   */\n      tag_122\n      jump\t// in\n    tag_302:\n        /* \"#utility.yul\":15301:15743   */\n      swap5\n      swap4\n      pop\n      pop\n      pop\n      pop\n      jump\t// out\n        /* \"#utility.yul\":15749:16191   */\n    tag_105:\n        /* \"#utility.yul\":15898:15902   */\n      0x00\n        /* \"#utility.yul\":15936:15938   */\n      0x60\n        /* \"#utility.yul\":15925:15934   */\n      dup3\n        /* \"#utility.yul\":15921:15939   */\n      add\n        /* \"#utility.yul\":15913:15939   */\n      swap1\n      pop\n        /* \"#utility.yul\":15949:16020   */\n      tag_304\n        /* \"#utility.yul\":16017:16018   */\n      0x00\n        /* \"#utility.yul\":16006:16015   */\n      dup4\n        /* \"#utility.yul\":16002:16019   */\n      add\n        /* \"#utility.yul\":15993:15999   */\n      dup7\n        /* \"#utility.yul\":15949:16020   */\n      tag_122\n      jump\t// in\n    tag_304:\n        /* \"#utility.yul\":16030:16102   */\n      tag_305\n        /* \"#utility.yul\":16098:16100   */\n      0x20\n        /* \"#utility.yul\":16087:16096   */\n      dup4\n        /* \"#utility.yul\":16083:16101   */\n      add\n        /* \"#utility.yul\":16074:16080   */\n      dup6\n        /* \"#utility.yul\":16030:16102   */\n      tag_122\n      jump\t// in\n    tag_305:\n        /* \"#utility.yul\":16112:16184   */\n      tag_306\n        /* \"#utility.yul\":16180:16182   */\n      0x40\n        /* \"#utility.yul\":16169:16178   */\n      dup4\n        /* \"#utility.yul\":16165:16183   */\n      add\n        /* \"#utility.yul\":16156:16162   */\n      dup5\n        /* \"#utility.yul\":16112:16184   */\n      tag_122\n      jump\t// in\n    tag_306:\n        /* \"#utility.yul\":15749:16191   */\n      swap5\n      swap4\n      pop\n      pop\n      pop\n      pop\n      jump\t// out\n\n    auxdata: 0xa2646970667358221220151eadd25060276f72f9101e9bb412209ee9ab612ce05f6ced6a11f3029624d964736f6c634300081f0033\n}\n",
				"bytecode": {
					"linkReferences": {},
					"object": "6080604052348015600e575f5ffd5b506112348061001c5f395ff3fe608060405234801561000f575f5ffd5b506004361061007b575f3560e01c806382a87c011161005957806382a87c01146100ea5780639d8669851461011a578063bcf886531461014f578063fab7d44b1461017f5761007b565b806345d076641461007f578063512fed43146100b257806359e9e22b146100ce575b5f5ffd5b61009960048036038101906100949190610a42565b6101af565b6040516100a99493929190610a9f565b60405180910390f35b6100cc60048036038101906100c79190610b0c565b6101f6565b005b6100e860048036038101906100e39190610a42565b61044d565b005b61010460048036038101906100ff9190610bab565b610666565b6040516101119190610c2b565b60405180910390f35b610134600480360381019061012f9190610a42565b610850565b60405161014696959493929190610c44565b60405180910390f35b61016960048036038101906101649190610cfd565b610893565b6040516101769190610d3b565b60405180910390f35b61019960048036038101906101949190610cfd565b6108f7565b6040516101a69190610d54565b60405180910390f35b5f5f5f5f5f5f5f8781526020019081526020015f209050806005015481600601548260070154836008015f9054906101000a900460ff169450945094509450509193509193565b5f5f5f8481526020019081526020015f2090505f81600601541161024f576040517f08c379a000000000000000000000000000000000000000000000000000000000815260040161024690610dc7565b60405180910390fd5b806004015f3373ffffffffffffffffffffffffffffffffffffffff1673ffffffffffffffffffffffffffffffffffffffff1681526020019081526020015f205f9054906101000a900460ff16156102db576040517f08c379a00000000000000000000000000000000000000000000000000000000081526004016102d290610e2f565b60405180910390fd5b806008015f9054906101000a900460ff161561032c576040517f08c379a000000000000000000000000000000000000000000000000000000000815260040161032390610e97565b60405180910390fd5b81816003015f3373ffffffffffffffffffffffffffffffffffffffff1673ffffffffffffffffffffffffffffffffffffffff1681526020019081526020015f20819055506001816004015f3373ffffffffffffffffffffffffffffffffffffffff1673ffffffffffffffffffffffffffffffffffffffff1681526020019081526020015f205f6101000a81548160ff021916908315150217905550806005015f8154809291906103db90610ee2565b91905055503373ffffffffffffffffffffffffffffffffffffffff16837fb65dcacaabdd1c739ec12f70f9f2fc5628c616d2940061108347f4008d9ceb0e846040516104279190610d54565b60405180910390a38060060154816005015403610448576104478361044d565b5b505050565b5f5f5f8381526020019081526020015f2090505f8160060154116104a6576040517f08c379a000000000000000000000000000000000000000000000000000000000815260040161049d90610dc7565b60405180910390fd5b806008015f9054906101000a900460ff16156104f7576040517f08c379a00000000000000000000000000000000000000000000000000000000081526004016104ee90610f73565b60405180910390fd5b8060060154816005015414610541576040517f08c379a000000000000000000000000000000000000000000000000000000000815260040161053890610fdb565b60405180910390fd5b5f5f90505f5f90505b82600201805490508110156105f057826003015f84600201838154811061057457610573610ff9565b5b905f5260205f20015f9054906101000a900473ffffffffffffffffffffffffffffffffffffffff1673ffffffffffffffffffffffffffffffffffffffff1673ffffffffffffffffffffffffffffffffffffffff1681526020019081526020015f2054826105e19190611026565b9150808060010191505061054a565b508160060154816106019190611086565b82600701819055506001826008015f6101000a81548160ff021916908315150217905550827f2892d598e4e0a5f04879c50284827a25921e2883e44ea0f7a4ad076b4be8332283600701546040516106599190610d54565b60405180910390a2505050565b5f5f83839050116106ac576040517f08c379a00000000000000000000000000000000000000000000000000000000081526004016106a390611100565b60405180910390fd5b5f4260015f8154809291906106c090610ee2565b919050556040516020016106d592919061113e565b6040516020818303038152906040528051906020012090505f5f5f8381526020019081526020015f20905086815f0181905550858160010181905550848482600201919061072492919061094f565b508484905081600601819055505f81600501819055505f816008015f6101000a81548160ff0219169083151502179055505f5f90505b858590508110156108035785858281811061077857610777610ff9565b5b905060200201602081019061078d9190611169565b73ffffffffffffffffffffffffffffffffffffffff166335434170848a8a6040518463ffffffff1660e01b81526004016107c993929190611194565b5f604051808303815f87803b1580156107e0575f5ffd5b505af11580156107f2573d5f5f3e3d5ffd5b50505050808060010191505061075a565b50817f886bcecf5afd8198eb4189263ae211916adeb68a5bf7e3e5988e9f53446d1bb688888888905060405161083b939291906111c9565b60405180910390a28192505050949350505050565b5f602052805f5260405f205f91509050805f015490806001015490806005015490806006015490806007015490806008015f9054906101000a900460ff16905086565b5f5f5f8481526020019081526020015f206004015f8373ffffffffffffffffffffffffffffffffffffffff1673ffffffffffffffffffffffffffffffffffffffff1681526020019081526020015f205f9054906101000a900460ff16905092915050565b5f5f5f8481526020019081526020015f206003015f8373ffffffffffffffffffffffffffffffffffffffff1673ffffffffffffffffffffffffffffffffffffffff1681526020019081526020015f2054905092915050565b828054828255905f5260205f209081019282156109db579160200282015b828111156109da57823573ffffffffffffffffffffffffffffffffffffffff16825f6101000a81548173ffffffffffffffffffffffffffffffffffffffff021916908373ffffffffffffffffffffffffffffffffffffffff1602179055509160200191906001019061096d565b5b5090506109e891906109ec565b5090565b5b80821115610a03575f815f9055506001016109ed565b5090565b5f5ffd5b5f5ffd5b5f819050919050565b610a2181610a0f565b8114610a2b575f5ffd5b50565b5f81359050610a3c81610a18565b92915050565b5f60208284031215610a5757610a56610a07565b5b5f610a6484828501610a2e565b91505092915050565b5f819050919050565b610a7f81610a6d565b82525050565b5f8115159050919050565b610a9981610a85565b82525050565b5f608082019050610ab25f830187610a76565b610abf6020830186610a76565b610acc6040830185610a76565b610ad96060830184610a90565b95945050505050565b610aeb81610a6d565b8114610af5575f5ffd5b50565b5f81359050610b0681610ae2565b92915050565b5f5f60408385031215610b2257610b21610a07565b5b5f610b2f85828601610a2e565b9250506020610b4085828601610af8565b9150509250929050565b5f5ffd5b5f5ffd5b5f5ffd5b5f5f83601f840112610b6b57610b6a610b4a565b5b8235905067ffffffffffffffff811115610b8857610b87610b4e565b5b602083019150836020820283011115610ba457610ba3610b52565b5b9250929050565b5f5f5f5f60608587031215610bc357610bc2610a07565b5b5f610bd087828801610af8565b9450506020610be187828801610af8565b935050604085013567ffffffffffffffff811115610c0257610c01610a0b565b5b610c0e87828801610b56565b925092505092959194509250565b610c2581610a0f565b82525050565b5f602082019050610c3e5f830184610c1c565b92915050565b5f60c082019050610c575f830189610a76565b610c646020830188610a76565b610c716040830187610a76565b610c7e6060830186610a76565b610c8b6080830185610a76565b610c9860a0830184610a90565b979650505050505050565b5f73ffffffffffffffffffffffffffffffffffffffff82169050919050565b5f610ccc82610ca3565b9050919050565b610cdc81610cc2565b8114610ce6575f5ffd5b50565b5f81359050610cf781610cd3565b92915050565b5f5f60408385031215610d1357610d12610a07565b5b5f610d2085828601610a2e565b9250506020610d3185828601610ce9565b9150509250929050565b5f602082019050610d4e5f830184610a90565b92915050565b5f602082019050610d675f830184610a76565b92915050565b5f82825260208201905092915050565b7f496e76616c6964207265717565737420494400000000000000000000000000005f82015250565b5f610db1601283610d6d565b9150610dbc82610d7d565b602082019050919050565b5f6020820190508181035f830152610dde81610da5565b9050919050565b7f4e6f646520616c726561647920726573706f6e646564000000000000000000005f82015250565b5f610e19601683610d6d565b9150610e2482610de5565b602082019050919050565b5f6020820190508181035f830152610e4681610e0d565b9050919050565b7f5265717565737420616c726561647920636f6d706c65746564000000000000005f82015250565b5f610e81601983610d6d565b9150610e8c82610e4d565b602082019050919050565b5f6020820190508181035f830152610eae81610e75565b9050919050565b7f4e487b71000000000000000000000000000000000000000000000000000000005f52601160045260245ffd5b5f610eec82610a6d565b91507fffffffffffffffffffffffffffffffffffffffffffffffffffffffffffffffff8203610f1e57610f1d610eb5565b5b600182019050919050565b7f416c72656164792063616c63756c6174656400000000000000000000000000005f82015250565b5f610f5d601283610d6d565b9150610f6882610f29565b602082019050919050565b5f6020820190508181035f830152610f8a81610f51565b9050919050565b7f4e6f7420616c6c206e6f64657320726573706f6e6465642079657400000000005f82015250565b5f610fc5601b83610d6d565b9150610fd082610f91565b602082019050919050565b5f6020820190508181035f830152610ff281610fb9565b9050919050565b7f4e487b71000000000000000000000000000000000000000000000000000000005f52603260045260245ffd5b5f61103082610a6d565b915061103b83610a6d565b925082820190508082111561105357611052610eb5565b5b92915050565b7f4e487b71000000000000000000000000000000000000000000000000000000005f52601260045260245ffd5b5f61109082610a6d565b915061109b83610a6d565b9250826110ab576110aa611059565b5b828204905092915050565b7f4e6f206e6f6465732070726f76696465640000000000000000000000000000005f82015250565b5f6110ea601183610d6d565b91506110f5826110b6565b602082019050919050565b5f6020820190508181035f830152611117816110de565b9050919050565b5f819050919050565b61113861113382610a6d565b61111e565b82525050565b5f6111498285611127565b6020820191506111598284611127565b6020820191508190509392505050565b5f6020828403121561117e5761117d610a07565b5b5f61118b84828501610ce9565b91505092915050565b5f6060820190506111a75f830186610c1c565b6111b46020830185610a76565b6111c16040830184610a76565b949350505050565b5f6060820190506111dc5f830186610a76565b6111e96020830185610a76565b6111f66040830184610a76565b94935050505056fea2646970667358221220151eadd25060276f72f9101e9bb412209ee9ab612ce05f6ced6a11f3029624d964736f6c634300081f0033",
					"opcodes": "PUSH1 0x80 PUSH1 0x40 MSTORE CALLVALUE DUP1 ISZERO PUSH1 0xE JUMPI PUSH0 PUSH0 REVERT JUMPDEST POP PUSH2 0x1234 DUP1 PUSH2 0x1C PUSH0 CODECOPY PUSH0 RETURN INVALID PUSH1 0x80 PUSH1 0x40 MSTORE CALLVALUE DUP1 ISZERO PUSH2 0xF JUMPI PUSH0 PUSH0 REVERT JUMPDEST POP PUSH1 0x4 CALLDATASIZE LT PUSH2 0x7B JUMPI PUSH0 CALLDATALOAD PUSH1 0xE0 SHR DUP1 PUSH4 0x82A87C01 GT PUSH2 0x59 JUMPI DUP1 PUSH4 0x82A87C01 EQ PUSH2 0xEA JUMPI DUP1 PUSH4 0x9D866985 EQ PUSH2 0x11A JUMPI DUP1 PUSH4 0xBCF88653 EQ PUSH2 0x14F JUMPI DUP1 PUSH4 0xFAB7D44B EQ PUSH2 0x17F JUMPI PUSH2 0x7B JUMP JUMPDEST DUP1 PUSH4 0x45D07664 EQ PUSH2 0x7F JUMPI DUP1 PUSH4 0x512FED43 EQ PUSH2 0xB2 JUMPI DUP1 PUSH4 0x59E9E22B EQ PUSH2 0xCE JUMPI JUMPDEST PUSH0 PUSH0 REVERT JUMPDEST PUSH2 0x99 PUSH1 0x4 DUP1 CALLDATASIZE SUB DUP2 ADD SWAP1 PUSH2 0x94 SWAP2 SWAP1 PUSH2 0xA42 JUMP JUMPDEST PUSH2 0x1AF JUMP JUMPDEST PUSH1 0x40 MLOAD PUSH2 0xA9 SWAP5 SWAP4 SWAP3 SWAP2 SWAP1 PUSH2 0xA9F JUMP JUMPDEST PUSH1 0x40 MLOAD DUP1 SWAP2 SUB SWAP1 RETURN JUMPDEST PUSH2 0xCC PUSH1 0x4 DUP1 CALLDATASIZE SUB DUP2 ADD SWAP1 PUSH2 0xC7 SWAP2 SWAP1 PUSH2 0xB0C JUMP JUMPDEST PUSH2 0x1F6 JUMP JUMPDEST STOP JUMPDEST PUSH2 0xE8 PUSH1 0x4 DUP1 CALLDATASIZE SUB DUP2 ADD SWAP1 PUSH2 0xE3 SWAP2 SWAP1 PUSH2 0xA42 JUMP JUMPDEST PUSH2 0x44D JUMP JUMPDEST STOP JUMPDEST PUSH2 0x104 PUSH1 0x4 DUP1 CALLDATASIZE SUB DUP2 ADD SWAP1 PUSH2 0xFF SWAP2 SWAP1 PUSH2 0xBAB JUMP JUMPDEST PUSH2 0x666 JUMP JUMPDEST PUSH1 0x40 MLOAD PUSH2 0x111 SWAP2 SWAP1 PUSH2 0xC2B JUMP JUMPDEST PUSH1 0x40 MLOAD DUP1 SWAP2 SUB SWAP1 RETURN JUMPDEST PUSH2 0x134 PUSH1 0x4 DUP1 CALLDATASIZE SUB DUP2 ADD SWAP1 PUSH2 0x12F SWAP2 SWAP1 PUSH2 0xA42 JUMP JUMPDEST PUSH2 0x850 JUMP JUMPDEST PUSH1 0x40 MLOAD PUSH2 0x146 SWAP7 SWAP6 SWAP5 SWAP4 SWAP3 SWAP2 SWAP1 PUSH2 0xC44 JUMP JUMPDEST PUSH1 0x40 MLOAD DUP1 SWAP2 SUB SWAP1 RETURN JUMPDEST PUSH2 0x169 PUSH1 0x4 DUP1 CALLDATASIZE SUB DUP2 ADD SWAP1 PUSH2 0x164 SWAP2 SWAP1 PUSH2 0xCFD JUMP JUMPDEST PUSH2 0x893 JUMP JUMPDEST PUSH1 0x40 MLOAD PUSH2 0x176 SWAP2 SWAP1 PUSH2 0xD3B JUMP JUMPDEST PUSH1 0x40 MLOAD DUP1 SWAP2 SUB SWAP1 RETURN JUMPDEST PUSH2 0x199 PUSH1 0x4 DUP1 CALLDATASIZE SUB DUP2 ADD SWAP1 PUSH2 0x194 SWAP2 SWAP1 PUSH2 0xCFD JUMP JUMPDEST PUSH2 0x8F7 JUMP JUMPDEST PUSH1 0x40 MLOAD PUSH2 0x1A6 SWAP2 SWAP1 PUSH2 0xD54 JUMP JUMPDEST PUSH1 0x40 MLOAD DUP1 SWAP2 SUB SWAP1 RETURN JUMPDEST PUSH0 PUSH0 PUSH0 PUSH0 PUSH0 PUSH0 PUSH0 DUP8 DUP2 MSTORE PUSH1 0x20 ADD SWAP1 DUP2 MSTORE PUSH1 0x20 ADD PUSH0 KECCAK256 SWAP1 POP DUP1 PUSH1 0x5 ADD SLOAD DUP2 PUSH1 0x6 ADD SLOAD DUP3 PUSH1 0x7 ADD SLOAD DUP4 PUSH1 0x8 ADD PUSH0 SWAP1 SLOAD SWAP1 PUSH2 0x100 EXP SWAP1 DIV PUSH1 0xFF AND SWAP5 POP SWAP5 POP SWAP5 POP SWAP5 POP POP SWAP2 SWAP4 POP SWAP2 SWAP4 JUMP JUMPDEST PUSH0 PUSH0 PUSH0 DUP5 DUP2 MSTORE PUSH1 0x20 ADD SWAP1 DUP2 MSTORE PUSH1 0x20 ADD PUSH0 KECCAK256 SWAP1 POP PUSH0 DUP2 PUSH1 0x6 ADD SLOAD GT PUSH2 0x24F JUMPI PUSH1 0x40 MLOAD PUSH32 0x8C379A000000000000000000000000000000000000000000000000000000000 DUP2 MSTORE PUSH1 0x4 ADD PUSH2 0x246 SWAP1 PUSH2 0xDC7 JUMP JUMPDEST PUSH1 0x40 MLOAD DUP1 SWAP2 SUB SWAP1 REVERT JUMPDEST DUP1 PUSH1 0x4 ADD PUSH0 CALLER PUSH20 0xFFFFFFFFFFFFFFFFFFFFFFFFFFFFFFFFFFFFFFFF AND PUSH20 0xFFFFFFFFFFFFFFFFFFFFFFFFFFFFFFFFFFFFFFFF AND DUP2 MSTORE PUSH1 0x20 ADD SWAP1 DUP2 MSTORE PUSH1 0x20 ADD PUSH0 KECCAK256 PUSH0 SWAP1 SLOAD SWAP1 PUSH2 0x100 EXP SWAP1 DIV PUSH1 0xFF AND ISZERO PUSH2 0x2DB JUMPI PUSH1 0x40 MLOAD PUSH32 0x8C379A000000000000000000000000000000000000000000000000000000000 DUP2 MSTORE PUSH1 0x4 ADD PUSH2 0x2D2 SWAP1 PUSH2 0xE2F JUMP JUMPDEST PUSH1 0x40 MLOAD DUP1 SWAP2 SUB SWAP1 REVERT JUMPDEST DUP1 PUSH1 0x8 ADD PUSH0 SWAP1 SLOAD SWAP1 PUSH2 0x100 EXP SWAP1 DIV PUSH1 0xFF AND ISZERO PUSH2 0x32C JUMPI PUSH1 0x40 MLOAD PUSH32 0x8C379A000000000000000000000000000000000000000000000000000000000 DUP2 MSTORE PUSH1 0x4 ADD PUSH2 0x323 SWAP1 PUSH2 0xE97 JUMP JUMPDEST PUSH1 0x40 MLOAD DUP1 SWAP2 SUB SWAP1 REVERT JUMPDEST DUP2 DUP2 PUSH1 0x3 ADD PUSH0 CALLER PUSH20 0xFFFFFFFFFFFFFFFFFFFFFFFFFFFFFFFFFFFFFFFF AND PUSH20 0xFFFFFFFFFFFFFFFFFFFFFFFFFFFFFFFFFFFFFFFF AND DUP2 MSTORE PUSH1 0x20 ADD SWAP1 DUP2 MSTORE PUSH1 0x20 ADD PUSH0 KECCAK256 DUP2 SWAP1 SSTORE POP PUSH1 0x1 DUP2 PUSH1 0x4 ADD PUSH0 CALLER PUSH20 0xFFFFFFFFFFFFFFFFFFFFFFFFFFFFFFFFFFFFFFFF AND PUSH20 0xFFFFFFFFFFFFFFFFFFFFFFFFFFFFFFFFFFFFFFFF AND DUP2 MSTORE PUSH1 0x20 ADD SWAP1 DUP2 MSTORE PUSH1 0x20 ADD PUSH0 KECCAK256 PUSH0 PUSH2 0x100 EXP DUP2 SLOAD DUP2 PUSH1 0xFF MUL NOT AND SWAP1 DUP4 ISZERO ISZERO MUL OR SWAP1 SSTORE POP DUP1 PUSH1 0x5 ADD PUSH0 DUP2 SLOAD DUP1 SWAP3 SWAP2 SWAP1 PUSH2 0x3DB SWAP1 PUSH2 0xEE2 JUMP JUMPDEST SWAP2 SWAP1 POP SSTORE POP CALLER PUSH20 0xFFFFFFFFFFFFFFFFFFFFFFFFFFFFFFFFFFFFFFFF AND DUP4 PUSH32 0xB65DCACAABDD1C739EC12F70F9F2FC5628C616D2940061108347F4008D9CEB0E DUP5 PUSH1 0x40 MLOAD PUSH2 0x427 SWAP2 SWAP1 PUSH2 0xD54 JUMP JUMPDEST PUSH1 0x40 MLOAD DUP1 SWAP2 SUB SWAP1 LOG3 DUP1 PUSH1 0x6 ADD SLOAD DUP2 PUSH1 0x5 ADD SLOAD SUB PUSH2 0x448 JUMPI PUSH2 0x447 DUP4 PUSH2 0x44D JUMP JUMPDEST JUMPDEST POP POP POP JUMP JUMPDEST PUSH0 PUSH0 PUSH0 DUP4 DUP2 MSTORE PUSH1 0x20 ADD SWAP1 DUP2 MSTORE PUSH1 0x20 ADD PUSH0 KECCAK256 SWAP1 POP PUSH0 DUP2 PUSH1 0x6 ADD SLOAD GT PUSH2 0x4A6 JUMPI PUSH1 0x40 MLOAD PUSH32 0x8C379A000000000000000000000000000000000000000000000000000000000 DUP2 MSTORE PUSH1 0x4 ADD PUSH2 0x49D SWAP1 PUSH2 0xDC7 JUMP JUMPDEST PUSH1 0x40 MLOAD DUP1 SWAP2 SUB SWAP1 REVERT JUMPDEST DUP1 PUSH1 0x8 ADD PUSH0 SWAP1 SLOAD SWAP1 PUSH2 0x100 EXP SWAP1 DIV PUSH1 0xFF AND ISZERO PUSH2 0x4F7 JUMPI PUSH1 0x40 MLOAD PUSH32 0x8C379A000000000000000000000000000000000000000000000000000000000 DUP2 MSTORE PUSH1 0x4 ADD PUSH2 0x4EE SWAP1 PUSH2 0xF73 JUMP JUMPDEST PUSH1 0x40 MLOAD DUP1 SWAP2 SUB SWAP1 REVERT JUMPDEST DUP1 PUSH1 0x6 ADD SLOAD DUP2 PUSH1 0x5 ADD SLOAD EQ PUSH2 0x541 JUMPI PUSH1 0x40 MLOAD PUSH32 0x8C379A000000000000000000000000000000000000000000000000000000000 DUP2 MSTORE PUSH1 0x4 ADD PUSH2 0x538 SWAP1 PUSH2 0xFDB JUMP JUMPDEST PUSH1 0x40 MLOAD DUP1 SWAP2 SUB SWAP1 REVERT JUMPDEST PUSH0 PUSH0 SWAP1 POP PUSH0 PUSH0 SWAP1 POP JUMPDEST DUP3 PUSH1 0x2 ADD DUP1 SLOAD SWAP1 POP DUP2 LT ISZERO PUSH2 0x5F0 JUMPI DUP3 PUSH1 0x3 ADD PUSH0 DUP5 PUSH1 0x2 ADD DUP4 DUP2 SLOAD DUP2 LT PUSH2 0x574 JUMPI PUSH2 0x573 PUSH2 0xFF9 JUMP JUMPDEST JUMPDEST SWAP1 PUSH0 MSTORE PUSH1 0x20 PUSH0 KECCAK256 ADD PUSH0 SWAP1 SLOAD SWAP1 PUSH2 0x100 EXP SWAP1 DIV PUSH20 0xFFFFFFFFFFFFFFFFFFFFFFFFFFFFFFFFFFFFFFFF AND PUSH20 0xFFFFFFFFFFFFFFFFFFFFFFFFFFFFFFFFFFFFFFFF AND PUSH20 0xFFFFFFFFFFFFFFFFFFFFFFFFFFFFFFFFFFFFFFFF AND DUP2 MSTORE PUSH1 0x20 ADD SWAP1 DUP2 MSTORE PUSH1 0x20 ADD PUSH0 KECCAK256 SLOAD DUP3 PUSH2 0x5E1 SWAP2 SWAP1 PUSH2 0x1026 JUMP JUMPDEST SWAP2 POP DUP1 DUP1 PUSH1 0x1 ADD SWAP2 POP POP PUSH2 0x54A JUMP JUMPDEST POP DUP2 PUSH1 0x6 ADD SLOAD DUP2 PUSH2 0x601 SWAP2 SWAP1 PUSH2 0x1086 JUMP JUMPDEST DUP3 PUSH1 0x7 ADD DUP2 SWAP1 SSTORE POP PUSH1 0x1 DUP3 PUSH1 0x8 ADD PUSH0 PUSH2 0x100 EXP DUP2 SLOAD DUP2 PUSH1 0xFF MUL NOT AND SWAP1 DUP4 ISZERO ISZERO MUL OR SWAP1 SSTORE POP DUP3 PUSH32 0x2892D598E4E0A5F04879C50284827A25921E2883E44EA0F7A4AD076B4BE83322 DUP4 PUSH1 0x7 ADD SLOAD PUSH1 0x40 MLOAD PUSH2 0x659 SWAP2 SWAP1 PUSH2 0xD54 JUMP JUMPDEST PUSH1 0x40 MLOAD DUP1 SWAP2 SUB SWAP1 LOG2 POP POP POP JUMP JUMPDEST PUSH0 PUSH0 DUP4 DUP4 SWAP1 POP GT PUSH2 0x6AC JUMPI PUSH1 0x40 MLOAD PUSH32 0x8C379A000000000000000000000000000000000000000000000000000000000 DUP2 MSTORE PUSH1 0x4 ADD PUSH2 0x6A3 SWAP1 PUSH2 0x1100 JUMP JUMPDEST PUSH1 0x40 MLOAD DUP1 SWAP2 SUB SWAP1 REVERT JUMPDEST PUSH0 TIMESTAMP PUSH1 0x1 PUSH0 DUP2 SLOAD DUP1 SWAP3 SWAP2 SWAP1 PUSH2 0x6C0 SWAP1 PUSH2 0xEE2 JUMP JUMPDEST SWAP2 SWAP1 POP SSTORE PUSH1 0x40 MLOAD PUSH1 0x20 ADD PUSH2 0x6D5 SWAP3 SWAP2 SWAP1 PUSH2 0x113E JUMP JUMPDEST PUSH1 0x40 MLOAD PUSH1 0x20 DUP2 DUP4 SUB SUB DUP2 MSTORE SWAP1 PUSH1 0x40 MSTORE DUP1 MLOAD SWAP1 PUSH1 0x20 ADD KECCAK256 SWAP1 POP PUSH0 PUSH0 PUSH0 DUP4 DUP2 MSTORE PUSH1 0x20 ADD SWAP1 DUP2 MSTORE PUSH1 0x20 ADD PUSH0 KECCAK256 SWAP1 POP DUP7 DUP2 PUSH0 ADD DUP2 SWAP1 SSTORE POP DUP6 DUP2 PUSH1 0x1 ADD DUP2 SWAP1 SSTORE POP DUP5 DUP5 DUP3 PUSH1 0x2 ADD SWAP2 SWAP1 PUSH2 0x724 SWAP3 SWAP2 SWAP1 PUSH2 0x94F JUMP JUMPDEST POP DUP5 DUP5 SWAP1 POP DUP2 PUSH1 0x6 ADD DUP2 SWAP1 SSTORE POP PUSH0 DUP2 PUSH1 0x5 ADD DUP2 SWAP1 SSTORE POP PUSH0 DUP2 PUSH1 0x8 ADD PUSH0 PUSH2 0x100 EXP DUP2 SLOAD DUP2 PUSH1 0xFF MUL NOT AND SWAP1 DUP4 ISZERO ISZERO MUL OR SWAP1 SSTORE POP PUSH0 PUSH0 SWAP1 POP JUMPDEST DUP6 DUP6 SWAP1 POP DUP2 LT ISZERO PUSH2 0x803 JUMPI DUP6 DUP6 DUP3 DUP2 DUP2 LT PUSH2 0x778 JUMPI PUSH2 0x777 PUSH2 0xFF9 JUMP JUMPDEST JUMPDEST SWAP1 POP PUSH1 0x20 MUL ADD PUSH1 0x20 DUP2 ADD SWAP1 PUSH2 0x78D SWAP2 SWAP1 PUSH2 0x1169 JUMP JUMPDEST PUSH20 0xFFFFFFFFFFFFFFFFFFFFFFFFFFFFFFFFFFFFFFFF AND PUSH4 0x35434170 DUP5 DUP11 DUP11 PUSH1 0x40 MLOAD DUP5 PUSH4 0xFFFFFFFF AND PUSH1 0xE0 SHL DUP2 MSTORE PUSH1 0x4 ADD PUSH2 0x7C9 SWAP4 SWAP3 SWAP2 SWAP1 PUSH2 0x1194 JUMP JUMPDEST PUSH0 PUSH1 0x40 MLOAD DUP1 DUP4 SUB DUP2 PUSH0 DUP8 DUP1 EXTCODESIZE ISZERO DUP1 ISZERO PUSH2 0x7E0 JUMPI PUSH0 PUSH0 REVERT JUMPDEST POP GAS CALL ISZERO DUP1 ISZERO PUSH2 0x7F2 JUMPI RETURNDATASIZE PUSH0 PUSH0 RETURNDATACOPY RETURNDATASIZE PUSH0 REVERT JUMPDEST POP POP POP POP DUP1 DUP1 PUSH1 0x1 ADD SWAP2 POP POP PUSH2 0x75A JUMP JUMPDEST POP DUP2 PUSH32 0x886BCECF5AFD8198EB4189263AE211916ADEB68A5BF7E3E5988E9F53446D1BB6 DUP9 DUP9 DUP9 DUP9 SWAP1 POP PUSH1 0x40 MLOAD PUSH2 0x83B SWAP4 SWAP3 SWAP2 SWAP1 PUSH2 0x11C9 JUMP JUMPDEST PUSH1 0x40 MLOAD DUP1 SWAP2 SUB SWAP1 LOG2 DUP2 SWAP3 POP POP POP SWAP5 SWAP4 POP POP POP POP JUMP JUMPDEST PUSH0 PUSH1 0x20 MSTORE DUP1 PUSH0 MSTORE PUSH1 0x40 PUSH0 KECCAK256 PUSH0 SWAP2 POP SWAP1 POP DUP1 PUSH0 ADD SLOAD SWAP1 DUP1 PUSH1 0x1 ADD SLOAD SWAP1 DUP1 PUSH1 0x5 ADD SLOAD SWAP1 DUP1 PUSH1 0x6 ADD SLOAD SWAP1 DUP1 PUSH1 0x7 ADD SLOAD SWAP1 DUP1 PUSH1 0x8 ADD PUSH0 SWAP1 SLOAD SWAP1 PUSH2 0x100 EXP SWAP1 DIV PUSH1 0xFF AND SWAP1 POP DUP7 JUMP JUMPDEST PUSH0 PUSH0 PUSH0 DUP5 DUP2 MSTORE PUSH1 0x20 ADD SWAP1 DUP2 MSTORE PUSH1 0x20 ADD PUSH0 KECCAK256 PUSH1 0x4 ADD PUSH0 DUP4 PUSH20 0xFFFFFFFFFFFFFFFFFFFFFFFFFFFFFFFFFFFFFFFF AND PUSH20 0xFFFFFFFFFFFFFFFFFFFFFFFFFFFFFFFFFFFFFFFF AND DUP2 MSTORE PUSH1 0x20 ADD SWAP1 DUP2 MSTORE PUSH1 0x20 ADD PUSH0 KECCAK256 PUSH0 SWAP1 SLOAD SWAP1 PUSH2 0x100 EXP SWAP1 DIV PUSH1 0xFF AND SWAP1 POP SWAP3 SWAP2 POP POP JUMP JUMPDEST PUSH0 PUSH0 PUSH0 DUP5 DUP2 MSTORE PUSH1 0x20 ADD SWAP1 DUP2 MSTORE PUSH1 0x20 ADD PUSH0 KECCAK256 PUSH1 0x3 ADD PUSH0 DUP4 PUSH20 0xFFFFFFFFFFFFFFFFFFFFFFFFFFFFFFFFFFFFFFFF AND PUSH20 0xFFFFFFFFFFFFFFFFFFFFFFFFFFFFFFFFFFFFFFFF AND DUP2 MSTORE PUSH1 0x20 ADD SWAP1 DUP2 MSTORE PUSH1 0x20 ADD PUSH0 KECCAK256 SLOAD SWAP1 POP SWAP3 SWAP2 POP POP JUMP JUMPDEST DUP3 DUP1 SLOAD DUP3 DUP3 SSTORE SWAP1 PUSH0 MSTORE PUSH1 0x20 PUSH0 KECCAK256 SWAP1 DUP2 ADD SWAP3 DUP3 ISZERO PUSH2 0x9DB JUMPI SWAP2 PUSH1 0x20 MUL DUP3 ADD JUMPDEST DUP3 DUP2 GT ISZERO PUSH2 0x9DA JUMPI DUP3 CALLDATALOAD PUSH20 0xFFFFFFFFFFFFFFFFFFFFFFFFFFFFFFFFFFFFFFFF AND DUP3 PUSH0 PUSH2 0x100 EXP DUP2 SLOAD DUP2 PUSH20 0xFFFFFFFFFFFFFFFFFFFFFFFFFFFFFFFFFFFFFFFF MUL NOT AND SWAP1 DUP4 PUSH20 0xFFFFFFFFFFFFFFFFFFFFFFFFFFFFFFFFFFFFFFFF AND MUL OR SWAP1 SSTORE POP SWAP2 PUSH1 0x20 ADD SWAP2 SWAP1 PUSH1 0x1 ADD SWAP1 PUSH2 0x96D JUMP JUMPDEST JUMPDEST POP SWAP1 POP PUSH2 0x9E8 SWAP2 SWAP1 PUSH2 0x9EC JUMP JUMPDEST POP SWAP1 JUMP JUMPDEST JUMPDEST DUP1 DUP3 GT ISZERO PUSH2 0xA03 JUMPI PUSH0 DUP2 PUSH0 SWAP1 SSTORE POP PUSH1 0x1 ADD PUSH2 0x9ED JUMP JUMPDEST POP SWAP1 JUMP JUMPDEST PUSH0 PUSH0 REVERT JUMPDEST PUSH0 PUSH0 REVERT JUMPDEST PUSH0 DUP2 SWAP1 POP SWAP2 SWAP1 POP JUMP JUMPDEST PUSH2 0xA21 DUP2 PUSH2 0xA0F JUMP JUMPDEST DUP2 EQ PUSH2 0xA2B JUMPI PUSH0 PUSH0 REVERT JUMPDEST POP JUMP JUMPDEST PUSH0 DUP2 CALLDATALOAD SWAP1 POP PUSH2 0xA3C DUP2 PUSH2 0xA18 JUMP JUMPDEST SWAP3 SWAP2 POP POP JUMP JUMPDEST PUSH0 PUSH1 0x20 DUP3 DUP5 SUB SLT ISZERO PUSH2 0xA57 JUMPI PUSH2 0xA56 PUSH2 0xA07 JUMP JUMPDEST JUMPDEST PUSH0 PUSH2 0xA64 DUP5 DUP3 DUP6 ADD PUSH2 0xA2E JUMP JUMPDEST SWAP2 POP POP SWAP3 SWAP2 POP POP JUMP JUMPDEST PUSH0 DUP2 SWAP1 POP SWAP2 SWAP1 POP JUMP JUMPDEST PUSH2 0xA7F DUP2 PUSH2 0xA6D JUMP JUMPDEST DUP3 MSTORE POP POP JUMP JUMPDEST PUSH0 DUP2 ISZERO ISZERO SWAP1 POP SWAP2 SWAP1 POP JUMP JUMPDEST PUSH2 0xA99 DUP2 PUSH2 0xA85 JUMP JUMPDEST DUP3 MSTORE POP POP JUMP JUMPDEST PUSH0 PUSH1 0x80 DUP3 ADD SWAP1 POP PUSH2 0xAB2 PUSH0 DUP4 ADD DUP8 PUSH2 0xA76 JUMP JUMPDEST PUSH2 0xABF PUSH1 0x20 DUP4 ADD DUP7 PUSH2 0xA76 JUMP JUMPDEST PUSH2 0xACC PUSH1 0x40 DUP4 ADD DUP6 PUSH2 0xA76 JUMP JUMPDEST PUSH2 0xAD9 PUSH1 0x60 DUP4 ADD DUP5 PUSH2 0xA90 JUMP JUMPDEST SWAP6 SWAP5 POP POP POP POP POP JUMP JUMPDEST PUSH2 0xAEB DUP2 PUSH2 0xA6D JUMP JUMPDEST DUP2 EQ PUSH2 0xAF5 JUMPI PUSH0 PUSH0 REVERT JUMPDEST POP JUMP JUMPDEST PUSH0 DUP2 CALLDATALOAD SWAP1 POP PUSH2 0xB06 DUP2 PUSH2 0xAE2 JUMP JUMPDEST SWAP3 SWAP2 POP POP JUMP JUMPDEST PUSH0 PUSH0 PUSH1 0x40 DUP4 DUP6 SUB SLT ISZERO PUSH2 0xB22 JUMPI PUSH2 0xB21 PUSH2 0xA07 JUMP JUMPDEST JUMPDEST PUSH0 PUSH2 0xB2F DUP6 DUP3 DUP7 ADD PUSH2 0xA2E JUMP JUMPDEST SWAP3 POP POP PUSH1 0x20 PUSH2 0xB40 DUP6 DUP3 DUP7 ADD PUSH2 0xAF8 JUMP JUMPDEST SWAP2 POP POP SWAP3 POP SWAP3 SWAP1 POP JUMP JUMPDEST PUSH0 PUSH0 REVERT JUMPDEST PUSH0 PUSH0 REVERT JUMPDEST PUSH0 PUSH0 REVERT JUMPDEST PUSH0 PUSH0 DUP4 PUSH1 0x1F DUP5 ADD SLT PUSH2 0xB6B JUMPI PUSH2 0xB6A PUSH2 0xB4A JUMP JUMPDEST JUMPDEST DUP3 CALLDATALOAD SWAP1 POP PUSH8 0xFFFFFFFFFFFFFFFF DUP2 GT ISZERO PUSH2 0xB88 JUMPI PUSH2 0xB87 PUSH2 0xB4E JUMP JUMPDEST JUMPDEST PUSH1 0x20 DUP4 ADD SWAP2 POP DUP4 PUSH1 0x20 DUP3 MUL DUP4 ADD GT ISZERO PUSH2 0xBA4 JUMPI PUSH2 0xBA3 PUSH2 0xB52 JUMP JUMPDEST JUMPDEST SWAP3 POP SWAP3 SWAP1 POP JUMP JUMPDEST PUSH0 PUSH0 PUSH0 PUSH0 PUSH1 0x60 DUP6 DUP8 SUB SLT ISZERO PUSH2 0xBC3 JUMPI PUSH2 0xBC2 PUSH2 0xA07 JUMP JUMPDEST JUMPDEST PUSH0 PUSH2 0xBD0 DUP8 DUP3 DUP9 ADD PUSH2 0xAF8 JUMP JUMPDEST SWAP5 POP POP PUSH1 0x20 PUSH2 0xBE1 DUP8 DUP3 DUP9 ADD PUSH2 0xAF8 JUMP JUMPDEST SWAP4 POP POP PUSH1 0x40 DUP6 ADD CALLDATALOAD PUSH8 0xFFFFFFFFFFFFFFFF DUP2 GT ISZERO PUSH2 0xC02 JUMPI PUSH2 0xC01 PUSH2 0xA0B JUMP JUMPDEST JUMPDEST PUSH2 0xC0E DUP8 DUP3 DUP9 ADD PUSH2 0xB56 JUMP JUMPDEST SWAP3 POP SWAP3 POP POP SWAP3 SWAP6 SWAP2 SWAP5 POP SWAP3 POP JUMP JUMPDEST PUSH2 0xC25 DUP2 PUSH2 0xA0F JUMP JUMPDEST DUP3 MSTORE POP POP JUMP JUMPDEST PUSH0 PUSH1 0x20 DUP3 ADD SWAP1 POP PUSH2 0xC3E PUSH0 DUP4 ADD DUP5 PUSH2 0xC1C JUMP JUMPDEST SWAP3 SWAP2 POP POP JUMP JUMPDEST PUSH0 PUSH1 0xC0 DUP3 ADD SWAP1 POP PUSH2 0xC57 PUSH0 DUP4 ADD DUP10 PUSH2 0xA76 JUMP JUMPDEST PUSH2 0xC64 PUSH1 0x20 DUP4 ADD DUP9 PUSH2 0xA76 JUMP JUMPDEST PUSH2 0xC71 PUSH1 0x40 DUP4 ADD DUP8 PUSH2 0xA76 JUMP JUMPDEST PUSH2 0xC7E PUSH1 0x60 DUP4 ADD DUP7 PUSH2 0xA76 JUMP JUMPDEST PUSH2 0xC8B PUSH1 0x80 DUP4 ADD DUP6 PUSH2 0xA76 JUMP JUMPDEST PUSH2 0xC98 PUSH1 0xA0 DUP4 ADD DUP5 PUSH2 0xA90 JUMP JUMPDEST SWAP8 SWAP7 POP POP POP POP POP POP POP JUMP JUMPDEST PUSH0 PUSH20 0xFFFFFFFFFFFFFFFFFFFFFFFFFFFFFFFFFFFFFFFF DUP3 AND SWAP1 POP SWAP2 SWAP1 POP JUMP JUMPDEST PUSH0 PUSH2 0xCCC DUP3 PUSH2 0xCA3 JUMP JUMPDEST SWAP1 POP SWAP2 SWAP1 POP JUMP JUMPDEST PUSH2 0xCDC DUP2 PUSH2 0xCC2 JUMP JUMPDEST DUP2 EQ PUSH2 0xCE6 JUMPI PUSH0 PUSH0 REVERT JUMPDEST POP JUMP JUMPDEST PUSH0 DUP2 CALLDATALOAD SWAP1 POP PUSH2 0xCF7 DUP2 PUSH2 0xCD3 JUMP JUMPDEST SWAP3 SWAP2 POP POP JUMP JUMPDEST PUSH0 PUSH0 PUSH1 0x40 DUP4 DUP6 SUB SLT ISZERO PUSH2 0xD13 JUMPI PUSH2 0xD12 PUSH2 0xA07 JUMP JUMPDEST JUMPDEST PUSH0 PUSH2 0xD20 DUP6 DUP3 DUP7 ADD PUSH2 0xA2E JUMP JUMPDEST SWAP3 POP POP PUSH1 0x20 PUSH2 0xD31 DUP6 DUP3 DUP7 ADD PUSH2 0xCE9 JUMP JUMPDEST SWAP2 POP POP SWAP3 POP SWAP3 SWAP1 POP JUMP JUMPDEST PUSH0 PUSH1 0x20 DUP3 ADD SWAP1 POP PUSH2 0xD4E PUSH0 DUP4 ADD DUP5 PUSH2 0xA90 JUMP JUMPDEST SWAP3 SWAP2 POP POP JUMP JUMPDEST PUSH0 PUSH1 0x20 DUP3 ADD SWAP1 POP PUSH2 0xD67 PUSH0 DUP4 ADD DUP5 PUSH2 0xA76 JUMP JUMPDEST SWAP3 SWAP2 POP POP JUMP JUMPDEST PUSH0 DUP3 DUP3 MSTORE PUSH1 0x20 DUP3 ADD SWAP1 POP SWAP3 SWAP2 POP POP JUMP JUMPDEST PUSH32 0x496E76616C696420726571756573742049440000000000000000000000000000 PUSH0 DUP3 ADD MSTORE POP JUMP JUMPDEST PUSH0 PUSH2 0xDB1 PUSH1 0x12 DUP4 PUSH2 0xD6D JUMP JUMPDEST SWAP2 POP PUSH2 0xDBC DUP3 PUSH2 0xD7D JUMP JUMPDEST PUSH1 0x20 DUP3 ADD SWAP1 POP SWAP2 SWAP1 POP JUMP JUMPDEST PUSH0 PUSH1 0x20 DUP3 ADD SWAP1 POP DUP2 DUP2 SUB PUSH0 DUP4 ADD MSTORE PUSH2 0xDDE DUP2 PUSH2 0xDA5 JUMP JUMPDEST SWAP1 POP SWAP2 SWAP1 POP JUMP JUMPDEST PUSH32 0x4E6F646520616C726561647920726573706F6E64656400000000000000000000 PUSH0 DUP3 ADD MSTORE POP JUMP JUMPDEST PUSH0 PUSH2 0xE19 PUSH1 0x16 DUP4 PUSH2 0xD6D JUMP JUMPDEST SWAP2 POP PUSH2 0xE24 DUP3 PUSH2 0xDE5 JUMP JUMPDEST PUSH1 0x20 DUP3 ADD SWAP1 POP SWAP2 SWAP1 POP JUMP JUMPDEST PUSH0 PUSH1 0x20 DUP3 ADD SWAP1 POP DUP2 DUP2 SUB PUSH0 DUP4 ADD MSTORE PUSH2 0xE46 DUP2 PUSH2 0xE0D JUMP JUMPDEST SWAP1 POP SWAP2 SWAP1 POP JUMP JUMPDEST PUSH32 0x5265717565737420616C726561647920636F6D706C6574656400000000000000 PUSH0 DUP3 ADD MSTORE POP JUMP JUMPDEST PUSH0 PUSH2 0xE81 PUSH1 0x19 DUP4 PUSH2 0xD6D JUMP JUMPDEST SWAP2 POP PUSH2 0xE8C DUP3 PUSH2 0xE4D JUMP JUMPDEST PUSH1 0x20 DUP3 ADD SWAP1 POP SWAP2 SWAP1 POP JUMP JUMPDEST PUSH0 PUSH1 0x20 DUP3 ADD SWAP1 POP DUP2 DUP2 SUB PUSH0 DUP4 ADD MSTORE PUSH2 0xEAE DUP2 PUSH2 0xE75 JUMP JUMPDEST SWAP1 POP SWAP2 SWAP1 POP JUMP JUMPDEST PUSH32 0x4E487B7100000000000000000000000000000000000000000000000000000000 PUSH0 MSTORE PUSH1 0x11 PUSH1 0x4 MSTORE PUSH1 0x24 PUSH0 REVERT JUMPDEST PUSH0 PUSH2 0xEEC DUP3 PUSH2 0xA6D JUMP JUMPDEST SWAP2 POP PUSH32 0xFFFFFFFFFFFFFFFFFFFFFFFFFFFFFFFFFFFFFFFFFFFFFFFFFFFFFFFFFFFFFFFF DUP3 SUB PUSH2 0xF1E JUMPI PUSH2 0xF1D PUSH2 0xEB5 JUMP JUMPDEST JUMPDEST PUSH1 0x1 DUP3 ADD SWAP1 POP SWAP2 SWAP1 POP JUMP JUMPDEST PUSH32 0x416C72656164792063616C63756C617465640000000000000000000000000000 PUSH0 DUP3 ADD MSTORE POP JUMP JUMPDEST PUSH0 PUSH2 0xF5D PUSH1 0x12 DUP4 PUSH2 0xD6D JUMP JUMPDEST SWAP2 POP PUSH2 0xF68 DUP3 PUSH2 0xF29 JUMP JUMPDEST PUSH1 0x20 DUP3 ADD SWAP1 POP SWAP2 SWAP1 POP JUMP JUMPDEST PUSH0 PUSH1 0x20 DUP3 ADD SWAP1 POP DUP2 DUP2 SUB PUSH0 DUP4 ADD MSTORE PUSH2 0xF8A DUP2 PUSH2 0xF51 JUMP JUMPDEST SWAP1 POP SWAP2 SWAP1 POP JUMP JUMPDEST PUSH32 0x4E6F7420616C6C206E6F64657320726573706F6E646564207965740000000000 PUSH0 DUP3 ADD MSTORE POP JUMP JUMPDEST PUSH0 PUSH2 0xFC5 PUSH1 0x1B DUP4 PUSH2 0xD6D JUMP JUMPDEST SWAP2 POP PUSH2 0xFD0 DUP3 PUSH2 0xF91 JUMP JUMPDEST PUSH1 0x20 DUP3 ADD SWAP1 POP SWAP2 SWAP1 POP JUMP JUMPDEST PUSH0 PUSH1 0x20 DUP3 ADD SWAP1 POP DUP2 DUP2 SUB PUSH0 DUP4 ADD MSTORE PUSH2 0xFF2 DUP2 PUSH2 0xFB9 JUMP JUMPDEST SWAP1 POP SWAP2 SWAP1 POP JUMP JUMPDEST PUSH32 0x4E487B7100000000000000000000000000000000000000000000000000000000 PUSH0 MSTORE PUSH1 0x32 PUSH1 0x4 MSTORE PUSH1 0x24 PUSH0 REVERT JUMPDEST PUSH0 PUSH2 0x1030 DUP3 PUSH2 0xA6D JUMP JUMPDEST SWAP2 POP PUSH2 0x103B DUP4 PUSH2 0xA6D JUMP JUMPDEST SWAP3 POP DUP3 DUP3 ADD SWAP1 POP DUP1 DUP3 GT ISZERO PUSH2 0x1053 JUMPI PUSH2 0x1052 PUSH2 0xEB5 JUMP JUMPDEST JUMPDEST SWAP3 SWAP2 POP POP JUMP JUMPDEST PUSH32 0x4E487B7100000000000000000000000000000000000000000000000000000000 PUSH0 MSTORE PUSH1 0x12 PUSH1 0x4 MSTORE PUSH1 0x24 PUSH0 REVERT JUMPDEST PUSH0 PUSH2 0x1090 DUP3 PUSH2 0xA6D JUMP JUMPDEST SWAP2 POP PUSH2 0x109B DUP4 PUSH2 0xA6D JUMP JUMPDEST SWAP3 POP DUP3 PUSH2 0x10AB JUMPI PUSH2 0x10AA PUSH2 0x1059 JUMP JUMPDEST JUMPDEST DUP3 DUP3 DIV SWAP1 POP SWAP3 SWAP2 POP POP JUMP JUMPDEST PUSH32 0x4E6F206E6F6465732070726F7669646564000000000000000000000000000000 PUSH0 DUP3 ADD MSTORE POP JUMP JUMPDEST PUSH0 PUSH2 0x10EA PUSH1 0x11 DUP4 PUSH2 0xD6D JUMP JUMPDEST SWAP2 POP PUSH2 0x10F5 DUP3 PUSH2 0x10B6 JUMP JUMPDEST PUSH1 0x20 DUP3 ADD SWAP1 POP SWAP2 SWAP1 POP JUMP JUMPDEST PUSH0 PUSH1 0x20 DUP3 ADD SWAP1 POP DUP2 DUP2 SUB PUSH0 DUP4 ADD MSTORE PUSH2 0x1117 DUP2 PUSH2 0x10DE JUMP JUMPDEST SWAP1 POP SWAP2 SWAP1 POP JUMP JUMPDEST PUSH0 DUP2 SWAP1 POP SWAP2 SWAP1 POP JUMP JUMPDEST PUSH2 0x1138 PUSH2 0x1133 DUP3 PUSH2 0xA6D JUMP JUMPDEST PUSH2 0x111E JUMP JUMPDEST DUP3 MSTORE POP POP JUMP JUMPDEST PUSH0 PUSH2 0x1149 DUP3 DUP6 PUSH2 0x1127 JUMP JUMPDEST PUSH1 0x20 DUP3 ADD SWAP2 POP PUSH2 0x1159 DUP3 DUP5 PUSH2 0x1127 JUMP JUMPDEST PUSH1 0x20 DUP3 ADD SWAP2 POP DUP2 SWAP1 POP SWAP4 SWAP3 POP POP POP JUMP JUMPDEST PUSH0 PUSH1 0x20 DUP3 DUP5 SUB SLT ISZERO PUSH2 0x117E JUMPI PUSH2 0x117D PUSH2 0xA07 JUMP JUMPDEST JUMPDEST PUSH0 PUSH2 0x118B DUP5 DUP3 DUP6 ADD PUSH2 0xCE9 JUMP JUMPDEST SWAP2 POP POP SWAP3 SWAP2 POP POP JUMP JUMPDEST PUSH0 PUSH1 0x60 DUP3 ADD SWAP1 POP PUSH2 0x11A7 PUSH0 DUP4 ADD DUP7 PUSH2 0xC1C JUMP JUMPDEST PUSH2 0x11B4 PUSH1 0x20 DUP4 ADD DUP6 PUSH2 0xA76 JUMP JUMPDEST PUSH2 0x11C1 PUSH1 0x40 DUP4 ADD DUP5 PUSH2 0xA76 JUMP JUMPDEST SWAP5 SWAP4 POP POP POP POP JUMP JUMPDEST PUSH0 PUSH1 0x60 DUP3 ADD SWAP1 POP PUSH2 0x11DC PUSH0 DUP4 ADD DUP7 PUSH2 0xA76 JUMP JUMPDEST PUSH2 0x11E9 PUSH1 0x20 DUP4 ADD DUP6 PUSH2 0xA76 JUMP JUMPDEST PUSH2 0x11F6 PUSH1 0x40 DUP4 ADD DUP5 PUSH2 0xA76 JUMP JUMPDEST SWAP5 SWAP4 POP POP POP POP JUMP INVALID LOG2 PUSH5 0x6970667358 0x22 SLT KECCAK256 ISZERO CLZ 0xAD 0xD2 POP PUSH1 0x27 PUSH16 0x72F9101E9BB412209EE9AB612CE05F6C 0xED PUSH11 0x11F3029624D964736F6C63 NUMBER STOP ADDMOD 0x1F STOP CALLER "
				},
				"gasEstimates": {
					"creation": {
						"codeDepositCost": "932000",
						"executionCost": "966",
						"totalCost": "932966"
					},
					"external": {
						"calculateAverage(bytes32)": "infinite",
						"getNodeScore(bytes32,address)": "3146",
						"getRequestStatus(bytes32)": "infinite",
						"hasNodeResponded(bytes32,address)": "3165",
						"requestNodeScoring(uint256,uint256,address[])": "infinite",
						"requests(bytes32)": "infinite",
						"submitScore(bytes32,uint256)": "infinite"
					}
				},
				"methodIdentifiers": {
					"calculateAverage(bytes32)": "59e9e22b",
					"getNodeScore(bytes32,address)": "fab7d44b",
					"getRequestStatus(bytes32)": "45d07664",
					"hasNodeResponded(bytes32,address)": "bcf88653",
					"requestNodeScoring(uint256,uint256,address[])": "82a87c01",
					"requests(bytes32)": "9d866985",
					"submitScore(bytes32,uint256)": "512fed43"
				}
			},
			"storageLayout": {
				"storage": [
					{
						"astId": 50,
						"contract": "contracts/DemoScoringNodes.sol:DemoScoringNodes",
						"label": "requests",
						"offset": 0,
						"slot": "0",
						"type": "t_mapping(t_bytes32,t_struct(ScoringRequest)45_storage)"
					},
					{
						"astId": 52,
						"contract": "contracts/DemoScoringNodes.sol:DemoScoringNodes",
						"label": "requestCounter",
						"offset": 0,
						"slot": "1",
						"type": "t_uint256"
					}
				],
				"types": {
					"t_address": {
						"encoding": "inplace",
						"label": "address",
						"numberOfBytes": "20"
					},
					"t_array(t_address)dyn_storage": {
						"base": "t_address",
						"encoding": "dynamic_array",
						"label": "address[]",
						"numberOfBytes": "32"
					},
					"t_bool": {
						"encoding": "inplace",
						"label": "bool",
						"numberOfBytes": "1"
					},
					"t_bytes32": {
						"encoding": "inplace",
						"label": "bytes32",
						"numberOfBytes": "32"
					},
					"t_mapping(t_address,t_bool)": {
						"encoding": "mapping",
						"key": "t_address",
						"label": "mapping(address => bool)",
						"numberOfBytes": "32",
						"value": "t_bool"
					},
					"t_mapping(t_address,t_uint256)": {
						"encoding": "mapping",
						"key": "t_address",
						"label": "mapping(address => uint256)",
						"numberOfBytes": "32",
						"value": "t_uint256"
					},
					"t_mapping(t_bytes32,t_struct(ScoringRequest)45_storage)": {
						"encoding": "mapping",
						"key": "t_bytes32",
						"label": "mapping(bytes32 => struct DemoScoringNodes.ScoringRequest)",
						"numberOfBytes": "32",
						"value": "t_struct(ScoringRequest)45_storage"
					},
					"t_struct(ScoringRequest)45_storage": {
						"encoding": "inplace",
						"label": "struct DemoScoringNodes.ScoringRequest",
						"members": [
							{
								"astId": 23,
								"contract": "contracts/DemoScoringNodes.sol:DemoScoringNodes",
								"label": "coordX",
								"offset": 0,
								"slot": "0",
								"type": "t_uint256"
							},
							{
								"astId": 25,
								"contract": "contracts/DemoScoringNodes.sol:DemoScoringNodes",
								"label": "coordY",
								"offset": 0,
								"slot": "1",
								"type": "t_uint256"
							},
							{
								"astId": 28,
								"contract": "contracts/DemoScoringNodes.sol:DemoScoringNodes",
								"label": "nodes",
								"offset": 0,
								"slot": "2",
								"type": "t_array(t_address)dyn_storage"
							},
							{
								"astId": 32,
								"contract": "contracts/DemoScoringNodes.sol:DemoScoringNodes",
								"label": "scores",
								"offset": 0,
								"slot": "3",
								"type": "t_mapping(t_address,t_uint256)"
							},
							{
								"astId": 36,
								"contract": "contracts/DemoScoringNodes.sol:DemoScoringNodes",
								"label": "hasResponded",
								"offset": 0,
								"slot": "4",
								"type": "t_mapping(t_address,t_bool)"
							},
							{
								"astId": 38,
								"contract": "contracts/DemoScoringNodes.sol:DemoScoringNodes",
								"label": "respondedCount",
								"offset": 0,
								"slot": "5",
								"type": "t_uint256"
							},
							{
								"astId": 40,
								"contract": "contracts/DemoScoringNodes.sol:DemoScoringNodes",
								"label": "totalNodes",
								"offset": 0,
								"slot": "6",
								"type": "t_uint256"
							},
							{
								"astId": 42,
								"contract": "contracts/DemoScoringNodes.sol:DemoScoringNodes",
								"label": "averageScore",
								"offset": 0,
								"slot": "7",
								"type": "t_uint256"
							},
							{
								"astId": 44,
								"contract": "contracts/DemoScoringNodes.sol:DemoScoringNodes",
								"label": "isComplete",
								"offset": 0,
								"slot": "8",
								"type": "t_bool"
							}
						],
						"numberOfBytes": "288"
					},
					"t_uint256": {
						"encoding": "inplace",
						"label": "uint256",
						"numberOfBytes": "32"
					}
				}
			},
			"userdoc": {
				"kind": "user",
				"methods": {},
				"version": 1
			}
		}
	}
}