{
	"data": {
		"bytecode": {
			"linkReferences": {},
			"object": "6080604052348015600e575f5ffd5b506112538061001c5f395ff3fe608060405234801561000f575f5ffd5b506004361061007b575f3560e01c806382a87c011161005957806382a87c01146100ea5780639d8669851461011a578063bcf886531461014f578063fab7d44b1461017f5761007b565b806345d076641461007f578063512fed43146100b257806359e9e22b146100ce575b5f5ffd5b61009960048036038101906100949190610a44565b6101af565b6040516100a99493929190610aa1565b60405180910390f35b6100cc60048036038101906100c79190610b0e565b6101f6565b005b6100e860048036038101906100e39190610a44565b61044d565b005b61010460048036038101906100ff9190610bad565b610666565b6040516101119190610c2d565b60405180910390f35b610134600480360381019061012f9190610a44565b610852565b60405161014696959493929190610c46565b60405180910390f35b61016960048036038101906101649190610cff565b610895565b6040516101769190610d3d565b60405180910390f35b61019960048036038101906101949190610cff565b6108f9565b6040516101a69190610d56565b60405180910390f35b5f5f5f5f5f5f5f8781526020019081526020015f209050806005015481600601548260070154836008015f9054906101000a900460ff169450945094509450509193509193565b5f5f5f8481526020019081526020015f2090505f81600601541161024f576040517f08c379a000000000000000000000000000000000000000000000000000000000815260040161024690610dc9565b60405180910390fd5b806004015f3373ffffffffffffffffffffffffffffffffffffffff1673ffffffffffffffffffffffffffffffffffffffff1681526020019081526020015f205f9054906101000a900460ff16156102db576040517f08c379a00000000000000000000000000000000000000000000000000000000081526004016102d290610e31565b60405180910390fd5b806008015f9054906101000a900460ff161561032c576040517f08c379a000000000000000000000000000000000000000000000000000000000815260040161032390610e99565b60405180910390fd5b81816003015f3373ffffffffffffffffffffffffffffffffffffffff1673ffffffffffffffffffffffffffffffffffffffff1681526020019081526020015f20819055506001816004015f3373ffffffffffffffffffffffffffffffffffffffff1673ffffffffffffffffffffffffffffffffffffffff1681526020019081526020015f205f6101000a81548160ff021916908315150217905550806005015f8154809291906103db90610ee4565b91905055503373ffffffffffffffffffffffffffffffffffffffff16837fb65dcacaabdd1c739ec12f70f9f2fc5628c616d2940061108347f4008d9ceb0e846040516104279190610d56565b60405180910390a38060060154816005015403610448576104478361044d565b5b505050565b5f5f5f8381526020019081526020015f2090505f8160060154116104a6576040517f08c379a000000000000000000000000000000000000000000000000000000000815260040161049d90610dc9565b60405180910390fd5b806008015f9054906101000a900460ff16156104f7576040517f08c379a00000000000000000000000000000000000000000000000000000000081526004016104ee90610f75565b60405180910390fd5b8060060154816005015414610541576040517f08c379a000000000000000000000000000000000000000000000000000000000815260040161053890610fdd565b60405180910390fd5b5f5f90505f5f90505b82600201805490508110156105f057826003015f84600201838154811061057457610573610ffb565b5b905f5260205f20015f9054906101000a900473ffffffffffffffffffffffffffffffffffffffff1673ffffffffffffffffffffffffffffffffffffffff1673ffffffffffffffffffffffffffffffffffffffff1681526020019081526020015f2054826105e19190611028565b9150808060010191505061054a565b508160060154816106019190611088565b82600701819055506001826008015f6101000a81548160ff021916908315150217905550827f2892d598e4e0a5f04879c50284827a25921e2883e44ea0f7a4ad076b4be8332283600701546040516106599190610d56565b60405180910390a2505050565b5f5f83839050116106ac576040517f08c379a00000000000000000000000000000000000000000000000000000000081526004016106a390611102565b60405180910390fd5b5f4260015f8154809291906106c090610ee4565b919050556040516020016106d5929190611140565b6040516020818303038152906040528051906020012090505f5f5f8381526020019081526020015f20905086815f01819055508581600101819055508484826002019190610724929190610951565b508484905081600601819055505f81600501819055505f816008015f6101000a81548160ff0219169083151502179055505f5f90505b858590508110156108055785858281811061077857610777610ffb565b5b905060200201602081019061078d919061116b565b73ffffffffffffffffffffffffffffffffffffffff166388d80823848a8a306040518563ffffffff1660e01b81526004016107cb94939291906111a5565b5f604051808303815f87803b1580156107e2575f5ffd5b505af11580156107f4573d5f5f3e3d5ffd5b50505050808060010191505061075a565b50817f886bcecf5afd8198eb4189263ae211916adeb68a5bf7e3e5988e9f53446d1bb688888888905060405161083d939291906111e8565b60405180910390a28192505050949350505050565b5f602052805f5260405f205f91509050805f015490806001015490806005015490806006015490806007015490806008015f9054906101000a900460ff16905086565b5f5f5f8481526020019081526020015f206004015f8373ffffffffffffffffffffffffffffffffffffffff1673ffffffffffffffffffffffffffffffffffffffff1681526020019081526020015f205f9054906101000a900460ff16905092915050565b5f5f5f8481526020019081526020015f206003015f8373ffffffffffffffffffffffffffffffffffffffff1673ffffffffffffffffffffffffffffffffffffffff1681526020019081526020015f2054905092915050565b828054828255905f5260205f209081019282156109dd579160200282015b828111156109dc57823573ffffffffffffffffffffffffffffffffffffffff16825f6101000a81548173ffffffffffffffffffffffffffffffffffffffff021916908373ffffffffffffffffffffffffffffffffffffffff1602179055509160200191906001019061096f565b5b5090506109ea91906109ee565b5090565b5b80821115610a05575f815f9055506001016109ef565b5090565b5f5ffd5b5f5ffd5b5f819050919050565b610a2381610a11565b8114610a2d575f5ffd5b50565b5f81359050610a3e81610a1a565b92915050565b5f60208284031215610a5957610a58610a09565b5b5f610a6684828501610a30565b91505092915050565b5f819050919050565b610a8181610a6f565b82525050565b5f8115159050919050565b610a9b81610a87565b82525050565b5f608082019050610ab45f830187610a78565b610ac16020830186610a78565b610ace6040830185610a78565b610adb6060830184610a92565b95945050505050565b610aed81610a6f565b8114610af7575f5ffd5b50565b5f81359050610b0881610ae4565b92915050565b5f5f60408385031215610b2457610b23610a09565b5b5f610b3185828601610a30565b9250506020610b4285828601610afa565b9150509250929050565b5f5ffd5b5f5ffd5b5f5ffd5b5f5f83601f840112610b6d57610b6c610b4c565b5b8235905067ffffffffffffffff811115610b8a57610b89610b50565b5b602083019150836020820283011115610ba657610ba5610b54565b5b9250929050565b5f5f5f5f60608587031215610bc557610bc4610a09565b5b5f610bd287828801610afa565b9450506020610be387828801610afa565b935050604085013567ffffffffffffffff811115610c0457610c03610a0d565b5b610c1087828801610b58565b925092505092959194509250565b610c2781610a11565b82525050565b5f602082019050610c405f830184610c1e565b92915050565b5f60c082019050610c595f830189610a78565b610c666020830188610a78565b610c736040830187610a78565b610c806060830186610a78565b610c8d6080830185610a78565b610c9a60a0830184610a92565b979650505050505050565b5f73ffffffffffffffffffffffffffffffffffffffff82169050919050565b5f610cce82610ca5565b9050919050565b610cde81610cc4565b8114610ce8575f5ffd5b50565b5f81359050610cf981610cd5565b92915050565b5f5f60408385031215610d1557610d14610a09565b5b5f610d2285828601610a30565b9250506020610d3385828601610ceb565b9150509250929050565b5f602082019050610d505f830184610a92565b92915050565b5f602082019050610d695f830184610a78565b92915050565b5f82825260208201905092915050565b7f496e76616c6964207265717565737420494400000000000000000000000000005f82015250565b5f610db3601283610d6f565b9150610dbe82610d7f565b602082019050919050565b5f6020820190508181035f830152610de081610da7565b9050919050565b7f4e6f646520616c726561647920726573706f6e646564000000000000000000005f82015250565b5f610e1b601683610d6f565b9150610e2682610de7565b602082019050919050565b5f6020820190508181035f830152610e4881610e0f565b9050919050565b7f5265717565737420616c726561647920636f6d706c65746564000000000000005f82015250565b5f610e83601983610d6f565b9150610e8e82610e4f565b602082019050919050565b5f6020820190508181035f830152610eb081610e77565b9050919050565b7f4e487b71000000000000000000000000000000000000000000000000000000005f52601160045260245ffd5b5f610eee82610a6f565b91507fffffffffffffffffffffffffffffffffffffffffffffffffffffffffffffffff8203610f2057610f1f610eb7565b5b600182019050919050565b7f416c72656164792063616c63756c6174656400000000000000000000000000005f82015250565b5f610f5f601283610d6f565b9150610f6a82610f2b565b602082019050919050565b5f6020820190508181035f830152610f8c81610f53565b9050919050565b7f4e6f7420616c6c206e6f64657320726573706f6e6465642079657400000000005f82015250565b5f610fc7601b83610d6f565b9150610fd282610f93565b602082019050919050565b5f6020820190508181035f830152610ff481610fbb565b9050919050565b7f4e487b71000000000000000000000000000000000000000000000000000000005f52603260045260245ffd5b5f61103282610a6f565b915061103d83610a6f565b925082820190508082111561105557611054610eb7565b5b92915050565b7f4e487b71000000000000000000000000000000000000000000000000000000005f52601260045260245ffd5b5f61109282610a6f565b915061109d83610a6f565b9250826110ad576110ac61105b565b5b828204905092915050565b7f4e6f206e6f6465732070726f76696465640000000000000000000000000000005f82015250565b5f6110ec601183610d6f565b91506110f7826110b8565b602082019050919050565b5f6020820190508181035f830152611119816110e0565b9050919050565b5f819050919050565b61113a61113582610a6f565b611120565b82525050565b5f61114b8285611129565b60208201915061115b8284611129565b6020820191508190509392505050565b5f602082840312156111805761117f610a09565b5b5f61118d84828501610ceb565b91505092915050565b61119f81610cc4565b82525050565b5f6080820190506111b85f830187610c1e565b6111c56020830186610a78565b6111d26040830185610a78565b6111df6060830184611196565b95945050505050565b5f6060820190506111fb5f830186610a78565b6112086020830185610a78565b6112156040830184610a78565b94935050505056fea2646970667358221220e1f8c68df691ac2f8647780aa3e76906d7d156b82ed4dfe07e1fd0b1159675ca64736f6c634300081f0033",
			"opcodes": "PUSH1 0x80 PUSH1 0x40 MSTORE CALLVALUE DUP1 ISZERO PUSH1 0xE JUMPI PUSH0 PUSH0 REVERT JUMPDEST POP PUSH2 0x1253 DUP1 PUSH2 0x1C PUSH0 CODECOPY PUSH0 RETURN INVALID PUSH1 0x80 PUSH1 0x40 MSTORE CALLVALUE DUP1 ISZERO PUSH2 0xF JUMPI PUSH0 PUSH0 REVERT JUMPDEST POP PUSH1 0x4 CALLDATASIZE LT PUSH2 0x7B JUMPI PUSH0 CALLDATALOAD PUSH1 0xE0 SHR DUP1 PUSH4 0x82A87C01 GT PUSH2 0x59 JUMPI DUP1 PUSH4 0x82A87C01 EQ PUSH2 0xEA JUMPI DUP1 PUSH4 0x9D866985 EQ PUSH2 0x11A JUMPI DUP1 PUSH4 0xBCF88653 EQ PUSH2 0x14F JUMPI DUP1 PUSH4 0xFAB7D44B EQ PUSH2 0x17F JUMPI PUSH2 0x7B JUMP JUMPDEST DUP1 PUSH4 0x45D07664 EQ PUSH2 0x7F JUMPI DUP1 PUSH4 0x512FED43 EQ PUSH2 0xB2 JUMPI DUP1 PUSH4 0x59E9E22B EQ PUSH2 0xCE JUMPI JUMPDEST PUSH0 PUSH0 REVERT JUMPDEST PUSH2 0x99 PUSH1 0x4 DUP1 CALLDATASIZE SUB DUP2 ADD SWAP1 PUSH2 0x94 SWAP2 SWAP1 PUSH2 0xA44 JUMP JUMPDEST PUSH2 0x1AF JUMP JUMPDEST PUSH1 0x40 MLOAD PUSH2 0xA9 SWAP5 SWAP4 SWAP3 SWAP2 SWAP1 PUSH2 0xAA1 JUMP JUMPDEST PUSH1 0x40 MLOAD DUP1 SWAP2 SUB SWAP1 RETURN JUMPDEST PUSH2 0xCC PUSH1 0x4 DUP1 CALLDATASIZE SUB DUP2 ADD SWAP1 PUSH2 0xC7 SWAP2 SWAP1 PUSH2 0xB0E JUMP JUMPDEST PUSH2 0x1F6 JUMP JUMPDEST STOP JUMPDEST PUSH2 0xE8 PUSH1 0x4 DUP1 CALLDATASIZE SUB DUP2 ADD SWAP1 PUSH2 0xE3 SWAP2 SWAP1 PUSH2 0xA44 JUMP JUMPDEST PUSH2 0x44D JUMP JUMPDEST STOP JUMPDEST PUSH2 0x104 PUSH1 0x4 DUP1 CALLDATASIZE SUB DUP2 ADD SWAP1 PUSH2 0xFF SWAP2 SWAP1 PUSH2 0xBAD JUMP JUMPDEST PUSH2 0x666 JUMP JUMPDEST PUSH1 0x40 MLOAD PUSH2 0x111 SWAP2 SWAP1 PUSH2 0xC2D JUMP JUMPDEST PUSH1 0x40 MLOAD DUP1 SWAP2 SUB SWAP1 RETURN JUMPDEST PUSH2 0x134 PUSH1 0x4 DUP1 CALLDATASIZE SUB DUP2 ADD SWAP1 PUSH2 0x12F SWAP2 SWAP1 PUSH2 0xA44 JUMP JUMPDEST PUSH2 0x852 JUMP JUMPDEST PUSH1 0x40 MLOAD PUSH2 0x146 SWAP7 SWAP6 SWAP5 SWAP4 SWAP3 SWAP2 SWAP1 PUSH2 0xC46 JUMP JUMPDEST PUSH1 0x40 MLOAD DUP1 SWAP2 SUB SWAP1 RETURN JUMPDEST PUSH2 0x169 PUSH1 0x4 DUP1 CALLDATASIZE SUB DUP2 ADD SWAP1 PUSH2 0x164 SWAP2 SWAP1 PUSH2 0xCFF JUMP JUMPDEST PUSH2 0x895 JUMP JUMPDEST PUSH1 0x40 MLOAD PUSH2 0x176 SWAP2 SWAP1 PUSH2 0xD3D JUMP JUMPDEST PUSH1 0x40 MLOAD DUP1 SWAP2 SUB SWAP1 RETURN JUMPDEST PUSH2 0x199 PUSH1 0x4 DUP1 CALLDATASIZE SUB DUP2 ADD SWAP1 PUSH2 0x194 SWAP2 SWAP1 PUSH2 0xCFF JUMP JUMPDEST PUSH2 0x8F9 JUMP JUMPDEST PUSH1 0x40 MLOAD PUSH2 0x1A6 SWAP2 SWAP1 PUSH2 0xD56 JUMP JUMPDEST PUSH1 0x40 MLOAD DUP1 SWAP2 SUB SWAP1 RETURN JUMPDEST PUSH0 PUSH0 PUSH0 PUSH0 PUSH0 PUSH0 PUSH0 DUP8 DUP2 MSTORE PUSH1 0x20 ADD SWAP1 DUP2 MSTORE PUSH1 0x20 ADD PUSH0 KECCAK256 SWAP1 POP DUP1 PUSH1 0x5 ADD SLOAD DUP2 PUSH1 0x6 ADD SLOAD DUP3 PUSH1 0x7 ADD SLOAD DUP4 PUSH1 0x8 ADD PUSH0 SWAP1 SLOAD SWAP1 PUSH2 0x100 EXP SWAP1 DIV PUSH1 0xFF AND SWAP5 POP SWAP5 POP SWAP5 POP SWAP5 POP POP SWAP2 SWAP4 POP SWAP2 SWAP4 JUMP JUMPDEST PUSH0 PUSH0 PUSH0 DUP5 DUP2 MSTORE PUSH1 0x20 ADD SWAP1 DUP2 MSTORE PUSH1 0x20 ADD PUSH0 KECCAK256 SWAP1 POP PUSH0 DUP2 PUSH1 0x6 ADD SLOAD GT PUSH2 0x24F JUMPI PUSH1 0x40 MLOAD PUSH32 0x8C379A000000000000000000000000000000000000000000000000000000000 DUP2 MSTORE PUSH1 0x4 ADD PUSH2 0x246 SWAP1 PUSH2 0xDC9 JUMP JUMPDEST PUSH1 0x40 MLOAD DUP1 SWAP2 SUB SWAP1 REVERT JUMPDEST DUP1 PUSH1 0x4 ADD PUSH0 CALLER PUSH20 0xFFFFFFFFFFFFFFFFFFFFFFFFFFFFFFFFFFFFFFFF AND PUSH20 0xFFFFFFFFFFFFFFFFFFFFFFFFFFFFFFFFFFFFFFFF AND DUP2 MSTORE PUSH1 0x20 ADD SWAP1 DUP2 MSTORE PUSH1 0x20 ADD PUSH0 KECCAK256 PUSH0 SWAP1 SLOAD SWAP1 PUSH2 0x100 EXP SWAP1 DIV PUSH1 0xFF AND ISZERO PUSH2 0x2DB JUMPI PUSH1 0x40 MLOAD PUSH32 0x8C379A000000000000000000000000000000000000000000000000000000000 DUP2 MSTORE PUSH1 0x4 ADD PUSH2 0x2D2 SWAP1 PUSH2 0xE31 JUMP JUMPDEST PUSH1 0x40 MLOAD DUP1 SWAP2 SUB SWAP1 REVERT JUMPDEST DUP1 PUSH1 0x8 ADD PUSH0 SWAP1 SLOAD SWAP1 PUSH2 0x100 EXP SWAP1 DIV PUSH1 0xFF AND ISZERO PUSH2 0x32C JUMPI PUSH1 0x40 MLOAD PUSH32 0x8C379A000000000000000000000000000000000000000000000000000000000 DUP2 MSTORE PUSH1 0x4 ADD PUSH2 0x323 SWAP1 PUSH2 0xE99 JUMP JUMPDEST PUSH1 0x40 MLOAD DUP1 SWAP2 SUB SWAP1 REVERT JUMPDEST DUP2 DUP2 PUSH1 0x3 ADD PUSH0 CALLER PUSH20 0xFFFFFFFFFFFFFFFFFFFFFFFFFFFFFFFFFFFFFFFF AND PUSH20 0xFFFFFFFFFFFFFFFFFFFFFFFFFFFFFFFFFFFFFFFF AND DUP2 MSTORE PUSH1 0x20 ADD SWAP1 DUP2 MSTORE PUSH1 0x20 ADD PUSH0 KECCAK256 DUP2 SWAP1 SSTORE POP PUSH1 0x1 DUP2 PUSH1 0x4 ADD PUSH0 CALLER PUSH20 0xFFFFFFFFFFFFFFFFFFFFFFFFFFFFFFFFFFFFFFFF AND PUSH20 0xFFFFFFFFFFFFFFFFFFFFFFFFFFFFFFFFFFFFFFFF AND DUP2 MSTORE PUSH1 0x20 ADD SWAP1 DUP2 MSTORE PUSH1 0x20 ADD PUSH0 KECCAK256 PUSH0 PUSH2 0x100 EXP DUP2 SLOAD DUP2 PUSH1 0xFF MUL NOT AND SWAP1 DUP4 ISZERO ISZERO MUL OR SWAP1 SSTORE POP DUP1 PUSH1 0x5 ADD PUSH0 DUP2 SLOAD DUP1 SWAP3 SWAP2 SWAP1 PUSH2 0x3DB SWAP1 PUSH2 0xEE4 JUMP JUMPDEST SWAP2 SWAP1 POP SSTORE POP CALLER PUSH20 0xFFFFFFFFFFFFFFFFFFFFFFFFFFFFFFFFFFFFFFFF AND DUP4 PUSH32 0xB65DCACAABDD1C739EC12F70F9F2FC5628C616D2940061108347F4008D9CEB0E DUP5 PUSH1 0x40 MLOAD PUSH2 0x427 SWAP2 SWAP1 PUSH2 0xD56 JUMP JUMPDEST PUSH1 0x40 MLOAD DUP1 SWAP2 SUB SWAP1 LOG3 DUP1 PUSH1 0x6 ADD SLOAD DUP2 PUSH1 0x5 ADD SLOAD SUB PUSH2 0x448 JUMPI PUSH2 0x447 DUP4 PUSH2 0x44D JUMP JUMPDEST JUMPDEST POP POP POP JUMP JUMPDEST PUSH0 PUSH0 PUSH0 DUP4 DUP2 MSTORE PUSH1 0x20 ADD SWAP1 DUP2 MSTORE PUSH1 0x20 ADD PUSH0 KECCAK256 SWAP1 POP PUSH0 DUP2 PUSH1 0x6 ADD SLOAD GT PUSH2 0x4A6 JUMPI PUSH1 0x40 MLOAD PUSH32 0x8C379A000000000000000000000000000000000000000000000000000000000 DUP2 MSTORE PUSH1 0x4 ADD PUSH2 0x49D SWAP1 PUSH2 0xDC9 JUMP JUMPDEST PUSH1 0x40 MLOAD DUP1 SWAP2 SUB SWAP1 REVERT JUMPDEST DUP1 PUSH1 0x8 ADD PUSH0 SWAP1 SLOAD SWAP1 PUSH2 0x100 EXP SWAP1 DIV PUSH1 0xFF AND ISZERO PUSH2 0x4F7 JUMPI PUSH1 0x40 MLOAD PUSH32 0x8C379A000000000000000000000000000000000000000000000000000000000 DUP2 MSTORE PUSH1 0x4 ADD PUSH2 0x4EE SWAP1 PUSH2 0xF75 JUMP JUMPDEST PUSH1 0x40 MLOAD DUP1 SWAP2 SUB SWAP1 REVERT JUMPDEST DUP1 PUSH1 0x6 ADD SLOAD DUP2 PUSH1 0x5 ADD SLOAD EQ PUSH2 0x541 JUMPI PUSH1 0x40 MLOAD PUSH32 0x8C379A000000000000000000000000000000000000000000000000000000000 DUP2 MSTORE PUSH1 0x4 ADD PUSH2 0x538 SWAP1 PUSH2 0xFDD JUMP JUMPDEST PUSH1 0x40 MLOAD DUP1 SWAP2 SUB SWAP1 REVERT JUMPDEST PUSH0 PUSH0 SWAP1 POP PUSH0 PUSH0 SWAP1 POP JUMPDEST DUP3 PUSH1 0x2 ADD DUP1 SLOAD SWAP1 POP DUP2 LT ISZERO PUSH2 0x5F0 JUMPI DUP3 PUSH1 0x3 ADD PUSH0 DUP5 PUSH1 0x2 ADD DUP4 DUP2 SLOAD DUP2 LT PUSH2 0x574 JUMPI PUSH2 0x573 PUSH2 0xFFB JUMP JUMPDEST JUMPDEST SWAP1 PUSH0 MSTORE PUSH1 0x20 PUSH0 KECCAK256 ADD PUSH0 SWAP1 SLOAD SWAP1 PUSH2 0x100 EXP SWAP1 DIV PUSH20 0xFFFFFFFFFFFFFFFFFFFFFFFFFFFFFFFFFFFFFFFF AND PUSH20 0xFFFFFFFFFFFFFFFFFFFFFFFFFFFFFFFFFFFFFFFF AND PUSH20 0xFFFFFFFFFFFFFFFFFFFFFFFFFFFFFFFFFFFFFFFF AND DUP2 MSTORE PUSH1 0x20 ADD SWAP1 DUP2 MSTORE PUSH1 0x20 ADD PUSH0 KECCAK256 SLOAD DUP3 PUSH2 0x5E1 SWAP2 SWAP1 PUSH2 0x1028 JUMP JUMPDEST SWAP2 POP DUP1 DUP1 PUSH1 0x1 ADD SWAP2 POP POP PUSH2 0x54A JUMP JUMPDEST POP DUP2 PUSH1 0x6 ADD SLOAD DUP2 PUSH2 0x601 SWAP2 SWAP1 PUSH2 0x1088 JUMP JUMPDEST DUP3 PUSH1 0x7 ADD DUP2 SWAP1 SSTORE POP PUSH1 0x1 DUP3 PUSH1 0x8 ADD PUSH0 PUSH2 0x100 EXP DUP2 SLOAD DUP2 PUSH1 0xFF MUL NOT AND SWAP1 DUP4 ISZERO ISZERO MUL OR SWAP1 SSTORE POP DUP3 PUSH32 0x2892D598E4E0A5F04879C50284827A25921E2883E44EA0F7A4AD076B4BE83322 DUP4 PUSH1 0x7 ADD SLOAD PUSH1 0x40 MLOAD PUSH2 0x659 SWAP2 SWAP1 PUSH2 0xD56 JUMP JUMPDEST PUSH1 0x40 MLOAD DUP1 SWAP2 SUB SWAP1 LOG2 POP POP POP JUMP JUMPDEST PUSH0 PUSH0 DUP4 DUP4 SWAP1 POP GT PUSH2 0x6AC JUMPI PUSH1 0x40 MLOAD PUSH32 0x8C379A000000000000000000000000000000000000000000000000000000000 DUP2 MSTORE PUSH1 0x4 ADD PUSH2 0x6A3 SWAP1 PUSH2 0x1102 JUMP JUMPDEST PUSH1 0x40 MLOAD DUP1 SWAP2 SUB SWAP1 REVERT JUMPDEST PUSH0 TIMESTAMP PUSH1 0x1 PUSH0 DUP2 SLOAD DUP1 SWAP3 SWAP2 SWAP1 PUSH2 0x6C0 SWAP1 PUSH2 0xEE4 JUMP JUMPDEST SWAP2 SWAP1 POP SSTORE PUSH1 0x40 MLOAD PUSH1 0x20 ADD PUSH2 0x6D5 SWAP3 SWAP2 SWAP1 PUSH2 0x1140 JUMP JUMPDEST PUSH1 0x40 MLOAD PUSH1 0x20 DUP2 DUP4 SUB SUB DUP2 MSTORE SWAP1 PUSH1 0x40 MSTORE DUP1 MLOAD SWAP1 PUSH1 0x20 ADD KECCAK256 SWAP1 POP PUSH0 PUSH0 PUSH0 DUP4 DUP2 MSTORE PUSH1 0x20 ADD SWAP1 DUP2 MSTORE PUSH1 0x20 ADD PUSH0 KECCAK256 SWAP1 POP DUP7 DUP2 PUSH0 ADD DUP2 SWAP1 SSTORE POP DUP6 DUP2 PUSH1 0x1 ADD DUP2 SWAP1 SSTORE POP DUP5 DUP5 DUP3 PUSH1 0x2 ADD SWAP2 SWAP1 PUSH2 0x724 SWAP3 SWAP2 SWAP1 PUSH2 0x951 JUMP JUMPDEST POP DUP5 DUP5 SWAP1 POP DUP2 PUSH1 0x6 ADD DUP2 SWAP1 SSTORE POP PUSH0 DUP2 PUSH1 0x5 ADD DUP2 SWAP1 SSTORE POP PUSH0 DUP2 PUSH1 0x8 ADD PUSH0 PUSH2 0x100 EXP DUP2 SLOAD DUP2 PUSH1 0xFF MUL NOT AND SWAP1 DUP4 ISZERO ISZERO MUL OR SWAP1 SSTORE POP PUSH0 PUSH0 SWAP1 POP JUMPDEST DUP6 DUP6 SWAP1 POP DUP2 LT ISZERO PUSH2 0x805 JUMPI DUP6 DUP6 DUP3 DUP2 DUP2 LT PUSH2 0x778 JUMPI PUSH2 0x777 PUSH2 0xFFB JUMP JUMPDEST JUMPDEST SWAP1 POP PUSH1 0x20 MUL ADD PUSH1 0x20 DUP2 ADD SWAP1 PUSH2 0x78D SWAP2 SWAP1 PUSH2 0x116B JUMP JUMPDEST PUSH20 0xFFFFFFFFFFFFFFFFFFFFFFFFFFFFFFFFFFFFFFFF AND PUSH4 0x88D80823 DUP5 DUP11 DUP11 ADDRESS PUSH1 0x40 MLOAD DUP6 PUSH4 0xFFFFFFFF AND PUSH1 0xE0 SHL DUP2 MSTORE PUSH1 0x4 ADD PUSH2 0x7CB SWAP5 SWAP4 SWAP3 SWAP2 SWAP1 PUSH2 0x11A5 JUMP JUMPDEST PUSH0 PUSH1 0x40 MLOAD DUP1 DUP4 SUB DUP2 PUSH0 DUP8 DUP1 EXTCODESIZE ISZERO DUP1 ISZERO PUSH2 0x7E2 JUMPI PUSH0 PUSH0 REVERT JUMPDEST POP GAS CALL ISZERO DUP1 ISZERO PUSH2 0x7F4 JUMPI RETURNDATASIZE PUSH0 PUSH0 RETURNDATACOPY RETURNDATASIZE PUSH0 REVERT JUMPDEST POP POP POP POP DUP1 DUP1 PUSH1 0x1 ADD SWAP2 POP POP PUSH2 0x75A JUMP JUMPDEST POP DUP2 PUSH32 0x886BCECF5AFD8198EB4189263AE211916ADEB68A5BF7E3E5988E9F53446D1BB6 DUP9 DUP9 DUP9 DUP9 SWAP1 POP PUSH1 0x40 MLOAD PUSH2 0x83D SWAP4 SWAP3 SWAP2 SWAP1 PUSH2 0x11E8 JUMP JUMPDEST PUSH1 0x40 MLOAD DUP1 SWAP2 SUB SWAP1 LOG2 DUP2 SWAP3 POP POP POP SWAP5 SWAP4 POP POP POP POP JUMP JUMPDEST PUSH0 PUSH1 0x20 MSTORE DUP1 PUSH0 MSTORE PUSH1 0x40 PUSH0 KECCAK256 PUSH0 SWAP2 POP SWAP1 POP DUP1 PUSH0 ADD SLOAD SWAP1 DUP1 PUSH1 0x1 ADD SLOAD SWAP1 DUP1 PUSH1 0x5 ADD SLOAD SWAP1 DUP1 PUSH1 0x6 ADD SLOAD SWAP1 DUP1 PUSH1 0x7 ADD SLOAD SWAP1 DUP1 PUSH1 0x8 ADD PUSH0 SWAP1 SLOAD SWAP1 PUSH2 0x100 EXP SWAP1 DIV PUSH1 0xFF AND SWAP1 POP DUP7 JUMP JUMPDEST PUSH0 PUSH0 PUSH0 DUP5 DUP2 MSTORE PUSH1 0x20 ADD SWAP1 DUP2 MSTORE PUSH1 0x20 ADD PUSH0 KECCAK256 PUSH1 0x4 ADD PUSH0 DUP4 PUSH20 0xFFFFFFFFFFFFFFFFFFFFFFFFFFFFFFFFFFFFFFFF AND PUSH20 0xFFFFFFFFFFFFFFFFFFFFFFFFFFFFFFFFFFFFFFFF AND DUP2 MSTORE PUSH1 0x20 ADD SWAP1 DUP2 MSTORE PUSH1 0x20 ADD PUSH0 KECCAK256 PUSH0 SWAP1 SLOAD SWAP1 PUSH2 0x100 EXP SWAP1 DIV PUSH1 0xFF AND SWAP1 POP SWAP3 SWAP2 POP POP JUMP JUMPDEST PUSH0 PUSH0 PUSH0 DUP5 DUP2 MSTORE PUSH1 0x20 ADD SWAP1 DUP2 MSTORE PUSH1 0x20 ADD PUSH0 KECCAK256 PUSH1 0x3 ADD PUSH0 DUP4 PUSH20 0xFFFFFFFFFFFFFFFFFFFFFFFFFFFFFFFFFFFFFFFF AND PUSH20 0xFFFFFFFFFFFFFFFFFFFFFFFFFFFFFFFFFFFFFFFF AND DUP2 MSTORE PUSH1 0x20 ADD SWAP1 DUP2 MSTORE PUSH1 0x20 ADD PUSH0 KECCAK256 SLOAD SWAP1 POP SWAP3 SWAP2 POP POP JUMP JUMPDEST DUP3 DUP1 SLOAD DUP3 DUP3 SSTORE SWAP1 PUSH0 MSTORE PUSH1 0x20 PUSH0 KECCAK256 SWAP1 DUP2 ADD SWAP3 DUP3 ISZERO PUSH2 0x9DD JUMPI SWAP2 PUSH1 0x20 MUL DUP3 ADD JUMPDEST DUP3 DUP2 GT ISZERO PUSH2 0x9DC JUMPI DUP3 CALLDATALOAD PUSH20 0xFFFFFFFFFFFFFFFFFFFFFFFFFFFFFFFFFFFFFFFF AND DUP3 PUSH0 PUSH2 0x100 EXP DUP2 SLOAD DUP2 PUSH20 0xFFFFFFFFFFFFFFFFFFFFFFFFFFFFFFFFFFFFFFFF MUL NOT AND SWAP1 DUP4 PUSH20 0xFFFFFFFFFFFFFFFFFFFFFFFFFFFFFFFFFFFFFFFF AND MUL OR SWAP1 SSTORE POP SWAP2 PUSH1 0x20 ADD SWAP2 SWAP1 PUSH1 0x1 ADD SWAP1 PUSH2 0x96F JUMP JUMPDEST JUMPDEST POP SWAP1 POP PUSH2 0x9EA SWAP2 SWAP1 PUSH2 0x9EE JUMP JUMPDEST POP SWAP1 JUMP JUMPDEST JUMPDEST DUP1 DUP3 GT ISZERO PUSH2 0xA05 JUMPI PUSH0 DUP2 PUSH0 SWAP1 SSTORE POP PUSH1 0x1 ADD PUSH2 0x9EF JUMP JUMPDEST POP SWAP1 JUMP JUMPDEST PUSH0 PUSH0 REVERT JUMPDEST PUSH0 PUSH0 REVERT JUMPDEST PUSH0 DUP2 SWAP1 POP SWAP2 SWAP1 POP JUMP JUMPDEST PUSH2 0xA23 DUP2 PUSH2 0xA11 JUMP JUMPDEST DUP2 EQ PUSH2 0xA2D JUMPI PUSH0 PUSH0 REVERT JUMPDEST POP JUMP JUMPDEST PUSH0 DUP2 CALLDATALOAD SWAP1 POP PUSH2 0xA3E DUP2 PUSH2 0xA1A JUMP JUMPDEST SWAP3 SWAP2 POP POP JUMP JUMPDEST PUSH0 PUSH1 0x20 DUP3 DUP5 SUB SLT ISZERO PUSH2 0xA59 JUMPI PUSH2 0xA58 PUSH2 0xA09 JUMP JUMPDEST JUMPDEST PUSH0 PUSH2 0xA66 DUP5 DUP3 DUP6 ADD PUSH2 0xA30 JUMP JUMPDEST SWAP2 POP POP SWAP3 SWAP2 POP POP JUMP JUMPDEST PUSH0 DUP2 SWAP1 POP SWAP2 SWAP1 POP JUMP JUMPDEST PUSH2 0xA81 DUP2 PUSH2 0xA6F JUMP JUMPDEST DUP3 MSTORE POP POP JUMP JUMPDEST PUSH0 DUP2 ISZERO ISZERO SWAP1 POP SWAP2 SWAP1 POP JUMP JUMPDEST PUSH2 0xA9B DUP2 PUSH2 0xA87 JUMP JUMPDEST DUP3 MSTORE POP POP JUMP JUMPDEST PUSH0 PUSH1 0x80 DUP3 ADD SWAP1 POP PUSH2 0xAB4 PUSH0 DUP4 ADD DUP8 PUSH2 0xA78 JUMP JUMPDEST PUSH2 0xAC1 PUSH1 0x20 DUP4 ADD DUP7 PUSH2 0xA78 JUMP JUMPDEST PUSH2 0xACE PUSH1 0x40 DUP4 ADD DUP6 PUSH2 0xA78 JUMP JUMPDEST PUSH2 0xADB PUSH1 0x60 DUP4 ADD DUP5 PUSH2 0xA92 JUMP JUMPDEST SWAP6 SWAP5 POP POP POP POP POP JUMP JUMPDEST PUSH2 0xAED DUP2 PUSH2 0xA6F JUMP JUMPDEST DUP2 EQ PUSH2 0xAF7 JUMPI PUSH0 PUSH0 REVERT JUMPDEST POP JUMP JUMPDEST PUSH0 DUP2 CALLDATALOAD SWAP1 POP PUSH2 0xB08 DUP2 PUSH2 0xAE4 JUMP JUMPDEST SWAP3 SWAP2 POP POP JUMP JUMPDEST PUSH0 PUSH0 PUSH1 0x40 DUP4 DUP6 SUB SLT ISZERO PUSH2 0xB24 JUMPI PUSH2 0xB23 PUSH2 0xA09 JUMP JUMPDEST JUMPDEST PUSH0 PUSH2 0xB31 DUP6 DUP3 DUP7 ADD PUSH2 0xA30 JUMP JUMPDEST SWAP3 POP POP PUSH1 0x20 PUSH2 0xB42 DUP6 DUP3 DUP7 ADD PUSH2 0xAFA JUMP JUMPDEST SWAP2 POP POP SWAP3 POP SWAP3 SWAP1 POP JUMP JUMPDEST PUSH0 PUSH0 REVERT JUMPDEST PUSH0 PUSH0 REVERT JUMPDEST PUSH0 PUSH0 REVERT JUMPDEST PUSH0 PUSH0 DUP4 PUSH1 0x1F DUP5 ADD SLT PUSH2 0xB6D JUMPI PUSH2 0xB6C PUSH2 0xB4C JUMP JUMPDEST JUMPDEST DUP3 CALLDATALOAD SWAP1 POP PUSH8 0xFFFFFFFFFFFFFFFF DUP2 GT ISZERO PUSH2 0xB8A JUMPI PUSH2 0xB89 PUSH2 0xB50 JUMP JUMPDEST JUMPDEST PUSH1 0x20 DUP4 ADD SWAP2 POP DUP4 PUSH1 0x20 DUP3 MUL DUP4 ADD GT ISZERO PUSH2 0xBA6 JUMPI PUSH2 0xBA5 PUSH2 0xB54 JUMP JUMPDEST JUMPDEST SWAP3 POP SWAP3 SWAP1 POP JUMP JUMPDEST PUSH0 PUSH0 PUSH0 PUSH0 PUSH1 0x60 DUP6 DUP8 SUB SLT ISZERO PUSH2 0xBC5 JUMPI PUSH2 0xBC4 PUSH2 0xA09 JUMP JUMPDEST JUMPDEST PUSH0 PUSH2 0xBD2 DUP8 DUP3 DUP9 ADD PUSH2 0xAFA JUMP JUMPDEST SWAP5 POP POP PUSH1 0x20 PUSH2 0xBE3 DUP8 DUP3 DUP9 ADD PUSH2 0xAFA JUMP JUMPDEST SWAP4 POP POP PUSH1 0x40 DUP6 ADD CALLDATALOAD PUSH8 0xFFFFFFFFFFFFFFFF DUP2 GT ISZERO PUSH2 0xC04 JUMPI PUSH2 0xC03 PUSH2 0xA0D JUMP JUMPDEST JUMPDEST PUSH2 0xC10 DUP8 DUP3 DUP9 ADD PUSH2 0xB58 JUMP JUMPDEST SWAP3 POP SWAP3 POP POP SWAP3 SWAP6 SWAP2 SWAP5 POP SWAP3 POP JUMP JUMPDEST PUSH2 0xC27 DUP2 PUSH2 0xA11 JUMP JUMPDEST DUP3 MSTORE POP POP JUMP JUMPDEST PUSH0 PUSH1 0x20 DUP3 ADD SWAP1 POP PUSH2 0xC40 PUSH0 DUP4 ADD DUP5 PUSH2 0xC1E JUMP JUMPDEST SWAP3 SWAP2 POP POP JUMP JUMPDEST PUSH0 PUSH1 0xC0 DUP3 ADD SWAP1 POP PUSH2 0xC59 PUSH0 DUP4 ADD DUP10 PUSH2 0xA78 JUMP JUMPDEST PUSH2 0xC66 PUSH1 0x20 DUP4 ADD DUP9 PUSH2 0xA78 JUMP JUMPDEST PUSH2 0xC73 PUSH1 0x40 DUP4 ADD DUP8 PUSH2 0xA78 JUMP JUMPDEST PUSH2 0xC80 PUSH1 0x60 DUP4 ADD DUP7 PUSH2 0xA78 JUMP JUMPDEST PUSH2 0xC8D PUSH1 0x80 DUP4 ADD DUP6 PUSH2 0xA78 JUMP JUMPDEST PUSH2 0xC9A PUSH1 0xA0 DUP4 ADD DUP5 PUSH2 0xA92 JUMP JUMPDEST SWAP8 SWAP7 POP POP POP POP POP POP POP JUMP JUMPDEST PUSH0 PUSH20 0xFFFFFFFFFFFFFFFFFFFFFFFFFFFFFFFFFFFFFFFF DUP3 AND SWAP1 POP SWAP2 SWAP1 POP JUMP JUMPDEST PUSH0 PUSH2 0xCCE DUP3 PUSH2 0xCA5 JUMP JUMPDEST SWAP1 POP SWAP2 SWAP1 POP JUMP JUMPDEST PUSH2 0xCDE DUP2 PUSH2 0xCC4 JUMP JUMPDEST DUP2 EQ PUSH2 0xCE8 JUMPI PUSH0 PUSH0 REVERT JUMPDEST POP JUMP JUMPDEST PUSH0 DUP2 CALLDATALOAD SWAP1 POP PUSH2 0xCF9 DUP2 PUSH2 0xCD5 JUMP JUMPDEST SWAP3 SWAP2 POP POP JUMP JUMPDEST PUSH0 PUSH0 PUSH1 0x40 DUP4 DUP6 SUB SLT ISZERO PUSH2 0xD15 JUMPI PUSH2 0xD14 PUSH2 0xA09 JUMP JUMPDEST JUMPDEST PUSH0 PUSH2 0xD22 DUP6 DUP3 DUP7 ADD PUSH2 0xA30 JUMP JUMPDEST SWAP3 POP POP PUSH1 0x20 PUSH2 0xD33 DUP6 DUP3 DUP7 ADD PUSH2 0xCEB JUMP JUMPDEST SWAP2 POP POP SWAP3 POP SWAP3 SWAP1 POP JUMP JUMPDEST PUSH0 PUSH1 0x20 DUP3 ADD SWAP1 POP PUSH2 0xD50 PUSH0 DUP4 ADD DUP5 PUSH2 0xA92 JUMP JUMPDEST SWAP3 SWAP2 POP POP JUMP JUMPDEST PUSH0 PUSH1 0x20 DUP3 ADD SWAP1 POP PUSH2 0xD69 PUSH0 DUP4 ADD DUP5 PUSH2 0xA78 JUMP JUMPDEST SWAP3 SWAP2 POP POP JUMP JUMPDEST PUSH0 DUP3 DUP3 MSTORE PUSH1 0x20 DUP3 ADD SWAP1 POP SWAP3 SWAP2 POP POP JUMP JUMPDEST PUSH32 0x496E76616C696420726571756573742049440000000000000000000000000000 PUSH0 DUP3 ADD MSTORE POP JUMP JUMPDEST PUSH0 PUSH2 0xDB3 PUSH1 0x12 DUP4 PUSH2 0xD6F JUMP JUMPDEST SWAP2 POP PUSH2 0xDBE DUP3 PUSH2 0xD7F JUMP JUMPDEST PUSH1 0x20 DUP3 ADD SWAP1 POP SWAP2 SWAP1 POP JUMP JUMPDEST PUSH0 PUSH1 0x20 DUP3 ADD SWAP1 POP DUP2 DUP2 SUB PUSH0 DUP4 ADD MSTORE PUSH2 0xDE0 DUP2 PUSH2 0xDA7 JUMP JUMPDEST SWAP1 POP SWAP2 SWAP1 POP JUMP JUMPDEST PUSH32 0x4E6F646520616C726561647920726573706F6E64656400000000000000000000 PUSH0 DUP3 ADD MSTORE POP JUMP JUMPDEST PUSH0 PUSH2 0xE1B PUSH1 0x16 DUP4 PUSH2 0xD6F JUMP JUMPDEST SWAP2 POP PUSH2 0xE26 DUP3 PUSH2 0xDE7 JUMP JUMPDEST PUSH1 0x20 DUP3 ADD SWAP1 POP SWAP2 SWAP1 POP JUMP JUMPDEST PUSH0 PUSH1 0x20 DUP3 ADD SWAP1 POP DUP2 DUP2 SUB PUSH0 DUP4 ADD MSTORE PUSH2 0xE48 DUP2 PUSH2 0xE0F JUMP JUMPDEST SWAP1 POP SWAP2 SWAP1 POP JUMP JUMPDEST PUSH32 0x5265717565737420616C726561647920636F6D706C6574656400000000000000 PUSH0 DUP3 ADD MSTORE POP JUMP JUMPDEST PUSH0 PUSH2 0xE83 PUSH1 0x19 DUP4 PUSH2 0xD6F JUMP JUMPDEST SWAP2 POP PUSH2 0xE8E DUP3 PUSH2 0xE4F JUMP JUMPDEST PUSH1 0x20 DUP3 ADD SWAP1 POP SWAP2 SWAP1 POP JUMP JUMPDEST PUSH0 PUSH1 0x20 DUP3 ADD SWAP1 POP DUP2 DUP2 SUB PUSH0 DUP4 ADD MSTORE PUSH2 0xEB0 DUP2 PUSH2 0xE77 JUMP JUMPDEST SWAP1 POP SWAP2 SWAP1 POP JUMP JUMPDEST PUSH32 0x4E487B7100000000000000000000000000000000000000000000000000000000 PUSH0 MSTORE PUSH1 0x11 PUSH1 0x4 MSTORE PUSH1 0x24 PUSH0 REVERT JUMPDEST PUSH0 PUSH2 0xEEE DUP3 PUSH2 0xA6F JUMP JUMPDEST SWAP2 POP PUSH32 0xFFFFFFFFFFFFFFFFFFFFFFFFFFFFFFFFFFFFFFFFFFFFFFFFFFFFFFFFFFFFFFFF DUP3 SUB PUSH2 0xF20 JUMPI PUSH2 0xF1F PUSH2 0xEB7 JUMP JUMPDEST JUMPDEST PUSH1 0x1 DUP3 ADD SWAP1 POP SWAP2 SWAP1 POP JUMP JUMPDEST PUSH32 0x416C72656164792063616C63756C617465640000000000000000000000000000 PUSH0 DUP3 ADD MSTORE POP JUMP JUMPDEST PUSH0 PUSH2 0xF5F PUSH1 0x12 DUP4 PUSH2 0xD6F JUMP JUMPDEST SWAP2 POP PUSH2 0xF6A DUP3 PUSH2 0xF2B JUMP JUMPDEST PUSH1 0x20 DUP3 ADD SWAP1 POP SWAP2 SWAP1 POP JUMP JUMPDEST PUSH0 PUSH1 0x20 DUP3 ADD SWAP1 POP DUP2 DUP2 SUB PUSH0 DUP4 ADD MSTORE PUSH2 0xF8C DUP2 PUSH2 0xF53 JUMP JUMPDEST SWAP1 POP SWAP2 SWAP1 POP JUMP JUMPDEST PUSH32 0x4E6F7420616C6C206E6F64657320726573706F6E646564207965740000000000 PUSH0 DUP3 ADD MSTORE POP JUMP JUMPDEST PUSH0 PUSH2 0xFC7 PUSH1 0x1B DUP4 PUSH2 0xD6F JUMP JUMPDEST SWAP2 POP PUSH2 0xFD2 DUP3 PUSH2 0xF93 JUMP JUMPDEST PUSH1 0x20 DUP3 ADD SWAP1 POP SWAP2 SWAP1 POP JUMP JUMPDEST PUSH0 PUSH1 0x20 DUP3 ADD SWAP1 POP DUP2 DUP2 SUB PUSH0 DUP4 ADD MSTORE PUSH2 0xFF4 DUP2 PUSH2 0xFBB JUMP JUMPDEST SWAP1 POP SWAP2 SWAP1 POP JUMP JUMPDEST PUSH32 0x4E487B7100000000000000000000000000000000000000000000000000000000 PUSH0 MSTORE PUSH1 0x32 PUSH1 0x4 MSTORE PUSH1 0x24 PUSH0 REVERT JUMPDEST PUSH0 PUSH2 0x1032 DUP3 PUSH2 0xA6F JUMP JUMPDEST SWAP2 POP PUSH2 0x103D DUP4 PUSH2 0xA6F JUMP JUMPDEST SWAP3 POP DUP3 DUP3 ADD SWAP1 POP DUP1 DUP3 GT ISZERO PUSH2 0x1055 JUMPI PUSH2 0x1054 PUSH2 0xEB7 JUMP JUMPDEST JUMPDEST SWAP3 SWAP2 POP POP JUMP JUMPDEST PUSH32 0x4E487B7100000000000000000000000000000000000000000000000000000000 PUSH0 MSTORE PUSH1 0x12 PUSH1 0x4 MSTORE PUSH1 0x24 PUSH0 REVERT JUMPDEST PUSH0 PUSH2 0x1092 DUP3 PUSH2 0xA6F JUMP JUMPDEST SWAP2 POP PUSH2 0x109D DUP4 PUSH2 0xA6F JUMP JUMPDEST SWAP3 POP DUP3 PUSH2 0x10AD JUMPI PUSH2 0x10AC PUSH2 0x105B JUMP JUMPDEST JUMPDEST DUP3 DUP3 DIV SWAP1 POP SWAP3 SWAP2 POP POP JUMP JUMPDEST PUSH32 0x4E6F206E6F6465732070726F7669646564000000000000000000000000000000 PUSH0 DUP3 ADD MSTORE POP JUMP JUMPDEST PUSH0 PUSH2 0x10EC PUSH1 0x11 DUP4 PUSH2 0xD6F JUMP JUMPDEST SWAP2 POP PUSH2 0x10F7 DUP3 PUSH2 0x10B8 JUMP JUMPDEST PUSH1 0x20 DUP3 ADD SWAP1 POP SWAP2 SWAP1 POP JUMP JUMPDEST PUSH0 PUSH1 0x20 DUP3 ADD SWAP1 POP DUP2 DUP2 SUB PUSH0 DUP4 ADD MSTORE PUSH2 0x1119 DUP2 PUSH2 0x10E0 JUMP JUMPDEST SWAP1 POP SWAP2 SWAP1 POP JUMP JUMPDEST PUSH0 DUP2 SWAP1 POP SWAP2 SWAP1 POP JUMP JUMPDEST PUSH2 0x113A PUSH2 0x1135 DUP3 PUSH2 0xA6F JUMP JUMPDEST PUSH2 0x1120 JUMP JUMPDEST DUP3 MSTORE POP POP JUMP JUMPDEST PUSH0 PUSH2 0x114B DUP3 DUP6 PUSH2 0x1129 JUMP JUMPDEST PUSH1 0x20 DUP3 ADD SWAP2 POP PUSH2 0x115B DUP3 DUP5 PUSH2 0x1129 JUMP JUMPDEST PUSH1 0x20 DUP3 ADD SWAP2 POP DUP2 SWAP1 POP SWAP4 SWAP3 POP POP POP JUMP JUMPDEST PUSH0 PUSH1 0x20 DUP3 DUP5 SUB SLT ISZERO PUSH2 0x1180 JUMPI PUSH2 0x117F PUSH2 0xA09 JUMP JUMPDEST JUMPDEST PUSH0 PUSH2 0x118D DUP5 DUP3 DUP6 ADD PUSH2 0xCEB JUMP JUMPDEST SWAP2 POP POP SWAP3 SWAP2 POP POP JUMP JUMPDEST PUSH2 0x119F DUP2 PUSH2 0xCC4 JUMP JUMPDEST DUP3 MSTORE POP POP JUMP JUMPDEST PUSH0 PUSH1 0x80 DUP3 ADD SWAP1 POP PUSH2 0x11B8 PUSH0 DUP4 ADD DUP8 PUSH2 0xC1E JUMP JUMPDEST PUSH2 0x11C5 PUSH1 0x20 DUP4 ADD DUP7 PUSH2 0xA78 JUMP JUMPDEST PUSH2 0x11D2 PUSH1 0x40 DUP4 ADD DUP6 PUSH2 0xA78 JUMP JUMPDEST PUSH2 0x11DF PUSH1 0x60 DUP4 ADD DUP5 PUSH2 0x1196 JUMP JUMPDEST SWAP6 SWAP5 POP POP POP POP POP JUMP JUMPDEST PUSH0 PUSH1 0x60 DUP3 ADD SWAP1 POP PUSH2 0x11FB PUSH0 DUP4 ADD DUP7 PUSH2 0xA78 JUMP JUMPDEST PUSH2 0x1208 PUSH1 0x20 DUP4 ADD DUP6 PUSH2 0xA78 JUMP JUMPDEST PUSH2 0x1215 PUSH1 0x40 DUP4 ADD DUP5 PUSH2 0xA78 JUMP JUMPDEST SWAP5 SWAP4 POP POP POP POP JUMP INVALID LOG2 PUSH5 0x6970667358 0x22 SLT KECCAK256 RJUMPI 0xF8C6 DUP14 0xF6 SWAP2 0xAC 0x2F DUP7 SELFBALANCE PUSH25 0xAA3E76906D7D156B82ED4DFE07E1FD0B1159675CA64736F6C PUSH4 0x4300081F STOP CALLER "
		},
		"gasEstimates": {
			"creation": {
				"codeDepositCost": "938200",
				"executionCost": "973",
				"totalCost": "939173"
			},
			"external": {
				"calculateAverage(bytes32)": "infinite",
				"getNodeScore(bytes32,address)": "3146",
				"getRequestStatus(bytes32)": "infinite",
				"hasNodeResponded(bytes32,address)": "3165",
				"requestNodeScoring(uint256,uint256,address[])": "infinite",
				"requests(bytes32)": "infinite",
				"submitScore(bytes32,uint256)": "infinite"
			}
		},
		"methodIdentifiers": {
			"calculateAverage(bytes32)": "59e9e22b",
			"getNodeScore(bytes32,address)": "fab7d44b",
			"getRequestStatus(bytes32)": "45d07664",
			"hasNodeResponded(bytes32,address)": "bcf88653",
			"requestNodeScoring(uint256,uint256,address[])": "82a87c01",
			"requests(bytes32)": "9d866985",
			"submitScore(bytes32,uint256)": "512fed43"
		}
	},
	"abi": [
		{
			"anonymous": false,
			"inputs": [
				{
					"indexed": true,
					"internalType": "bytes32",
					"name": "requestId",
					"type": "bytes32"
				},
				{
					"indexed": false,
					"internalType": "uint256",
					"name": "average",
					"type": "uint256"
				}
			],
			"name": "AverageCalculated",
			"type": "event"
		},
		{
			"anonymous": false,
			"inputs": [
				{
					"indexed": true,
					"internalType": "bytes32",
					"name": "requestId",
					"type": "bytes32"
				},
				{
					"indexed": true,
					"internalType": "address",
					"name": "node",
					"type": "address"
				},
				{
					"indexed": false,
					"internalType": "uint256",
					"name": "score",
					"type": "uint256"
				}
			],
			"name": "ScoreReceived",
			"type": "event"
		},
		{
			"anonymous": false,
			"inputs": [
				{
					"indexed": true,
					"internalType": "bytes32",
					"name": "requestId",
					"type": "bytes32"
				},
				{
					"indexed": false,
					"internalType": "uint256",
					"name": "coordX",
					"type": "uint256"
				},
				{
					"indexed": false,
					"internalType": "uint256",
					"name": "coordY",
					"type": "uint256"
				},
				{
					"indexed": false,
					"internalType": "uint256",
					"name": "nodeCount",
					"type": "uint256"
				}
			],
			"name": "ScoringRequested",
			"type": "event"
		},
		{
			"inputs": [
				{
					"internalType": "bytes32",
					"name": "_requestId",
					"type": "bytes32"
				}
			],
			"name": "calculateAverage",
			"outputs": [],
			"stateMutability": "nonpayable",
			"type": "function"
		},
		{
			"inputs": [
				{
					"internalType": "bytes32",
					"name": "_requestId",
					"type": "bytes32"
				},
				{
					"internalType": "address",
					"name": "_node",
					"type": "address"
				}
			],
			"name": "getNodeScore",
			"outputs": [
				{
					"internalType": "uint256",
					"name": "",
					"type": "uint256"
				}
			],
			"stateMutability": "view",
			"type": "function"
		},
		{
			"inputs": [
				{
					"internalType": "bytes32",
					"name": "_requestId",
					"type": "bytes32"
				}
			],
			"name": "getRequestStatus",
			"outputs": [
				{
					"internalType": "uint256",
					"name": "responded",
					"type": "uint256"
				},
				{
					"internalType": "uint256",
					"name": "total",
					"type": "uint256"
				},
				{
					"internalType": "uint256",
					"name": "average",
					"type": "uint256"
				},
				{
					"internalType": "bool",
					"name": "complete",
					"type": "bool"
				}
			],
			"stateMutability": "view",
			"type": "function"
		},
		{
			"inputs": [
				{
					"internalType": "bytes32",
					"name": "_requestId",
					"type": "bytes32"
				},
				{
					"internalType": "address",
					"name": "_node",
					"type": "address"
				}
			],
			"name": "hasNodeResponded",
			"outputs": [
				{
					"internalType": "bool",
					"name": "",
					"type": "bool"
				}
			],
			"stateMutability": "view",
			"type": "function"
		},
		{
			"inputs": [
				{
					"internalType": "uint256",
					"name": "_coordX",
					"type": "uint256"
				},
				{
					"internalType": "uint256",
					"name": "_coordY",
					"type": "uint256"
				},
				{
					"internalType": "address[]",
					"name": "_nodes",
					"type": "address[]"
				}
			],
			"name": "requestNodeScoring",
			"outputs": [
				{
					"internalType": "bytes32",
					"name": "",
					"type": "bytes32"
				}
			],
			"stateMutability": "nonpayable",
			"type": "function"
		},
		{
			"inputs": [
				{
					"internalType": "bytes32",
					"name": "",
					"type": "bytes32"
				}
			],
			"name": "requests",
			"outputs": [
				{
					"internalType": "uint256",
					"name": "coordX",
					"type": "uint256"
				},
				{
					"internalType": "uint256",
					"name": "coordY",
					"type": "uint256"
				},
				{
					"internalType": "uint256",
					"name": "respondedCount",
					"type": "uint256"
				},
				{
					"internalType": "uint256",
					"name": "totalNodes",
					"type": "uint256"
				},
				{
					"internalType": "uint256",
					"name": "averageScore",
					"type": "uint256"
				},
				{
					"internalType": "bool",
					"name": "isComplete",
					"type": "bool"
				}
			],
			"stateMutability": "view",
			"type": "function"
		},
		{
			"inputs": [
				{
					"internalType": "bytes32",
					"name": "_requestId",
					"type": "bytes32"
				},
				{
					"internalType": "uint256",
					"name": "_score",
					"type": "uint256"
				}
			],
			"name": "submitScore",
			"outputs": [],
			"stateMutability": "nonpayable",
			"type": "function"
		}
	]
}